:100000000C9495020C94D9020C94F4020C94D9022D
:100010000C94D9020C94D9020C94D9020C94D902F4
:100020000C94D9020C9441110C94D3200C94D90255
:100030000C94D9020C94D9020C94D9020C94D902D4
:100040000C94D9020C94D9020C94D9020C94D902C4
:100050000C94D902430F460F4E0F530F580F5D0FEC
:10006000620F670F6C0F710F760F7B0F7D0F800F84
:10007000830F860F890F8C0F8E0F930FB310B5105F
:10008000BA10BD10C010C310C6106D176D179F17A2
:100090009F17EC171319131913190A18A318B4187A
:1000A000B418AF19AF19C119C119B819C119C119BB
:1000B000C119AF19AF19BD19C119C119BD195C001A
:1000C000130014001500015101515B000E000F00D8
:1000D0001000110012005A0009000A000B000C0069
:1000E0000D00590004000500060007000800045335
:1000F00000000000000001000100035300000000A8
:10010000000000000000025300000000000000009A
:10011000000000530000000000000000000001008B
:1001200000000000000001000100010000000000CC
:1001300000000000000001000000000000000000BE
:1001400000000100000000000000000000000100AD
:10015000000000000000010001000100000000009C
:10016000000000000000010000000000000000008E
:10017000000001000000000000000000000001007D
:10018000000000000000010001000100000000006C
:10019000000000000000010000000000000000005E
:1001A0000000010000000000000000000000321903
:1001B0000A00047F3F1F643214643214783C1E1E10
:1001C000140A052223252628292A2C2D2F303233E4
:1001D0003536383A3B3D3E4042434547494A4C4E0E
:1001E0005051535557595A5C5E6062646668696B3A
:1001F0006D6F71737577797B7D7F81838587898A40
:100200008C8E90929496989A9C9E9FA1A3A5A7A845
:10021000AAACAEAFB1B3B4B6B8B9BBBCBEBFC1C275
:10022000C3C5C6C7C9CACBCCCDCED0D1D2D2D3D408
:10023000D5D6D7D7D8D9D9DADADBDBDBDCDCDCDC26
:10024000DCDDDDDDDDDCDCDCDCDCDBDBDBDADAD9F4
:10025000D9D8D7D7D6D5D4D3D2D2D1D0CECDCCCB76
:10026000CAC9C7C6C5C3C2C1BFBEBCBBB9B8B6B494
:10027000B3B1AFAEACAAA8A7A5A3A19F9E9C9A9824
:10028000969492908E8C8A89878583817F7D7B79F5
:10029000777573716F6D6B6968666462605E5C5AD6
:1002A0005957555351504E4C4A4947454342403E99
:1002B0003D3B3A3836353332302F2D2C2A2928262B
:1002C000252322FFAA7F5540000000000000000007
:1002D00000000001010203040506080A0C0F1114B6
:1002E000181C2024292E33393F464C535B626A7117
:1002F00079818A929AA2AAB2B9C1C8CFD5DCE1E7C6
:10030000EBF0F4F7FAFCFDFEFFFEFDFCFAF7F4F06B
:10031000EBE7E1DCD5CFC8C1B9B2AAA29A928A8133
:1003200079716A625B534C463F39332E2924201C75
:100330001814110F0C0A080605040302010100003D
:1003400000000000000000000001010101010101A6
:10035000010102020202020202020203030303037A
:100360000303030404040404040405050505050649
:100370000606060607070707070808080809090907
:10038000090A0A0A0B0B0B0C0C0C0D0D0D0E0E0EB0
:100390000F0F0F1010111111121213131414151541
:1003A00016161717181819191A1A1B1B1C1D1D1EB3
:1003B0001E1F202021222223242425262627282907
:1003C000292A2B2C2D2D2E2F303132323334353635
:1003D0003738393A3B3C3D3E3F4041424344454635
:1003E0004748494A4C4D4E4F505153545556585911
:1003F0005A5B5D5E5F616264656668696B6C6D6FB8
:100400007072737577787A7B7D7E8082838587882A
:100410008A8C8E8F91939596989A9C9EA0A2A3A564
:10042000A7A9ABADAFB1B3B5B7BABCBEC0C2C4C665
:10043000C9CBCDCFD1D4D6D8DBDDDFE2E4E7E9EB21
:10044000EEF0F3F5F8FAFDFF09023B00020100A00F
:10045000320904000001030101000921010100012A
:10046000224000070581030800010904010001037F
:100470000000000921010100012232000705830369
:1004800008000112011001000000084D5921500020
:1004900002010203010403300000000A034E005071
:1004A000003200310000000A0359004D0044004BA7
:1004B0000000000403090405010980A10185031956
:1004C000012AB700150126B700950175108100C0FB
:1004D000050C0901A101850419012AA002150126B4
:1004E000A002950175108100C005010906A1010552
:1004F0000719E029E7150025019508750181029586
:1005000001750881030507190029FF150026FF0062
:1005100095067508810005081901290595057501DD
:100520009102950175039103C00011241FBECFE510
:10053000D8E0DEBFCDBF04B603FE24C08091BD026B
:100540009091BE02A091BF02B091C0028730904B43
:10055000A740B04BB9F41092BD021092BE021092A7
:10056000BF021092C00214BE84B7877F84BF0FB64B
:10057000F894A89581B5886181BD11BC0FBEE0E0FB
:10058000F8E3099511E0A0E6B0E0E6E5FDE402C07D
:1005900005900D92AE31B107D9F722E0AEE1B1E09E
:1005A00001C01D92AD3BB207E1F70E9432220C94CC
:1005B000A9260C940000A82FB92F80E090E041E01C
:1005C00050EA609530E009C02D9182279795879574
:1005D00010F084279527305EC8F36F5FA8F3089565
:1005E000EADF8D939D930895CF93CFB7CF93C395B3
:1005F000839BE9F7839B0EC0839B0CC0839B0AC03F
:10060000839B08C0839B06C0C0919402C395C0938E
:100610009402A6C0DF93C0919302DD27C556DD4F3B
:10062000839B02C0DF91E6CF2F930F931F9300B3FC
:100630002FEF03FB20F94F933F9310B34FEF0127A8
:1006400003FB21F93BE031C04E7F012F10B3216045
:1006500028C0102F4D7F2260000000B329C04B7FBF
:100660002460012F000010B32BC010B3477F286017
:100670002AC04F7E00B320612CC04F7D10B3206292
:100680002FC04F7B00B3206432C0422700B3499390
:100690004FEF0000102713FB20F910B31C70C9F1B5
:1006A000297F91F2012703FB21F900B3237F89F20F
:1006B000315058F1102713FB22F910B3277E79F23D
:1006C000012703FB23F92F7C81F200B3102713FBD2
:1006D00024F92F7971F200C010B3012703FB25F92B
:1006E0002F7359F200C000B3102713FB26F92230F4
:1006F00040F200C010B3012703FB27F9243028F68D
:100700004F77206810B30000F9CF10E81ABF002718
:100710001CC03B503195C31BD04010E81ABF088164
:10072000033C11F10B3401F1209190021981110F5A
:100730001213EDCF4A81441F093669F10D3211F0D1
:10074000013E29F74F7009F0042F009399023F9161
:100750004F911F910F912F91DF91CAB7C7FD47CFDE
:10076000CF91CFBFCF91189520919902222379F391
:1007700010919702112309F044C034300AF443C0A9
:100780003093970220939202109193023BE0311B29
:100790003093930238C000919702013094F50AE536
:1007A0004F7049F43091850034FD2FC000938500CF
:1007B000CDE6D2E02EC0433059F0443091F0309174
:1007C000780234FD22C000937802C9E7D2E021C04C
:1007D0003091B10234FD19C00093B102C2EBD2E0F6
:1007E00018C03091840234FD10C000938402C5E823
:1007F000D2E00FC02795A8F45150A9F4220F0000B1
:10080000F9CF4AE503C042ED01C0432FC4E1D0E077
:1008100032E011B31C60939A11BB02B320E41CE0D8
:100820005F93012756E002BB279520F4515021F435
:10083000220FF9CF012756E000003B5A02BBD0F24D
:10084000279528F4515029F4220F0000F9CF0127F1
:1008500056E0279502BB20F4515021F4220FF9CF26
:10086000012756E02991332302BB21F6037F109123
:100870009802110FC651D04002BB11F010939002A4
:1008800010E81ABF086011B3137F402F437F5F91B8
:1008900000C000C002BB11BB42BB59CF889A08956B
:1008A0000E944E040C942215CF93C82F0E94C304BB
:1008B000882329F0C0FF02C0909A01C0909881E07F
:1008C000CF91089581E0089581E008950C94640427
:1008D00008950C9468041F93CF93DF9300D000D049
:1008E0001F92CDB7DEB749835A836B83309159018C
:1008F00089819A81311114C0662359F0222349F06D
:100900000E94701E182F682F89819A810E94171EDD
:1009100003C00E94431E182F69817A81812F04C071
:100920000E94701E69817A810F900F900F900F9036
:100930000F90DF91CF911F910C942705FC01262F7A
:10094000408151816281738184810C946B04CF93C7
:10095000DF93EC0160E00E949E04BE01DF91CF9125
:100960000C9469040E9414210E949B1F811102C0F3
:100970000E9444200E94AC110C9414070C941007A0
:1009800008950C94C00481E00895CF93C82F0E946D
:10099000C1048C2F0E945404CF91089508950E94A1
:1009A0009D190E94CE042FEB87E299E021508040F0
:1009B0009040E1F700C000000C94F9200F931F93C2
:1009C000CF93DF93EC0161E00E949E048C01BE0195
:1009D0000E9466048823A9F1BE01C8010E94A410E8
:1009E000882379F1BE01C8010E947412882349F15D
:1009F000BE01C8010E94C612882319F1BE01C801B8
:100A00000E94F1138823E9F0BE01C8010E942C0F57
:100A10008823B9F08A81882369F001158CE51807CD
:100A200031F00E3D1C4531F40E9444200AC00E9462
:100A3000CF0407C0CE01DF91CF911F910F910C948D
:100A4000620480E0DF91CF911F910F91089528E11A
:100A5000829FC0011124FC0126E0729FE00DF11D70
:100A60001124E60FF11DEE0FFF1FE254FF4F859199
:100A700094910895CF93DF930E9427050E942B063F
:100A8000EC0181159245F0F5C11581E5D80708F014
:100A9000A9C0C83ED10528F5C03ED10508F0D7C091
:100AA000C83AD10578F4C53AD10508F074C0C13010
:100AB000D10509F4CCC008F4C8C0C430D10508F091
:100AC000C6C0C3C0CF3BD10508F0BFC0C85AD0E0F4
:100AD000CC0FDD1FCA57DF4F0990D881C02DD464D9
:100AE000B6C0C11590E5D90708F060C0C11520E473
:100AF000D20708F058C0CE019A9581159F4108F49D
:100B0000A6C0A3C0C11586E5D80718F5C11595E59F
:100B1000D90708F080C0C11524E5D20708F076C0D7
:100B20009E01237033278C2F86958695C115D3455A
:100B300008F05DC0C1E0D0E002C0CC0FDD1F2A95F7
:100B4000E2F720E2829FC0011124C82BD92BDC6878
:100B50007EC0C1152AE5D20778F4C11589E5D8070A
:100B600008F063C0C11598E5D90708F46EC0DC2F02
:100B7000CC27C06FD06A6BC0CE01905681159042D1
:100B800008F063C08D2F8F710E94BF06DD27D062F1
:100B90008F71D82B5CC0C55AD0E0CC54DF4FC881D0
:100BA000D0E0D06454C0DF70D06A51C0CE0174E090
:100BB000969587957A95E1F783709C2F937021E045
:100BC00030E002C0220F331F9A95E2F73C68382BC1
:100BD000CF70C695C69580E2C89FE0011124C22B54
:100BE000D32B35C0DC2FCC27C16FD06A30C0C1E019
:100BF000D0E002C0CC0FDD1F2A95E2F720E2829FF1
:100C0000C0011124C82BD92BDA6821C0DC2FCC27D6
:100C1000C46FD06A1CC08C2F0E94BF068F71C82F72
:100C2000D0E0DC2FCC27D06212C08C2F8F700E94B6
:100C3000BF0694E0D695C7959A95E1F7CF70D0E0BE
:100C4000DC2FCC27D069C82B02C0C0E0D0E0CE0199
:100C5000DF91CF9108958238910569F1B0F4813325
:100C6000910509F46DC048F48932910509F463C017
:100C70008A32910509F469C008958533910509F414
:100C800055C089339105B9F00895833E910569F106
:100C900038F4803E9105B1F0823E910509F1089546
:100CA000863E9105A9F1873E9105B9F1843E9105F3
:100CB00009F064C023C020916B0220FD4FC021FDCC
:100CC0004DC0089580916B0280FD44C080916C02FC
:100CD00080FF44C080916B0284FD42C083EE4DC012
:100CE00080916B0282FF38C0F5CF80916B0282FD4C
:100CF00033C080916C0280FD31C0ECCF80916C02DA
:100D000081FF32C080916B0284FD2AC087EE35C01E
:100D100080916B0283FF26C0F5CF80916B0283FD2B
:100D200021C080916C0281FD1FC0ECCF80916B02CD
:100D300085FD1CC01DC080916B0285FD19C016C0C9
:100D400080916B0286FD16C017C080916B0286FDF4
:100D500013C010C089E311C082EE0FC080EE0DC039
:100D600080E00BC086EE09C084EE07C089E205C0B2
:100D700085E303C08AE201C081E390E00895909189
:100D80006B0292FF0DC0282F2871283019F4877F3D
:100D9000846006C0282F2471243011F48B7F886072
:100DA00093FF0DC0282F2871283119F4877E8461A4
:100DB00006C0282F2471243111F48B7E8861209184
:100DC0006C0220FF0DC0382F3871383019F4877F3E
:100DD000816006C0382F3171313011F48E7F886008
:100DE00021FF0DC0282F2871283119F4877E8161D9
:100DF00006C0282F2171213111F48E7E886194FD67
:100E0000877E0895E82FF0E0E25BFD4F8081089532
:100E1000089588E78A95F1F7089508950C940D07D1
:100E20000C940E070C940D070C941207CF93DF93CC
:100E3000ADEBB0E041EC50E061E070E08D91E82F67
:100E4000E295EF70F0E021A98F70EB0102C0CC0FAA
:100E5000DD1F8A95E2F7CE019C2F9095922391ABEE
:100E600092A9892B82AB4A175B0741F7A7EBB0E049
:100E700041E050E08D91E82FE295EF70F0E021A97C
:100E80008F70BA0102C0660F771F8A95E2F7CB0117
:100E9000962F9095922391AB92A9892B82AB70E00B
:100EA000AD3BB70739F710924A0210924E021092EA
:100EB0004B0210924F0210924C021092500210926C
:100EC0004D021092510284E00E94F007DF91CF9111
:100ED0000C94B2046F927F928F929F92AF92BF92C6
:100EE000CF92DF92EF92FF920F931F93CF93DF93F6
:100EF0008DEB882E80E0982E0AE412E09EE4A92E65
:100F000092E0B92E712CCC24C394D12CF4018191A0
:100F10004F01C82FC295CF70D0E099A98F7076018C
:100F200001C0EE0C8A95EAF7892F8E2989AB8AA930
:100F30006E2C609486218AAB0E940907E7EBF0E0F3
:100F400040E050E020E03191A32FA295AF70B0E0D7
:100F5000D0968C9190E03F7002C0959587953A9518
:100F6000E2F780FD07C08C2D042E01C0880F0A9483
:100F7000EAF701C080E0282B4F5F5F4F46305105F4
:100F800011F789A9682269AA8AA9E82AEAAAF801B8
:100F90008081281719F0208381E001C080E0782A41
:100FA0000F5F1F4FA016B10609F0B0CF272D44E008
:100FB0006EE472E08AE492E00E94F1070E94BE04AF
:100FC000872DDF91CF911F910F91FF90EF90DF90D0
:100FD000CF90BF90AF909F908F907F906F9008952B
:100FE0000895FF920F931F93CF93DF938C01F62EFA
:100FF000D72FC42F222349F081E0809320010E9443
:10100000B82090931F0180931E01809120018823B6
:10101000C1F080911E0190911F010E94C42006978B
:1010200080F0EF2DFD2FD8014C2F50E0CD01801B1B
:10103000910B841795071CF48D918193F7CF109233
:101040002001DF91CF911F910F91FF900895EF92B2
:10105000FF920F931F93CF93DF938B01682F111192
:101060000AC0442329F0E82FF0E0E85BFC4F6491CC
:10107000762F862F75C0212F30E0E82FF0E0442333
:1010800021F0E85BFC4FE491F0E046E0049FC001F2
:101090001124CFEFD0E0BE010E944C254BEA46035D
:1010A000C001479F900D1124800F911D800F911D4D
:1010B000982F990F890FAE01421B530B4E9FD00101
:1010C0004F9FB00D5E9FB00D11249B2F189FA00164
:1010D0001124452F55278E01041B150B0E9FA001CF
:1010E0000F9F500D1E9F500D11247E01E81AF1082C
:1010F000E29E8001E39E100DF29E100D1124212F1F
:101100003327C21BD30BCE9F9001CF9F300DDE9FA4
:10111000300D112462307105A9F048F46115710594
:1011200069F061307105C9F48B2F752F0DC06430E3
:10113000710581F058F06630710579F47E2F8B2FA0
:10114000932F0DC0832F7B2F9E2F09C08E2F7B2FB7
:10115000952F05C08E2F732F02C07E2F852F692FEC
:10116000DF91CF911F910F91FF90EF90089541E093
:101170000E94270808950895CF93DF93762FE90101
:10118000682F842F0E94B708798368838A83DF9150
:10119000CF91089580915202282F269530E0211595
:1011A000310519F48170826005C02B32310524F0BD
:1011B0008170846580935202089588E090E00C94D9
:1011C0003E26CF92DF92EF92FF926B017C010E944C
:1011D000CA08B701A60188E090E0FF90EF90DF9089
:1011E000CF900C945B26E2E5F2E083E080831182ED
:1011F0008FEF8283838314826081718182819381E6
:101200000C94E1088091520280FF02C086950895F7
:1012100080E0089590915602933018F49F5F909368
:101220005602882351F060915202709153028091CE
:101230005402909155020C94E108089581E00C94B9
:101240000A0990915602992319F0915090935602F1
:10125000882351F0609152027091530280915402A0
:10126000909155020C94E108089581E00C942109B5
:1012700070E00C94BE11609168008091520280FF72
:101280000AC08091670023E0829FC0011124895A1F
:101290009D4F0C9438098091690090916A008917DC
:1012A00080F7E82FF0E09F01220F331FE20FF31FBA
:1012B000E95AFD4F1182108212828F5FF0CF909118
:1012C000520290FF16C09091690020916A00921717
:1012D00070F4E92FF0E0DF01AA0FBB1FEA0FFB1F3C
:1012E000E95AFD4F8183608342839F5FF0CF0C9466
:1012F0003B090895CF93DF9300D01F92CDB7DEB79F
:101300009091520290FF0AC09E012F5F3F4F0E94B2
:10131000BC084B8169818A810E945F090F900F9000
:101320000F90DF91CF910895CF93DF93EC01EC8183
:10133000F0E0ED53FE4F4491E2E5F2E062818181FD
:101340000E947A098C818F5F8C83DF91CF91089501
:10135000CF93DF93EC01E2E5F2E0438162818C817F
:101360000E947A098C818F5F8C83DF91CF910895E1
:101370000F931F93CF93DF9300D01F92CDB7DEB7AB
:101380008C018091210181110AC09E012F5F3F4F86
:101390004FEF6FEF0E94BC088A8180932101F80112
:1013A0008481813051F028F0823061F44091210134
:1013B0000AC08091210140E007C06091210140E016
:1013C00080E003C040E080E060E00E945F09F80137
:1013D000848190E0019663E070E00E946025848340
:1013E0000F900F900F90DF91CF911F910F91089563
:1013F000AF92BF92CF92DF92EF92FF920F931F9323
:10140000CF93DF9300D01F92CDB7DEB7182FF62E03
:10141000042FE22E9091520290FF6DC0E92FE695C5
:10142000AE2FB0E0AF53BF4F8C91809344019E7FAD
:10143000923061F49E012F5F3F4F812F0E94BC08C4
:101440004B8169818A810E945F0943C0823019F40F
:10145000009155023EC0863019F41091530239C0F4
:101460008930D9F38931A9F5E9518E2F8170D82EB1
:10147000E695F0E0ED53FD4FA590B490C12CBB2450
:1014800060916B00C61618F52C2D30E0A29EC001AD
:10149000A39E900DB29E900D112470E00E944C25E9
:1014A000812FD11002C0860F01C0861B9091690068
:1014B000290F311DA901440F551F240F351F295A2B
:1014C0003D4F402F6F2D0E94BC08C394D9CF0E947E
:1014D0003B0910935302F092540200935502EE2000
:1014E00051F0609152027091530280915402909198
:1014F00055020E94E1080F900F900F90DF91CF915D
:101500001F910F91FF90EF90DF90CF90BF90AF9021
:101510000895E2E5F2E09181282F4381628188E01D
:10152000890F0C94F80981E00C94890AE2E5F2E055
:101530009181282F4381628188EF890F0C94F809EB
:1015400081E00C94960AE2E5F2E0628121E1620F0B
:1015500008F46FEF282F438181810C94F80981E012
:101560000C94A30AE2E5F2E0628121E1621B08F437
:1015700060E0282F438181810C94F80981E00C946C
:10158000B20AE2E5F2E0438121E1420F08F44FEFB5
:10159000282F628181810C94F80981E00C94C10AA2
:1015A000E2E5F2E0438121E1421B08F440E0282F0C
:1015B000628181810C94F80981E00C94D00A20E0CA
:1015C0000C94F809FF920F931F93CF93DF93EC01D4
:1015D000F12C0FEF10E060916B00F616F0F48091A3
:1015E00069002F2D30E0280F311DC901880F991F88
:1015F000280F391F295A3D4F70E0C8010E9460250D
:10160000962F8C814091550260915402F99E800D75
:1016100011240E94BC08F394DECF0E943B099A81FA
:101620008C8190FF02C08F5F01C081508C83DF915D
:10163000CF911F910F91FF900895AF92BF92CF92DB
:10164000DF92EF92FF920F931F93CF93DF93FC01F2
:10165000828180FF02C00FEF01C001E010E045E091
:10166000A42E80916B00181708F043C08091690088
:10167000C12ED12CE601C80FD11DCE01880F991FB4
:10168000C80FD91FC95ADD4F198218821A8234E057
:10169000E32EF12CB12C809123018B0D86302CF0A0
:1016A0006A2D0E943E25892F05C087FF03C09091B7
:1016B0006B00890F082E000C990BC816D90691F4FF
:1016C000809155028E9DA0018F9D500D112455953E
:1016D0004795559547959E0160915402809153021C
:1016E0000E94BC08B00EF1E0EF1AF108A1F61F5FEE
:1016F000B8CF0E943B0980912301013031F4811160
:1017000002C080916B00815007C090E0019660910B
:101710006B0070E00E94602580932301DF91CF91E0
:101720001F910F91FF90EF90DF90CF90BF90AF90FF
:101730000895CF938091690090916A00891770F4A1
:10174000E82FF0E09F01220F331FE20FF31FE95A49
:10175000FD4F1182108212828F5FF0CFC0E0609146
:101760006B00C617C0F5EC2FF0E070E0CF010E94CF
:10177000602520916900820F20912201022E000C29
:10178000330B90E0E217F307CCF020916600022EB5
:10179000000C330B2E173F078CF09C01220F331FD8
:1017A000820F931F9C01295A3D4F40915502609131
:1017B0005402809153020E94BC080BC0FC01EE0F42
:1017C000FF1F8E0F9F1FFC01E95AFD4F11821082EF
:1017D0001282CF5FC4CF0E943B09209165008091A7
:1017E0002201820F8093220190916600920F9093C4
:1017F000660019165CF4082E000C990B40916B00E2
:1018000050E041505109841795071CF02195209311
:101810006500CF9108958F929F92AF92BF92CF9221
:10182000DF92EF92FF920F931F93CF93DF938C0180
:10183000FC014481C42FD0E09E01DE010E94A4255A
:101840009B01AC010E94BA256B017C01E0E2F0E053
:10185000EC1BFD0BA5E5B0E09B01AC010E94BA2595
:101860004B015C019F01DF010E949C259B01AC01A3
:101870000E94C5259B01AC012C0D3D1D4E1D5F1D19
:10188000C501B4010E947425C22FD22F2A3228F438
:10189000F3E02F9F900111240DC025E530E02C1BB3
:1018A0003109C901880F991F280F391F37FF02C05E
:1018B0002F5F3F4F35952795C22FC095F12C85E5B9
:1018C000E82EED1A80916B00F816C8F4F1FC02C006
:1018D0008E2D01C08D2F909169002F2D30E0290FA2
:1018E000311DA901440F551F240F351F295A3D4FA3
:1018F0004C2F609154020E94BC08F394E3CF0E94E5
:101900003B09F8018481811102C091E003C080325B
:1019100019F49FEF9093640090916400890FF8018F
:101920008483DF91CF911F910F91FF90EF90DF9013
:10193000CF90BF90AF909F908F9008950F931F937B
:10194000CF93DF93EC0100E010E080916B00282F33
:1019500030E00217130724F5909169009801290FD0
:10196000311DA901440F551F240F351F295A3D4F22
:10197000869590E04C81081719071CF4442331F038
:1019800002C0411103C04091550201C040E0609186
:101990005402809153020E94BC080F5F1F4FD5CFA5
:1019A0000E943B098C8190E00196817099278C837D
:1019B000DF91CF911F910F9108958F929F92AF92D7
:1019C000BF92CF92DF92EF92FF920F931F93CF932C
:1019D000DF93FC01B280948081E0848300E015E015
:1019E0005BE4A52E88248394EE24EA94F12C7BE416
:1019F000C72ED12C80916B00081708F08FC0C02F24
:101A0000D0E01C9FF0011D9FF00D1124EC5DFE4FF6
:101A1000911003C01382128267C02381222389F1AF
:101A2000215023833481332319F09A2D921B01C056
:101A3000922F809155021C9FF0011D9FF00D1124E3
:101A4000EC5DFE4F899FC0011124B6010E944C2518
:101A50006283211104C0332311F01482A38222E097
:101A60002B1508F441C01C9FF0011D9FF00D11249F
:101A7000EC5DFE4F809153028083809154028183FC
:101A800033C00E9419268230914074F582E08B1594
:101A900030F40E941926B7010E94602502C080918F
:101AA00053021C9FF0011D9FF00D1124EC5DFE4FB1
:101AB000808322E02B1558F40E94192620915402AD
:101AC0002695622F70E00E946025820F02C08091EF
:101AD00054021C9FF0011D9FF00D1124EC5DFE4F80
:101AE00081831282A3828482809169009E01280FE3
:101AF000311DC901880F991F280F391F295A3D4FE1
:101B00001C9FF0011D9FF00D1124EC5DFE4F4281E2
:101B1000618180810E94BC080F5F6CCFDF91CF9103
:101B20001F910F91FF90EF90DF90CF90BF90AF90FB
:101B30009F908F900C943B09E2E5F2E080818E7FCC
:101B4000808360817181828193810E94E10810927B
:101B500045012FEB84ED91E0215080409040E1F76A
:101B600000C000000C943B0960915202669570E041
:101B70004BE050E08CE690E00E942926892B19F476
:101B800081E0809345010E94B82090933E018093AC
:101B90003D0108959091520290FF35C091708111DE
:101BA00002C0926006C08B3210F0946502C0880FAC
:101BB000982B90935202662351F0609152027091DB
:101BC000530280915402909155020E94E108609165
:101BD0005202669570E04BE050E08CE690E00E9487
:101BE0002926892B19F01092450102C00E94B40DDC
:101BF00081E08093400140915502609154028091B0
:101C000053020C94DF0A0895682F90915202969522
:101C100081E0890F8B3208F081E00C94CA0D81E0DD
:101C20000C94040E682F9091520296958FEF890FB5
:101C300009F48AE20C94CA0D81E00C94120E61E062
:101C40000C94CA0DE2E5F2E0808181608083869584
:101C50000C941F0E8091520280FD0C949C0D0C94EC
:101C6000220E60E00C94CA0D8091430181112EC0B8
:101C70000E949B1F811104C00E9444200E94F3080F
:101C80000E94DD08609352027093530280935402C5
:101C9000909355026E7F61F40E94F3080E94DD0864
:101CA00060935202709353028093540290935502B2
:101CB0000E94CA08109245018091520280FF03C021
:101CC00086950E94310E81E08093430108950F9321
:101CD0001F93CF93DF9380914501882309F49CC023
:101CE00080914401E0915202E695E81BE0933F01A8
:101CF000823049F4F0E0E154FE4FE491CE2FD0E081
:101D000004E919E059C0863049F4F0E0E454FE4F8C
:101D1000E491CE2FD0E008EA19E04EC0893051F4AA
:101D2000E695F0E0E754FE4FE491CE2FD0E002EECE
:101D30001AE042C08F3051F4E695F0E0EA54FE4FCD
:101D4000E491CE2FD0E00DE11BE036C0853149F49F
:101D5000F0E0ED54FE4FE491CE2FD0E009E91BE016
:101D60002BC08831D9F0833239F4E1EBF1E0C59131
:101D7000D49108EB19E020C08432A9F08532C1F477
:101D80008E2F63E00E943225E92FF0E0E255FE4FEE
:101D9000E491CE2FD0E00DED1CE00EC0C8E2D0E003
:101DA0000BE01CE009C0C4EFD1E00EE91CE004C068
:101DB000C0EDD7E00BEB18E080914001882389F05B
:101DC000109240010E94B8209E0120953095820F0C
:101DD000931F90933E0180933D0110924201109217
:101DE000410180913D0190913E010E94C4208C17D9
:101DF0009D0790F0E0913D01F0913E01CE0FDF1F75
:101E0000D0933E01C0933D018DE391E0F801DF9155
:101E1000CF911F910F910994DF91CF911F910F9155
:101E20000895882311F0FA0101C0FB010994CF93B2
:101E3000DF93C82FD62F0E9402098C1740F00E9412
:101E400002098D1720F4DF91CF910C940F0E8C2F87
:101E5000DF91CF910C941F0E0F931F93CF93FB0133
:101E6000C281CC2309F463C08C010E94F11E8272EE
:101E7000F801E25CFC45E431F10508F059C0E65D8B
:101E8000FF4F0C9496250E942A0E06C04CE15EE09E
:101E90006FE07EE00E94110FC0E04AC04FE05EE0BC
:101EA0006CE17EE0F7CF40EA5AE063E97AE0F2CFF6
:101EB00043E95AE060EA7AE0EDCF4EEB5AE06FEA90
:101EC0007AE0E8CF4FEA5AE06EEB7AE0E3CF4CEDF0
:101ED0005AE06DEC7AE0DECF4DEC5AE06CED7AE042
:101EE000D9CF45E359E06EE179E0D4CF4EE159E036
:101EF00065E379E0CFCF81E017C065E082E010C0F4
:101F000068E086E00DC06EE089E00AC064E18FE021
:101F100007C067E185E104C088E106C062E289E1AB
:101F20000E94170FB9CF83E20E941F0EB5CFC1E008
:101F30008C2FCF911F910F91089580916602869505
:101F40008695869508958091660281FD07C082601E
:101F5000809366020E94D01F0C94301108958091E6
:101F6000660281FF07C08D7F809366020E94D01FAA
:101F70000C943A1108958091660281FD0C94AF0F84
:101F80000C94A30F809166028695817008958091CC
:101F9000770008950E949B1F811102C00E94442077
:101FA0000E94CC1F80936602282F269526952695A1
:101FB00030E02D30310524F0877080668093660212
:101FC0008091660280FF04C086958695869501C043
:101FD00080E00C940C1120916602822F86958695E4
:101FE0008695482F50E04C30510554F48F5F982F60
:101FF000990F990F990F822F8770892B8093660212
:10200000809166028160809366020E94D01F809159
:1020100066028695869586950C940C1180916602D1
:10202000982F969596959695A1F0915E990F990F98
:10203000990F8770892B80936602887F91E009F45D
:1020400090E08091660290FB80F9809366020E9486
:10205000D01F809166028695869586950C940C110A
:102060008091660280FD13C081608093660281309A
:1020700019F489E080936602809166020E94D01F65
:10208000809166028695869586950C940C1108952C
:102090008091660280FF08C08E7F809366020E9456
:1020A000D01F80E00C940C1108958091660280FD91
:1020B0000C9448100C94301090916602892F8695EC
:1020C000869586958F5F8F7197708D3038F4880F65
:1020D000880F880F892B8093660202C09093660256
:1020E00080916602887F91E009F490E08091660219
:1020F00090FB80F9809366020E94D01F8091660257
:102100008695869586950C940C118D3008F08CE0A0
:10211000909166029770282F220F220F220F922B88
:1021200090936602987F21E009F420E09091660286
:1021300020FB90F9909366020C940C110E9485107C
:10214000809166020C94D01FFC01DB0112968C91E9
:102150008823F9F0EB5BFC45E730F105D8F4E25C4D
:10216000FF4F0C9496258CE001C080E00E949E10E9
:1021700080E008950E940E10FBCF0E94EB0FF8CF75
:102180000E945510F5CF0E945C10F2CF0E94BB0F49
:10219000EFCF81E008958C9A9498089594980895CB
:1021A000CF92DF92EF92FF928C3724E1920728F4CE
:1021B00069E070E00E944C2529C0A0E0B0E08A50A0
:1021C000974DAF4FBF4F6627782F892F9A2F25EF56
:1021D00038E241E050E00E94742569017A01CA01A9
:1021E000B9010E9422259B01AC01C701B6010E94E2
:1021F0002225BB27A92F982F872F009721E0A20720
:10220000B10511F0BC0102C06FEF7FEFCB01FF9071
:10221000EF90DF90CF900895CF93C82F8D3040F48A
:10222000811107C08FB58F7D8FBD0E94CE1004C075
:10223000CCE08FB580628FBD2C2F30E0AFEFBFEFC9
:102240000E94A4252CE030E040E050E00E9474257C
:10225000C9010E94D01099BD88BDCF9108950895FD
:1022600010924701109246011092480189B784608C
:1022700089BF089589B78B7F89BF0E949D0F0C94F9
:102280000C111F920F920FB60F9211242F933F93B0
:102290004F935F936F937F938F939F93AF93BF936E
:1022A000CF93EF93FF930E94C70F40914601509147
:1022B00047014F5F5F4F94EF899F90011124CA013E
:1022C000B9010E944C259093470180934601B901C2
:1022D000660F672F661F770B71950E944C256F77ED
:1022E00080914801823019F4603441F404C0813097
:1022F00029F46F3719F489B78B7F89BFE62FF0E097
:10230000E853FD4FC4910E949D0F282F41E051E0FA
:10231000C49FC001C59F900D11246CE070E00E9425
:102320004C25269FC001279F900D11240E94D0109C
:1023300099BD88BDFF91EF91CF91BF91AF919F91D2
:102340008F917F916F915F914F913F912F910F905E
:102350000FBE0F901F9018950E94CB1082E28FBD88
:1023600089E18EBD8FEF9FEF97BD86BD0E94CA0F9A
:102370000E94C20F81110C94301108950F931F9386
:10238000CF93DF938C01EB0180914901811105C04E
:102390000E94221481E080934901AE01440F551F31
:1023A0004C0F5D1F24E630E0B80180EBDF91CF9148
:1023B0001F910F910C94AC14AF92BF92CF92DF9209
:1023C000EF92FF920F931F93CF93DF937C015B01FA
:1023D000C42FD22FFC0182818823F9F040934C0155
:1023E0000E94B82090934B0180934A0180E28C0FA9
:1023F000883008F06EC0C77081E001C0880FCA95B0
:10240000EAF7DF91CF911F910F91FF90EF90DF904E
:10241000CF90BF90AF900C94251780914C0148133A
:1024200035C080914A0190914B010E94C4206C01FB
:10243000B701C5010E94561CC816D90638F510E22E
:102440001D0FCD17B9F080E28C0F883040F4C770B3
:1024500081E001C0880FCA95EAF70E942C17183056
:1024600058F581E09D2F977001C0880F9A95EAF783
:102470000E942517802F0E941217183050F5D77030
:1024800081E001C0880FDA95EAF70AC080E28C0F7C
:102490008830F8F4C77081E001C0880FCA95EAF768
:1024A000DF91CF911F910F91FF90EF90DF90CF9030
:1024B000BF90AF900C942C17802FDF91CF911F917C
:1024C0000F91FF90EF90DF90CF90BF90AF900C9462
:1024D0001217DF91CF911F910F91FF90EF90DF9036
:1024E000CF90BF90AF9008950F939C01CB01233FF5
:1024F0004CE5340731F188F4283DFCE53F07D9F07D
:10250000293D4CE5340779F1273D3C45A9F506E224
:1025100021EE41EE67ED7CE52BC0253FFCE53F0752
:10252000E1F0A8F0263F3C4539F507E225EE46EEFE
:1025300066EF7CE51DC007E225EE45EE68ED7CE523
:1025400017C006E221EE40EE63EF7CE511C007E222
:1025500025EE44EE64EF7CE50BC006E221EE42EE90
:1025600065EF7CE505C008E221E045EE69ED7CE51C
:102570000E94DC1180E008C0FC018281882319F0F0
:1025800010924C0101C081E00F910895CF93DF9329
:10259000EC01FB018281882309F41FC1C230FCE5F4
:1025A000DF0708F41BC1C6319CE5D90738F09E014E
:1025B0002A5F3C452930310508F010C10E94AE1F4A
:1025C00090936C0280936B02C031ECE5DE0709F456
:1025D000C3C008F041C0C8308CE5D80709F49AC0E0
:1025E000F0F4C430ECE5DE0709F487C068F4C230CB
:1025F0008CE5D80709F477C0C330DC4509F0E3C0A7
:1026000080916B02826076C0C630ECE5DE0709F48B
:102610006EC008F07BC080916B0288606BC0CC30CC
:102620008CE5D80709F485C068F4CA30ECE5DE070C
:1026300009F474C008F079C00E949D1980916B0262
:10264000806858C0CE308CE5D80709F476C008F011
:102650007FC080916B028BC0CB3FECE5DE0709F4B5
:102660004FC018F5C3318CE5D80709F47DC078F464
:10267000C131ECE5DE0709F473C0C231DC4509F075
:10268000A2C00E949D1980916B028F7733C0C53123
:102690008CE5D80709F472C008F486C0CA3FDC454F
:1026A00009F091C080916C023EC0CF3FFCE5DF078E
:1026B00009F45FC058F4CD3F9CE5D90709F444C044
:1026C00008F43FC080916C0282602DC0C130FDE5EE
:1026D000DF0709F475C008F45DC0C230DD4509F0BC
:1026E00072C080E06EC080916B02816003C08091F7
:1026F0006B02806180936B0266C080916B0211C097
:1027000080916C02826080936C025DC080916B024C
:102710008062F0CF80916B028064ECCF80916B027D
:1027200088608460E7CF8160EECF80916B028E7FFE
:10273000E1CF80916B028D7FDDCF80916B02877F2F
:10274000D9CF80916C0218C080916C028D7FDBCF55
:1027500080916B028F7ECECF80916B028F7DCACF2E
:1027600080916B028F7BC6CF80916B02877F8B7FBE
:10277000C1CF80916C028D7F8E7FC5CF80916B021F
:1027800082FB222720F991E0922790FB82F990FBAF
:1027900083F9B0CF80916C02982F909591708E7FC5
:1027A000892B90FB81F9AFCF0E949D1980916B021C
:1027B00087FB222720F991E0922790FB87F99ACF97
:1027C00081E00E94462080916B0290916C020E94F1
:1027D000BF1F0E949D1980E001C081E0DF91CF9171
:1027E0000895CF93DF9386319C4541F5EB010E941C
:1027F000F11E982F8A8120917800309179008823EA
:1028000079F09A7A81E009F480E080934D0191118A
:1028100002C069E201C065E3C9010E948D200AC0BF
:1028200080914D01811102C069E201C065E3C901D7
:102830000E948F200E94321F80E001C081E0DF9162
:10284000CF91089511B887E080B985B3836085BBC7
:1028500086B7846086BF86B7816086BF86B780648E
:1028600086BF0895EF92FF920F931F93CF93DF934C
:10287000182FEB0116BE84EA86BF0E94B8207C01A7
:1028800006B607FC0EC0CF3F8FEFD807C9F30E94F2
:10289000B8208E199F098C179D0790F38EEF9FEF3C
:1028A00028C081B1887F883039F081B1887F80313C
:1028B00019F08FEF9FEF1DC013B984E886BF0E9407
:1028C000B8208C0106B607FC0CC0CF3F8FEFD807AD
:1028D000C9F30E94B820801B910B8C179D0790F3C1
:1028E000DDCF81B1887F883111F0803411F780E02D
:1028F00090E0DF91CF911F910F91FF90EF9008959D
:102900000F931F93CF93DF93EB0183B984E886BFC6
:102910000E94B8208C0106B607FC0EC0CF3F8FEF97
:10292000D807C9F30E94B820801B910B8C179D0714
:1029300090F38EEF9FEF0BC021B1287F81E090E0F4
:10294000283211F480E090E0919581959109DF9112
:10295000CF911F910F910895CF92DF92EF92FF9246
:102960000F931F93CF93DF936B018A017901B90114
:102970000E943214E6010C0D1D1DC017D10759F439
:1029800024E926BFDF91CF911F910F91FF90EF9027
:10299000DF90CF90089597FDF3CFB70189910E9402
:1029A0008014EBCF90935301809352010895E091EE
:1029B0005201F0915301309721F00190F081E02D08
:1029C000099480E00895E0915201F091530130970D
:1029D00021F00280F381E02D0994089520915001A7
:1029E000309151012817390771F09093510180936C
:1029F0005001E0915201F0915301309721F006808F
:102A0000F781E02D0994089520914E0130914F01F6
:102A10002817390771F090934F0180934E01E09190
:102A20005201F0915301309721F00084F185E02D9F
:102A30000994089584B7806884BF84B7806884BF90
:102A4000089508950C9421150C9421150C942115CA
:102A50000E941A150E9424150C94500481E00895D8
:102A60000C942E150E94B1200E9416070E94282166
:102A70000E94CA0F0E94340E0C942615AF92BF928A
:102A8000CF92DF92EF92FF920F931F93CF93DF933A
:102A9000CDB7DEB72A970FB6F894DEBF0FBECDBF15
:102AA0000E946A070E943015811111C08FEF89833F
:102AB0008A831B820E94B8208160782F9D838C833B
:102AC00049815A816B818D810E94D81540C085E56E
:102AD000A82E81E0B82E00E010E0C02E802F0E94CA
:102AE0000207E82EF501D1905F01D82631F40F5F7F
:102AF0001F4F0430110589F7D9CF8091B60181FDB0
:102B00000E94080780E0FF24F3949D2D9F21D1F0BF
:102B10008E83CF82EF2081E009F480E088870E94D5
:102B2000B8208160782F9A8789874E815F81688578
:102B30008A850E94D815F801EB5AFE4F8081F8264D
:102B4000F08205C08F5FFF0C8630F9F6D0CF0E946F
:102B5000670E0E942F110E94D7149091540189177B
:102B6000B1F00E94D714809354012A960FB6F894BE
:102B7000DEBF0FBECDBFDF91CF911F910F91FF90B0
:102B8000EF90DF90CF90BF90AF900C94C5042A9641
:102B90000FB6F894DEBF0FBECDBFDF91CF911F916E
:102BA0000F91FF90EF90DF90CF90BF90AF9008957E
:102BB000CF93DF93CDB7DEB72B970FB6F894DEBF78
:102BC0000FBECDBF4F83588769877A878B87DE0119
:102BD000119686E0FD0111928A95E9F785E0FE01E4
:102BE000379601900D928A95E1F749815A816B8160
:102BF0007C818D819E810E94591C2B960FB6F89482
:102C0000DEBF0FBECDBFDF91CF910895FC01808163
:102C100091810E94B21E0895CF93882309F4A1C028
:102C2000C82F8238C1F40E94D71481FD9AC069E38D
:102C300080917800909179000E948D200E94321F2F
:102C40002FE789EA93E0215080409040E1F700C0EF
:102C5000000069E319C0833801F50E94D71480FD94
:102C600080C063E580917800909179000E948D206A
:102C70000E94321F2FE789EA93E021508040904064
:102C8000E1F700C0000063E5809178009091790041
:102C90000E948F20CF910C94321F8438C1F40E947F
:102CA000D71482FD5EC067E480917800909179002E
:102CB0000E948D200E94321F2FE789EA93E0215065
:102CC00080409040E1F700C0000067E4DDCF8CEF6A
:102CD0008C0F813AF8F48C2F0E94F621811141C0AB
:102CE0006C2F80917800909179000E945720882362
:102CF00049F06C2F80917800909179000E948F208C
:102D00000E94321F6C2F80917800909179000E9470
:102D10008D20C0CF80E28C0F883048F4C77081E0EE
:102D200001C0880FCA95EAF70E94F41EB3CFEBE505
:102D3000EC0FE33040F4F0E0E65EFE4F808190E07F
:102D4000CF910C94EE14C85AC73158F4EC2FF0E030
:102D5000EE0FFF1FE451FF4F80819181CF910C94C2
:102D60000415CF910895882309F45BC0682F823839
:102D700079F40E94D71481FF54C069E380917800F0
:102D8000909179000E948D200E94321F69E310C04B
:102D90008338B1F40E94D71480FF43C063E580916B
:102DA0007800909179000E948D200E94321F63E587
:102DB00080917800909179000E948F200C94321FAE
:102DC000843879F40E94D71482FF2BC067E4809185
:102DD0007800909179000E948D200E94321F67E454
:102DE000E7CF8CEF860F813A18F380E2860F8830A8
:102DF00048F4677081E001C0880F6A95EAF70E9485
:102E0000FA1EDCCF8BE5860F833020F480E090E063
:102E10000C94EE14685A673120F480E090E00C9432
:102E200004150895CF93C82F0E940C16C93349F496
:102E30002FEF8DEE92E0215080409040E1F700C0EE
:102E400000008C2FCF910C94B316882321F00E94A0
:102E5000F41E0C94321F0895882321F00E94FA1E5C
:102E60000C94321F0895CF92DF92EF92FF920F934E
:102E70001F93CF93DF937C01D62FC72FFC010581D1
:102E800002950F70128111110E94111F0E94EA1EFB
:102E9000882399F0112389F08C2F807F803421F0D2
:102EA00080E28D0F883048F082E00E947C1F0E94F3
:102EB000EA1E91E0D82ED92601C0D12CCC2EC29486
:102EC0008FE0C8228C2D90E08C30910508F0ABC1CA
:102ED000FC01EB5BFF4F0C9496258C2F807FCF700D
:102EE000882311F0C295C07F112399F0CC2309F4F7
:102EF00086C180E28D0F883010F0D11104C08C2F74
:102F00000E94F41E03C08C2F0E94041F0E94321FD7
:102F100076C18D2F0E94B316CC2309F484C180E2C0
:102F20008D0F883010F0D11104C08C2F0E94FA1E32
:102F300003C08C2F0E940A1F0E94321F74C18C2F65
:102F4000807FCF70803211F0C295C07FDD2319F0F1
:102F5000D130C9F022C0112371F0002341F00130BB
:102F600031F40E94171F8C2B0E941F1F5CC10E940E
:102F7000171F8C2B1DC0002319F0013009F453C119
:102F80000E94281F25C0112321F0063008F04BC1F4
:102F90000EC0053008F047C11BC0112361F00023AB
:102FA00031F0F701858180FF2AC18F7085838C2FD6
:102FB0000E94251738C1002359F0D93309F030C1D8
:102FC000FFEF0DEE12E0F15000401040E1F726C196
:102FD0008C2F0E942C1727C18C2F86958695837085
:102FE00019F0813061F01FC1112321F08D2F9C2F2A
:102FF000937002C080E090E00E94EE141CC1112387
:1030000021F08D2F9C2F937002C080E090E00E94F1
:10301000041511C18C2F837009F047C0111107C12D
:103020002D2F229526952770220F220F6D2F6F705E
:10303000862F90E0A0E0B0E0022E04C0880F991F18
:10304000AA1FBB1F0A94D2F7D4FF10C04FE050E074
:1030500060E070E004C0440F551F661F771F2A957B
:10306000D2F7409550956095709503C040E050E0D0
:10307000BA01C695C695C3708A019B01082B192B0E
:103080002A2B3B2BC901B801C23049F058F4C1309A
:1030900019F00E942D1DCBC00E941B1DC8C00E94AC
:1030A0003F1DC5C00E94191DC2C0112319F08C2FED
:1030B000817001C08695882309F4B9C02D2F22950F
:1030C00026952770220F220F6D2F6F70862F90E0AC
:1030D000A0E0B0E0022E04C0880F991FAA1FBB1FFA
:1030E0000A94D2F7D4FF10C04FE050E060E070E0E7
:1030F00004C0440F551F661F771F2A95D2F74095CD
:1031000050956095709503C040E050E0BA01C695B7
:10311000C695C3708A019B01082B192B2A2B3B2BC8
:10312000C901B801C23049F058F4C13019F00E9409
:10313000F21D7DC00E94E01D7AC00E94041E77C06F
:103140000E94531D74C0CF70112339F08C2F0E9440
:10315000791D8D2F0E9425176AC08D2F0E942C1774
:103160008C2F0E949A1D63C0D23F01F128F4D03FFA
:1031700041F0D13FA1F03FC0D33FF9F0D43F39F146
:103180003AC0112341F0053008F04DC08C2F8F71EB
:103190000E94BF1D48C0063008F045C0F7CF11237C
:1031A00039F08C2F8F710E94791D3DC01123C9F316
:1031B0008C2F8F710E949A1D36C0112329F08C2FFD
:1031C0008F710E94641D2FC00E945F1D2CC01123AF
:1031D00049F0CF718C2F0E94791D63E08C2F0E94E3
:1031E000671F21C081E00E947C1F0230E0F082E076
:1031F0000E947C1F18C0112331F0002391F28D2F03
:103200000E940C1610C0002399F2D93349F41FEF25
:103210002DEE32E0115020403040E1F700C00000B8
:103220008D2F0E94B31688EF8C0D843020F40E94FD
:10323000D7140E94C504DD20C9F00E94E61E80FD5F
:1032400015C0F70112820E94E01E0E94791DC7017D
:103250000E9457190E94E01EDF91CF911F910F919C
:10326000FF90EF90DF90CF900C949A1DDF91CF915B
:103270001F910F91FF90EF90DF90CF9008950F93E3
:103280001F93CF93DF93EC01688179818A810E943B
:10329000BD1E8C010E94161E0E94071DB801CE01A2
:1032A0000E943317DF91CF911F910F910895CF9313
:1032B000DF93EC01988189812B813C81232B31F0B4
:1032C0008F3F31F481E09F3F19F403C081E001C0DA
:1032D00080E080FD19C0CE010E94DE0481110CC087
:1032E0000E94EA1E882381F08A81882369F082E0A7
:1032F000DF91CF910C947C1FCE010E943F19CE012B
:10330000DF91CF910C94A704DF91CF9108950E9493
:10331000111F0E94141F0E94321F80E090E00E9443
:10332000EE1480E090E00C94041580917800909168
:1033300079000E9491200C9487190E94011F0C941F
:103340009519E92FE295EF704E2F50E0FA01329770
:10335000EE30F105B0F4EF5AFF4F0C949625803F04
:1033600091F018F4883E68F40EC0843F51F40BC00D
:10337000883E48F0813F29F406C093FB882780F9F6
:10338000089580E0089581E008950E94B21E0E9491
:10339000A1190895CF93DF9300D000D01F92CDB72D
:1033A000DEB70F900F900F900F900F90DF91CF919D
:1033B0000895CF93DF9300D000D000D0CDB7DEB713
:1033C00026960FB6F894DEBF0FBECDBFDF91CF912A
:1033D00008951F93CF93DF93C0915A0116E0809117
:1033E0005B01C81799F0D0E01C9FF0011D9FF00D04
:1033F0001124E45AFE4F408151816281738184819E
:1034000095810E94D9192196C770E9CFDF91CF919C
:103410001F91089540918C0150918D0160918E0112
:1034200070918F0180919001909191010C94D91924
:103430000F931F93CF93DF938091910182958F70AB
:1034400009F05DC080918E01882309F458C08091F5
:103450005A0110915B0160918C0170918D01C091B6
:103460008F01D091900191E06F3F09F090E0292FFA
:1034700006E0811709F443C0209721F07F3F21F037
:1034800030E003C031E001C0322F90E030FD34C0A5
:10349000089FF001099FF00D1124DF01A45ABE4FCF
:1034A00011963C911197371327C03C91361324C0D5
:1034B00012963C91129731111FC013964D915C9159
:1034C00014974C1B5D0B483C5105B0F48091910161
:1034D0008F70806180939101EF59FE4F80818F70D2
:1034E000806180838CE891E00E945719DF91CF9131
:1034F0001F910F910C94E91901968770BACFDF9153
:10350000CF911F910F9108959F92AF92BF92CF924A
:10351000DF92EF92FF920F931F93CF93DF93CDB77C
:10352000DEB761970FB6F894DEBF0FBECDBF8C013A
:1035300085E0F801DE011D9601900D928A95E1F774
:10354000F80140815181E28090918C0160918D0160
:1035500020918F01309190012115310531F06F3F9D
:1035600031F481E09F3F19F403C081E001C080E0A5
:10357000F82FF1709F2E80FD46C1F801A380B48022
:103580008CE8C82E81E0D82EF0908E01F501E21B68
:10359000F30BFF2009F4DFC080919101E83CF105B5
:1035A00008F09BC0282F207F09F052C0561313C08B
:1035B000491311C0FE2CE1100EC08F708061809302
:1035C00091010E940A1AC6010E9457198091910127
:1035D000F801858358C1AB2831F05F3F31F481E0B9
:1035E0004F3F19F403C081E001C080E080FD03C0BB
:1035F00081E08E2502C080E090E0F82FF170FF2E70
:1036000080FF1CC080915A0120915B0136E0821737
:1036100009F417C190E0389FF001399FF00D112493
:10362000E45AFE4F6181561306C06081461303C001
:103630006281E61203C001968770E9CFFE2CEE206E
:1036400009F421C1809191018160809391015AC058
:10365000561306C0491304C0E11002C0F8019FC010
:103660004D875E878D859E850E94C519882379F1D7
:10367000EE2069F120919101822F82958F7090E068
:10368000029774F080918C0190918D0198878F83BF
:103690001986BB86AA862C87CE0107960E945719E9
:1036A00086E0F801ACE8B1E001900D928A95E1F76F
:1036B0000E94181A0E940A1A0DC0561729F14D8748
:1036C0005E878D859E850E94C51981112CC0C80119
:1036D0000E945719FF24F394D6C0282F207F69F742
:1036E0007A2DB98AA88A6E2D89890E94CA198CE818
:1036F00091E00E94571986E0F60111928A95E9F748
:103700000E940A1AF12CBFC04913D9CFE110D7CFBC
:10371000F8018583C8010E94571986E0F6011192CD
:103720008A95E9F7B0C0EE2091F220919101822FA5
:1037300082958F7090E002970CF4B2CF80918C014B
:1037400090918D019A8389831B82BD82AC822E83E6
:10375000CE010196A3CFE83CF10508F047C0FE2C4E
:10376000EE2009F4B4CF561330C049132EC0209177
:10377000910120FD21C0822F82958F70482F50E04B
:1037800041155105C9F0F80125834F30510541F02D
:103790008F5F982F9295907F822F8F70892B8583D2
:1037A000C8010E94571986E0F801ACE8B1E0019029
:1037B0000D928A95E1F742C086E0F801ACE8B1E0ED
:1037C00001900D928A95E1F75EC04D875E878D85E9
:1037D0009E850E94C519811163CF809191018160FE
:1037E00080939101C8010E9457194DC07A2DB98A62
:1037F000A88A6E2D89890E94CA1986E0F601119265
:103800008A95E9F71BC0EE2009F461CF4D875E87EA
:103810008D859E850E94C519F82E882309F457CFFF
:1038200086E0F801ACE8B1E001900D928A95E1F7ED
:103830008CE891E00E9406160E94181A0E940A1A4B
:1038400022C04D875E878D859E850E94B21E292FDE
:1038500022952F70223028F49F7039F0811105C015
:103860000BC0243028F49F7049F4805E883020F02B
:10387000C8010E9457199F2CF92C05C0F8019581A9
:10388000907F99F7F9CF8F2D61960FB6F894DEBF30
:103890000FBECDBFDF91CF911F910F91FF90EF90A1
:1038A000DF90CF90BF90AF909F90089588EC90E00C
:1038B00008951F93CF93DF93CDB7DEB72C970FB644
:1038C000F894DEBF0FBECDBF4F83588769877A87D4
:1038D0008B879C87CE0107960E94841A8823D1F09B
:1038E0009F8188852A853B85232B31F08F3F31F4DA
:1038F00081E09F3F19F403C081E001C080E080FDBA
:1039000047C04F81588569857A858B859C850E9443
:10391000D9193EC086E0FE013796DE01119601906E
:103920000D928A95E1F7FF81E8856A857B856115AF
:10393000710531F0EF3F31F481E0FF3F19F403C02E
:1039400081E001C080E080FD23C020915B0130E078
:10395000C90101968770992740915A0150E0841758
:103960009507F1F1F983EA837D836C8396E0929F5A
:10397000D001939FB00D1124A45ABE4FFE01319681
:1039800001900D929A95E1F780935B010E94E919ED
:1039900016E080915A0190915B01891771F1189F8F
:1039A000C0011124845A9E4F0E94841A882329F151
:1039B000E0915A011E9FF0011124E45AFE4F40810C
:1039C000518162817381848195810E94D91980918E
:1039D0005A0190E001968770992780935A01D9CFB8
:1039E0000E949D1910925B0110925A01ECE8F1E0DF
:1039F00086E0DF011D928A95E9F72C960FB6F894C0
:103A0000DEBF0FBECDBFDF91CF911F910895089506
:103A100008950C94081D0C94091D0E940B1D6093C1
:103A2000A5017093A6018093A7019093A8010C941F
:103A300087190C940D1D0F931F930091A5011091F0
:103A4000A6012091A7013091A801602B712B822B38
:103A5000932B1F910F910C940D1D0F931F930091A9
:103A6000A5011091A6012091A7013091A801602322
:103A70007123822393231F910F910C940D1D0F939B
:103A80001F930091A5011091A6012091A7013091EB
:103A9000A80160277127822793271F910F910C940B
:103AA0000D1D0C94081D0E94511D6093A10170937F
:103AB000A2018093A3019093A4010C94871960E064
:103AC00070E0CB010C94531D0F931F9341E050E025
:103AD00060E070E08A019B0104C0000F111F221FEB
:103AE000331F8A95D2F7C901B8011F910F910C9429
:103AF000531D0F931F9341E050E060E070E004C05D
:103B0000440F551F661F771F8A95D2F78091A10138
:103B10009091A201A091A301B091A4018A019B01FF
:103B2000082B192B2A2B3B2BC901B8011F910F9190
:103B30000C94531D0F931F9341E050E060E070E040
:103B400004C0440F551F661F771F8A95D2F7409512
:103B50005095609570958091A1019091A201A091DE
:103B6000A301B091A4018A019B01082319232A23F0
:103B70003B23C901B8011F910F910C94531D0F9362
:103B80001F9341E050E060E070E004C0440F551F17
:103B9000661F771F8A95D2F78091A1019091A201AB
:103BA000A091A301B091A4018A019B0108271927C4
:103BB0002A273B27C901B8011F910F910C94531D6F
:103BC0000F931F930091A1011091A2012091A301D5
:103BD0003091A401602B712B822B932B1F910F919D
:103BE0000C94531D0F931F930091A1011091A201FA
:103BF0002091A3013091A401602371238223932398
:103C00001F910F910C94531D0F931F930091A101CD
:103C10001091A2012091A3013091A4016027712786
:103C2000822793271F910F910C94531D0895292FDC
:103C3000220F920F990F890FE82FE695E695E695EA
:103C4000877051E001C0550F8A95EAF785E0E89F3B
:103C5000F0011124EE56FE4F20E030E070E040818C
:103C6000CB01022E02C0969587950A94E2F78170E7
:103C7000819584278523842781932F5F3F4F2530AB
:103C8000310569F70895292F220F920F990F890F97
:103C9000682F669566956695982F977085E0689F62
:103CA000B001112440E050E080E0FB01E40FF51F7B
:103CB000EE56FE4F208130E0092E02C03695279542
:103CC0000A94E2F721703327042E01C0220F0A94D0
:103CD000EAF7822B4F5F5F4F4530510531F708956A
:103CE000BF92CF92DF92EF92FF920F931F93CF93E9
:103CF000DF938C01C090A101D090A201E090A301BC
:103D0000F090A4018091A5019091A601A091A70136
:103D1000B091A801C82AD92AEA2AFB2ACFE1D0E02B
:103D2000D701C6010C2E04C0B695A7959795879527
:103D30000A94D2F780FD04C0219790F7B12C07C0F8
:103D4000BC2EB8018C2F0E943A050197A9F38B2D48
:103D5000DF91CF911F910F91FF90EF90DF90CF9067
:103D6000BF900895CF93DF93EC010E94701EBE01B7
:103D70000E943A05DF91CF9108951F93CF93DF936F
:103D8000EB0190915901992321F0CB010E94B21EC1
:103D900013C0882349F0CB010E94701E182F682F92
:103DA000CE010E94171E04C0CB010E94431E182F93
:103DB000BE01812F0E943A05DF91CF911F91089596
:103DC0008091A90185958595859508958091A90192
:103DD000877008959091A901977081E009F480E0BF
:103DE00008958091B50108959091B501892B809334
:103DF000B501089580959091B50189238093B5010F
:103E000008951092B50108959091B401892B809383
:103E1000B401089580959091B40189238093B401F1
:103E200008951092B40108951092B30108958091FD
:103E3000AA01089508950C941A1F0C941B1F9091C9
:103E4000AA01981721F08093AA010C941D1F0895D0
:103E50008091AA01882329F01092AA0180E00C9495
:103E60001D1F0895E0917800F09179008091B501CF
:103E70008083E0917800F091790090818091B40185
:103E8000892B8083E0917800F09179009081809176
:103E9000B301892B80838091AA01882381F0E0916E
:103EA0007800F09179009081892B8083809178004F
:103EB000909179000E944B2081110E94281F8091CF
:103EC0007800909179000C94E3140C941A1F98E0F8
:103ED000899F90011124262B2093A9010E94791D0E
:103EE0008091A9018595859585950C94651F109203
:103EF000A90180E00C94651F2091A901809582237F
:103F00008093A901982F977079F430E0482F082EFC
:103F1000000C550B2417350739F085958595859547
:103F20000E949A1D0C94771F08956FEF7FEF80E039
:103F300090E00C94672680E090E00E94442621E007
:103F40008C3E9E4F09F020E0822F089582E090E0A1
:103F50000C94362683E090E00C943626CF9384E0D0
:103F600090E00E943626C82F81E290E00E9436261B
:103F70002C2F30E0A901582BCA01CF910895CF937F
:103F8000C92F682F84E090E00E944A266C2F81E2BE
:103F900090E0CF910C944A2686E090E00C9436266F
:103FA000682F86E090E00C944A26AB01BC018FE0BC
:103FB00090E00C945B26AB01BC0183E190E00C9493
:103FC0005B2660E070E0CB010C94DB1F60E070E0EA
:103FD000CB010E94D51F0C94E11F6CEE7EEF80E0B8
:103FE00090E00E94672660E082E090E00E944A260E
:103FF00060E083E090E00E944A261092A5011092B2
:10400000A6011092A7011092A80160E084E090E060
:104010000E944A2660E081E290E00E944A2660E029
:1040200085E090E00E944A2660E086E090E00E94F1
:104030004A266FEF87E090E00E944A2640E050E079
:10404000BA0188E090E00E945B2660E08DE090E09D
:104050000E944A2640E050E0BA0188E190E00E94C8
:104060005B2660E087E190E00E944A2640E050E055
:10407000BA018CE190E00E945B2660E080E290E073
:104080000E944A260C94E61F0C94ED1F682F8EE0C8
:1040900090E00C944A26FC01329697E080E0915023
:1040A00029F021912223D9F38F5FF9CF0895662358
:1040B00049F0FC01329608962191621729F0E81721
:1040C000F907D1F780E0089581E008959C01FC0193
:1040D00032969FEF80E04191461789F09F3F19F497
:1040E000411101C0982F8F5F8630A9F79F3F39F0AB
:1040F000F901E90FF11D97FDFA956283089508957E
:104100009C012A5F3F4FFC014281461301C012828D
:10411000019682179307B9F708950C9466200C94C2
:104120008020029626E0FC0111922A95E9F7089575
:1041300008950C9498200C949820CF930E949B2073
:104140000E946A070E949920C0E08C2F0E940207FB
:10415000811104C0CF5FC430C1F701C081E0CF91AD
:1041600008958BE083BF8BEB8CBF82E089BF0895FD
:104170002FB7F8948091670290916802A09169022C
:10418000B0916A022FBF08959C014FB7F8948091B7
:10419000670290916802A0916902B0916A024FBFD4
:1041A000821B930B089578941F920F920FB60F9273
:1041B00011248F939F93AF93BF9380916702909147
:1041C0006802A0916902B0916A020196A11DB11D19
:1041D0008093670290936802A0936902B0936A0289
:1041E000BF91AF919F918F910F900FBE0F901F9035
:1041F000189560E081E090E00E946D2687E090EBEA
:10420000DC018093BD029093BE02A093BF02B093E5
:10421000C0029CE088E10FB6F894A89581BD0FBE5E
:1042200091BDFFCF0C94951F0E946A078FE295E71E
:104230000197F1F700C000000E946A0780E00E9429
:10424000020780FF04C00E9412210C94F9200895F7
:104250000E949B1F811102C00E9444200E94A61F41
:104260008093B6010E94AE1F90936C0280936B0204
:104270000E94AA1F682F70E080E090E00E94191D44
:104280006091A1017091A2018091A3019091A4017C
:104290000C94511D0F931F9341E050E060E070E0DB
:1042A0008A019B0104C0000F111F221F331F8A9532
:1042B000D2F7C901B8010E94191D1F910F910C94EA
:1042C0009D198B3109F468C058F58B3009F486C00C
:1042D00078F4863009F445C020F4853009F44BC0E9
:1042E0007FC0873009F44AC0883009F477C078C0AD
:1042F000803109F464C068F48E3009F071C0809197
:10430000B60182FB222720F991E0922790FB82F9E7
:104310004CC0863109F462C0893109F45FC060C0C5
:104320008A32E1F060F4873209F455C028F48E3106
:1043300008F456C08D5150C08932E9F051C0833421
:1043400050F48A3308F045C0853309F444C08833FB
:1043500009F444C045C08334F1F142C00E944420B6
:104360003DC08091B601817F8E7F8093B60181E050
:104370008093B70108950E94CF0430C08091B601A8
:10438000982F9095917090FB80F98093B6019111D0
:1043900025C0897F877F10C08091B60181FB2227CD
:1043A00020F991E0922790FB81F98093B60199233F
:1043B000A9F08091B60181608093B6010FC0809111
:1043C000B60183FB222720F991E0922790FB83F925
:1043D000ECCF895301C080E00E944A2181E008951A
:1043E00080E0089580E008950C94F221CF93C82FC7
:1043F0008091B701882319F0813031F02BC00E94E1
:10440000F11E823249F504C00E94F11E823261F42D
:104410008C2F0E94F421811104C08C2F0E946121F5
:1044200017C081E090E014C08C2F0E94F22181110E
:104430000EC0C43149F018F4CB3049F00FC0C93276
:1044400019F0C83321F00AC01092B70107C081E00B
:10445000817006C01092B70180E002C080E0F8CF02
:10446000CF9108950F931F93CF93DF930E94B820AD
:104470008C010E9428150E9429230E94D2140E94B8
:1044800007258B9A80E0815041F0A895E7EBFBE08F
:104490003197F1F700C00000F6CF8B987894FFEBCE
:1044A00024ED31E0F15020403040E1F700C0000041
:1044B0000E943215C0E0DCE080919402882331F044
:1044C000109294020E94B8208C0107C0C8010E947B
:1044D000C420069788F4C1110FC00E941024809157
:1044E0009A02882329F08091780284FD0E943E156B
:1044F0000E94D022C0E0E0CF0E949D20811102C026
:10450000C1E0DACFF89491B3939A892F8C6081BB84
:1045100082B38D2782BB8FE5EAEEF0E08150E04068
:10452000F040E1F700C0000082B38D2782BB91BB51
:1045300093987894E5CF8091490208950895CF9398
:10454000DF9300D01F92CDB7DEB79091BA019813D8
:1045500007C02091B8013091B9012617370791F0B3
:104560008093BA017093B9016093B80189837B830A
:104570006A838091B10284FF05C063E0CE01019699
:104580000E940C240F900F900F90DF91CF9108950F
:10459000BC0184E00C949F22BC0183E00C949F2218
:1045A000CF93DF93CAE0D0E08091780284FF18C0F7
:1045B0008091C6019091C7019817E1F028E0829F91
:1045C000C001112468E088539E4F0E940824809106
:1045D000C60190E001968F7099278093C6010AC0AA
:1045E0000E94102487EB9BE00197F1F700C00000C8
:1045F0002197D1F6DF91CF910895CF93DF93EC010E
:10460000A091C701B0E0CD0101968F70992720914C
:10461000C601281779F093E0AA0FBB1F9A95E1F71E
:10462000A853BE4F98E0FE0101900D929A95E1F7D4
:104630008093C7010E9410240E94D02288E0FE01CE
:10464000AEEBB1E001900D928A95E1F7DF91CF9149
:1046500008958AE790E00895FC0180818076803299
:10466000A1F58181813061F484819581892B69F57F
:104670008EEB91E0909396028093950288E00895E6
:10468000823041F488E492E0909396028093950200
:1046900081E008958A3021F483818093480215C017
:1046A000893099F4828193818115924081F48481CB
:1046B0009581892B61F481E08093BD01868197818A
:1046C0009093BC018093BB0102C080E008958FEFFE
:1046D00008952091BB013091BC01232B71F02091F2
:1046E000BD01213051F4FC01808180934902109278
:1046F000BC011092BB0181E008958FEF08950895E9
:10470000FC0193819330D9F068F4913081F09230BC
:1047100009F05AC088E494E0909396028093950241
:104720008BE30895913251F19232C1F14DC083E88B
:1047300094E0909396028093950282E1089582819D
:10474000813059F038F0823059F08330E9F585E94D
:1047500094E00EC083EB94E00BC087EA94E002C0C3
:104760008BE994E090939602809395028AE00895F5
:10477000909396028093950284E008958281882325
:1047800029F0813009F583E794E002C08AE594E0DE
:10479000909396028093950289E008958481958193
:1047A000009751F0019781F487EB94E09093960283
:1047B0008093950282E3089589EE94E090939602A7
:1047C0008093950280E4089580E008951F93CF932D
:1047D000DF93162FEA01288124FF05C0398128E8DC
:1047E0002327298302C02AE52883212FFC01CE013B
:1047F0000296DC0131913D9321501216DCF3612FBA
:104800000E94F0021C5F1883DF91CF911F910895E1
:1048100048E752E00C94E62341EB52E00C94E62387
:10482000CF93DF9360919702635067FD93C08091AF
:104830009302CCE0D0E0C81BD109C556DD4F809172
:104840009202803120F4CE010E947F2381C08D32FC
:1048500009F06EC0683009F07BC083EC80936D0274
:104860008AE580938500109291028881807621F0FC
:10487000CE010E942C2349C09A8110927602898130
:10488000811106C01092770226E732E082E038C03C
:10489000853019F49093980230C08630A1F48B8152
:1048A000813041F0823031F0833021F0813211F0DB
:1048B000823221F4CE010E94802301C080E090E486
:1048C0009093910222C0883089F0893019F4909336
:1048D0009A0213C08A3069F08B3079F48BE48093AC
:1048E00079028093B2028093850207C02AE932E000
:1048F00002C026E732E081E003C026E732E080E034
:10490000309396022093950209C08F3F39F4988125
:1049100097FD8E8190E89093910207C09F8191113D
:1049200004C09E81981708F4892F8093840010C0DA
:104930008091910287FF0CC0CE010E9469238F3FB6
:1049400021F48EE18093850003C0811110928400D0
:10495000109297028091850084FF4CC08091840062
:104960008F3F09F447C0C82F893008F0C8E08C1B7E
:104970008093840090916D0288E8892780936D026E
:10498000CC2359F180919502909196022091910249
:1049900026FF12C0ADE6B2E02C2FAC014D565240BE
:1049A000FA01EA0FFB1FE4911196EC931197215045
:1049B00011962111F5CF08C0EEE6F2E0DC012C2FB4
:1049C0003D9131932150E1F701962FEF2C0F820F8B
:1049D000911D90939602809395026C2F8EE692E043
:1049E0000E94F002CC5FCC3019F08FEF80938400EE
:1049F000C093850084E190B39C7031F48150D9F765
:104A00001092980210929002DF91CF910895CF9367
:104A1000DF9385B7886085BF8BB780688BBFC8E799
:104A2000D2E08BE48983A1EBB2E011968C931197CD
:104A3000E4E8F2E081838AE588838C938083DF91C8
:104A4000CF910895DB018F939F930E94BA25BF9168
:104A5000AF91A29F800D911DA39F900DB29F900DCD
:104A600011240895991B79E004C0991F961708F046
:104A7000961B881F7A95C9F78095089587FB082EA5
:104A8000062687FD819567FD61950E9432250EF40B
:104A9000919507FC81950895AA1BBB1B51E107C0A6
:104AA000AA1FBB1FA617B70710F0A61BB70B881FBE
:104AB000991F5A95A9F780959095BC01CD0108954D
:104AC00097FB072E16F4009407D077FD09D00E94BB
:104AD0004C2507FC05D03EF4909581959F4F089595
:104AE000709561957F4F0895A1E21A2EAA1BBB1BFA
:104AF000FD010DC0AA1FBB1FEE1FFF1FA217B307AA
:104B0000E407F50720F0A21BB30BE40BF50B661FBF
:104B1000771F881F991F1A9469F760957095809583
:104B200090959B01AC01BD01CF010895EE0FFF1FD1
:104B30000590F491E02D09940E94A425332312F4EA
:104B40008A1B9B0B0C94B525A29FB001B39FC0019B
:104B5000A39F700D811D1124911DB29F700D811DA9
:104B60001124911D08950E94A425B7FF0895821B6A
:104B7000930B08950E94A425A59F900DB49F900DBE
:104B8000A49F800D911D11240895B7FF0C94BA25A0
:104B90000E94BA25821B930B08958F929F92AF9229
:104BA000BF92CF92DF92EF92FF92CF93DF93EC010F
:104BB000688179818A819B816115710581059105E3
:104BC00021F464E279ED8BE597E02DE133EF41E0EC
:104BD00050E00E948A2649015A019B01AC01A7EAD4
:104BE000B1E40E94BA256B017C01ACEEB4EFA501E3
:104BF00094010E94C825DC01CB018C0D9D1DAE1DCA
:104C0000BF1DB7FF03C00197A109B04888839983EE
:104C1000AA83BB839F77DF91CF91FF90EF90DF90C6
:104C2000CF90BF90AF909F908F9008950E94CD2518
:104C3000089580E690E00E94CD250895A0E0B0E0C0
:104C40008093600090936100A0936200B093630032
:104C50000895FC014150504030F001900616D1F704
:104C60003197CF010895882799270895E199FECFBC
:104C70009FBB8EBBE09A99278DB30895A6E1B0E063
:104C800044E050E00C947C26A8E1B0E042E050E023
:104C90000C947C26262FE199FECF9FBB8EBBE09A19
:104CA00001970DB2021631F02DBB0FB6F894E29ABF
:104CB000E19A0FBE08950396272F0E944B260E946B
:104CC0004A26252F0E944B26242F0C944B26019612
:104CD000272F0E944B260C944A26262FE199FECFBF
:104CE0009FBB8EBB2DBB0FB6F894E29AE19A0FBE24
:104CF00001960895DC01CB01FC01E199FECF06C0CD
:104D0000FFBBEEBBE09A31960DB20D924150504080
:104D1000B8F70895052E97FB1EF400940E94A12673
:104D200057FD07D00E94742507FC03D04EF40C9465
:104D3000A12650954095309521953F4F4F4F5F4F9D
:104D4000089590958095709561957F4F8F4F9F4FF7
:064D50000895F894FFCF66
:104D560001000000010102000500050501191A1BEA
:104D66001C1D1E1F20212206AB019B22FD229E2216
:104D7600CC22C822FF5AE200E900EA00B500B600DC
:104D8600B700CD008301CC008A0192019401210273
:104D9600230224022502260227022A02B300B400B7
:104DA6006F00700081828390919293949560616206
:104DB6006300010202020206060609090909090939
:104DC6000F0F0F0F0F0F1515151819191919191996
:104DD600191919192324252525252525E200E90079
:104DE600EA00B500B600B700CD008301CC008A0109
:104DF600920194012102230224022502260227029F
:0E4E06002A02B300B4006F00700081828300A6
:00000001FF
