:100000000C9435020C9479020C9494020C947902AD
:100010000C9479020C9479020C9479020C94790274
:100020000C9479020C94E1100C9473200C947902D6
:100030000C9479020C9479020C9479020C94790254
:100040000C9479020C9479020C9479020C94790244
:100050000C947902E30EE60EEE0EF30EF80EFD0E92
:10006000020F070F0C0F110F160F1B0F1D0F200F84
:10007000230F260F290F2C0F2E0F330F531055105F
:100080005A105D106010631066100D170D173F17A2
:100090003F178C17B318B318B318AA17431854187E
:1000A00054184F194F1961196119581961196119BB
:1000B00061194F194F195D19611961195D195C00BA
:1000C000130014001500160016005B000E000F0050
:1000D0001000110012005A0009000A000B000C0069
:1000E0000D00590004000500060007000800321941
:1000F0000A00047F3F1F643214643214783C1E1ED1
:10010000140A052223252628292A2C2D2F303233A4
:100110003536383A3B3D3E4042434547494A4C4ECE
:100120005051535557595A5C5E6062646668696BFA
:100130006D6F71737577797B7D7F81838587898A00
:100140008C8E90929496989A9C9E9FA1A3A5A7A806
:10015000AAACAEAFB1B3B4B6B8B9BBBCBEBFC1C236
:10016000C3C5C6C7C9CACBCCCDCED0D1D2D2D3D4C9
:10017000D5D6D7D7D8D9D9DADADBDBDBDCDCDCDCE7
:10018000DCDDDDDDDDDCDCDCDCDCDBDBDBDADAD9B5
:10019000D9D8D7D7D6D5D4D3D2D2D1D0CECDCCCB37
:1001A000CAC9C7C6C5C3C2C1BFBEBCBBB9B8B6B455
:1001B000B3B1AFAEACAAA8A7A5A3A19F9E9C9A98E5
:1001C000969492908E8C8A89878583817F7D7B79B6
:1001D000777573716F6D6B6968666462605E5C5A97
:1001E0005957555351504E4C4A4947454342403E5A
:1001F0003D3B3A3836353332302F2D2C2A292826EC
:10020000252322FFAA7F55400000000000000000C7
:1002100000000001010203040506080A0C0F111476
:10022000181C2024292E33393F464C535B626A71D7
:1002300079818A929AA2AAB2B9C1C8CFD5DCE1E786
:10024000EBF0F4F7FAFCFDFEFFFEFDFCFAF7F4F02C
:10025000EBE7E1DCD5CFC8C1B9B2AAA29A928A81F4
:1002600079716A625B534C463F39332E2924201C36
:100270001814110F0C0A08060504030201010000FE
:100280000000000000000000000101010101010167
:10029000010102020202020202020203030303033B
:1002A000030303040404040404040505050505060A
:1002B00006060606070707070708080808090909C8
:1002C000090A0A0A0B0B0B0C0C0C0D0D0D0E0E0E71
:1002D0000F0F0F1010111111121213131414151502
:1002E00016161717181819191A1A1B1B1C1D1D1E74
:1002F0001E1F2020212222232424252626272829C8
:10030000292A2B2C2D2D2E2F3031323233343536F5
:100310003738393A3B3C3D3E3F40414243444546F5
:100320004748494A4C4D4E4F5051535455565859D1
:100330005A5B5D5E5F616264656668696B6C6D6F78
:100340007072737577787A7B7D7E808283858788EB
:100350008A8C8E8F91939596989A9C9EA0A2A3A525
:10036000A7A9ABADAFB1B3B5B7BABCBEC0C2C4C626
:10037000C9CBCDCFD1D4D6D8DBDDDFE2E4E7E9EBE2
:10038000EEF0F3F5F8FAFDFF09023B00020100A0D0
:1003900032090400000103010100092101010001EB
:1003A0002240000705810308000109040100010340
:1003B000000000092101010001223200070583032A
:1003C00008000112011001000000084D59215000E1
:1003D00002010203010403300000000A034E005032
:1003E000003200310000000A0359004D0044004B68
:1003F0000000000403090405010980A10185031917
:10040000012AB700150126B700950175108100C0BB
:10041000050C0901A101850419012AA00215012674
:10042000A002950175108100C005010906A1010512
:100430000719E029E7150025019508750181029546
:1004400001750881030507190029FF150026FF0023
:10045000950675088100050819012905950575019E
:100460009102950175039103C00011241FBECFE5D1
:10047000D8E0DEBFCDBF04B603FE24C08091BD022C
:100480009091BE02A091BF02B091C0028730904B04
:10049000A740B04BB9F41092BD021092BE02109268
:1004A000BF021092C00214BE84B7877F84BF0FB60C
:1004B000F894A89581B5886181BD11BC0FBEE0E0BC
:1004C000F8E3099511E0A0E6B0E0E6E9FCE402C03B
:1004D00005900D92AE31B107D9F722E0AEE1B1E05F
:1004E00001C01D92AD3BB207E1F70E94D2210C94EE
:1004F00049260C940000A82FB92F80E090E041E03D
:1005000050EA609530E009C02D9182279795879534
:1005100010F084279527305EC8F36F5FA8F3089525
:10052000EADF8D939D930895CF93CFB7CF93C39573
:10053000839BE9F7839B0EC0839B0CC0839B0AC0FF
:10054000839B08C0839B06C0C0919402C395C0934F
:100550009402A6C0DF93C0919302DD27C556DD4FFC
:10056000839B02C0DF91E6CF2F930F931F9300B3BD
:100570002FEF03FB20F94F933F9310B34FEF012769
:1005800003FB21F93BE031C04E7F012F10B3216006
:1005900028C0102F4D7F2260000000B329C04B7F80
:1005A0002460012F000010B32BC010B3477F2860D8
:1005B0002AC04F7E00B320612CC04F7D10B3206253
:1005C0002FC04F7B00B3206432C0422700B3499351
:1005D0004FEF0000102713FB20F910B31C70C9F176
:1005E000297F91F2012703FB21F900B3237F89F2D0
:1005F000315058F1102713FB22F910B3277E79F2FE
:10060000012703FB23F92F7C81F200B3102713FB92
:1006100024F92F7971F200C010B3012703FB25F9EB
:100620002F7359F200C000B3102713FB26F92230B4
:1006300040F200C010B3012703FB27F9243028F64D
:100640004F77206810B30000F9CF10E81ABF0027D9
:100650001CC03B503195C31BD04010E81ABF088125
:10066000033C11F10B3401F1209190021981110F1B
:100670001213EDCF4A81441F093669F10D3211F092
:10068000013E29F74F7009F0042F009399023F9122
:100690004F911F910F912F91DF91CAB7C7FD47CF9F
:1006A000CF91CFBFCF91189520919902222379F352
:1006B00010919702112309F044C034300AF443C06A
:1006C0003093970220939202109193023BE0311BEA
:1006D0003093930238C000919702013094F50AE5F7
:1006E0004F7049F43091850034FD2FC00093850090
:1006F000CDE6D2E02EC0433059F0443091F0309135
:10070000780234FD22C000937802C9E7D2E021C00C
:100710003091B10234FD19C00093B102C2EBD2E0B6
:1007200018C03091840234FD10C000938402C5E8E3
:10073000D2E00FC02795A8F45150A9F4220F000071
:10074000F9CF4AE503C042ED01C0432FC4E1D0E038
:1007500032E011B31C60939A11BB02B320E41CE099
:100760005F93012756E002BB279520F4515021F4F6
:10077000220FF9CF012756E000003B5A02BBD0F20E
:10078000279528F4515029F4220F0000F9CF0127B2
:1007900056E0279502BB20F4515021F4220FF9CFE7
:1007A000012756E02991332302BB21F6037F1091E4
:1007B0009802110FC651D04002BB11F01093900265
:1007C00010E81ABF086011B3137F402F437F5F9179
:1007D00000C000C002BB11BB42BB59CF889A08952C
:1007E0000E94EE030C94C214CF93C82F0E9463049E
:1007F000882329F0C0FF02C0909A01C0909881E040
:10080000CF91089581E0089581E008950C94040447
:1008100008950C9408041F93CF93DF9300D000D069
:100820001F92CDB7DEB749835A836B83309159014C
:1008300089819A81311114C0662359F0222349F02D
:100840000E94101E182F682F89819A810E94B71D5F
:1008500003C00E94E31D182F69817A81812F04C093
:100860000E94101E69817A810F900F900F900F9057
:100870000F90DF91CF911F910C94C704FC01262F9C
:10088000408151816281738184810C940B04CF93E8
:10089000DF93EC0160E00E943E04BE01DF91CF9146
:1008A0000C9409040E94B4200E943B1F811102C0D5
:1008B0000E94E41F0E944C110C94B4060C94B006E4
:1008C00008950C94600481E00895CF93C82F0E948E
:1008D00061048C2F0E94F403CF91089508950E9423
:1008E0003D190E946E042FEB87E299E02150804071
:1008F0009040E1F700C000000C9499200F931F93E3
:10090000CF93DF93EC0161E00E943E048C01BE01B5
:100910000E9406048823A9F1BE01C8010E94441068
:10092000882379F1BE01C8010E941412882349F17D
:10093000BE01C8010E946612882319F1BE01C801D8
:100940000E9491138823E9F0BE01C8010E94CC0ED9
:100950008823B9F08A81882369F001158CE518078E
:1009600031F00E3D1C4531F40E94E41F0AC00E9484
:100970006F0407C0CE01DF91CF911F910F910C94AE
:10098000020480E0DF91CF911F910F91089528E13B
:10099000829FC0011124FC0126E0729FE00DF11D31
:1009A0001124E60FF11DEE0FFF1FE254FF4F85915A
:1009B00094910895CF93DF930E94C7040E94CB05C2
:1009C000EC0181159245F0F5C11581E5D80708F0D5
:1009D000A9C0C83ED10528F5C03ED10508F0D7C052
:1009E000C83AD10578F4C53AD10508F074C0C130D1
:1009F000D10509F4CCC008F4C8C0C430D10508F052
:100A0000C6C0C3C0CF3BD10508F0BFC0C85AD0E0B4
:100A1000CC0FDD1FCA57DF4F0990D881C02DD46499
:100A2000B6C0C11590E5D90708F060C0C11520E433
:100A3000D20708F058C0CE019A9581159F4108F45D
:100A4000A6C0A3C0C11586E5D80718F5C11595E560
:100A5000D90708F080C0C11524E5D20708F076C098
:100A60009E01237033278C2F86958695C115D3451B
:100A700008F05DC0C1E0D0E002C0CC0FDD1F2A95B8
:100A8000E2F720E2829FC0011124C82BD92BDC6839
:100A90007EC0C1152AE5D20778F4C11589E5D807CB
:100AA00008F063C0C11598E5D90708F46EC0DC2FC3
:100AB000CC27C06FD06A6BC0CE0190568115904292
:100AC00008F063C08D2F8F710E945F06DD27D06212
:100AD0008F71D82B5CC0C55AD0E0CC54DF4FC88191
:100AE000D0E0D06454C0DF70D06A51C0CE0174E051
:100AF000969587957A95E1F783709C2F937021E006
:100B000030E002C0220F331F9A95E2F73C68382B81
:100B1000CF70C695C69580E2C89FE0011124C22B14
:100B2000D32B35C0DC2FCC27C16FD06A30C0C1E0D9
:100B3000D0E002C0CC0FDD1F2A95E2F720E2829FB1
:100B4000C0011124C82BD92BDA6821C0DC2FCC2797
:100B5000C46FD06A1CC08C2F0E945F068F71C82F93
:100B6000D0E0DC2FCC27D06212C08C2F8F700E9477
:100B70005F0694E0D695C7959A95E1F7CF70D0E0DF
:100B8000DC2FCC27D069C82B02C0C0E0D0E0CE015A
:100B9000DF91CF9108958238910569F1B0F48133E6
:100BA000910509F46DC048F48932910509F463C0D8
:100BB0008A32910509F469C008958533910509F4D5
:100BC00055C089339105B9F00895833E910569F1C7
:100BD00038F4803E9105B1F0823E910509F1089507
:100BE000863E9105A9F1873E9105B9F1843E9105B4
:100BF00009F064C023C020916B0220FD4FC021FD8D
:100C00004DC0089580916B0280FD44C080916C02BC
:100C100080FF44C080916B0284FD42C083EE4DC0D2
:100C200080916B0282FF38C0F5CF80916B0282FD0C
:100C300033C080916C0280FD31C0ECCF80916C029A
:100C400081FF32C080916B0284FD2AC087EE35C0DF
:100C500080916B0283FF26C0F5CF80916B0283FDEC
:100C600021C080916C0281FD1FC0ECCF80916B028E
:100C700085FD1CC01DC080916B0285FD19C016C08A
:100C800080916B0286FD16C017C080916B0286FDB5
:100C900013C010C089E311C082EE0FC080EE0DC0FA
:100CA00080E00BC086EE09C084EE07C089E205C073
:100CB00085E303C08AE201C081E390E0089590914A
:100CC0006B0292FF0DC0282F2871283019F4877FFE
:100CD000846006C0282F2471243011F48B7F886033
:100CE00093FF0DC0282F2871283119F4877E846165
:100CF00006C0282F2471243111F48B7E8861209145
:100D00006C0220FF0DC0382F3871383019F4877FFE
:100D1000816006C0382F3171313011F48E7F8860C8
:100D200021FF0DC0282F2871283119F4877E816199
:100D300006C0282F2171213111F48E7E886194FD27
:100D4000877E0895E82FF0E0E25BFD4F80810895F3
:100D5000089588E78A95F1F7089508950C94AD06F3
:100D60000C94AE060C94AD060C94B206CF93DF93B0
:100D7000ADEBB0E041EC50E061E070E08D91E82F28
:100D8000E295EF70F0E021A98F70EB0102C0CC0F6B
:100D9000DD1F8A95E2F7CE019C2F9095922391ABAF
:100DA00092A9892B82AB4A175B0741F7A7EBB0E00A
:100DB00041E050E08D91E82FE295EF70F0E021A93D
:100DC0008F70BA0102C0660F771F8A95E2F7CB01D8
:100DD000962F9095922391AB92A9892B82AB70E0CC
:100DE000AD3BB70739F710924A0210924E021092AB
:100DF0004B0210924F0210924C021092500210922D
:100E00004D021092510284E00E949007DF91CF9131
:100E10000C9452046F927F928F929F92AF92BF92E6
:100E2000CF92DF92EF92FF920F931F93CF93DF93B6
:100E30008DEB882E80E0982E0AE412E09EE4A92E25
:100E400092E0B92E712CCC24C394D12CF401819161
:100E50004F01C82FC295CF70D0E099A98F7076014D
:100E600001C0EE0C8A95EAF7892F8E2989AB8AA9F1
:100E70006E2C609486218AAB0E94A906E7EBF0E015
:100E800040E050E020E03191A32FA295AF70B0E098
:100E9000D0968C9190E03F7002C0959587953A95D9
:100EA000E2F780FD07C08C2D042E01C0880F0A9444
:100EB000EAF701C080E0282B4F5F5F4F46305105B5
:100EC00011F789A9682269AA8AA9E82AEAAAF80179
:100ED0008081281719F0208381E001C080E0782A02
:100EE0000F5F1F4FA016B10609F0B0CF272D44E0C9
:100EF0006EE472E08AE492E00E9491070E945E0430
:100F0000872DDF91CF911F910F91FF90EF90DF9090
:100F1000CF90BF90AF909F908F907F906F900895EB
:100F20000895FF920F931F93CF93DF938C01F62EBA
:100F3000D72FC42F222349F081E0809320010E9403
:100F4000582090931F0180931E01809120018823D7
:100F5000C1F080911E0190911F010E9464200697AC
:100F600080F0EF2DFD2FD8014C2F50E0CD01801BDC
:100F7000910B841795071CF48D918193F7CF1092F4
:100F80002001DF91CF911F910F91FF900895EF9273
:100F9000FF920F931F93CF93DF938B01682F111153
:100FA0000AC0442329F0E82FF0E0E857FD4F649190
:100FB000762F862F75C0212F30E0E82FF0E04423F4
:100FC00021F0E857FD4FE491F0E046E0049FC001B6
:100FD0001124CFEFD0E0BE010E94EC244BEA46037F
:100FE000C001479F900D1124800F911D800F911D0E
:100FF000982F990F890FAE01421B530B4E9FD001C2
:101000004F9FB00D5E9FB00D11249B2F189FA00124
:101010001124452F55278E01041B150B0E9FA0018F
:101020000F9F500D1E9F500D11247E01E81AF108EC
:10103000E29E8001E39E100DF29E100D1124212FDF
:101040003327C21BD30BCE9F9001CF9F300DDE9F65
:10105000300D112462307105A9F048F46115710555
:1010600069F061307105C9F48B2F752F0DC06430A4
:10107000710581F058F06630710579F47E2F8B2F61
:10108000932F0DC0832F7B2F9E2F09C08E2F7B2F78
:10109000952F05C08E2F732F02C07E2F852F692FAD
:1010A000DF91CF911F910F91FF90EF90089541E054
:1010B0000E94C70708950895CF93DF93762FE90123
:1010C000682F842F0E945708798368838A83DF9171
:1010D000CF91089580915202282F269530E0211556
:1010E000310519F48170826005C02B32310524F07E
:1010F0008170846580935202089588E090E00C949A
:10110000DE25CF92DF92EF92FF926B017C010E946D
:101110006A08B701A60188E090E0FF90EF90DF90A9
:10112000CF900C94FB25E2E5F2E083E0808311820E
:101130008FEF8283838314826081718182819381A6
:101140000C9481088091520280FF02C08695089518
:1011500080E0089590915602933018F49F5F909329
:101160005602882351F0609152027091530280918F
:101170005402909155020C948108089581E00C94DA
:10118000AA0890915602992319F091509093560213
:10119000882351F060915202709153028091540261
:1011A000909155020C948108089581E00C94C10837
:1011B00070E00C945E11609168008091520280FF93
:1011C0000AC08091670023E0829FC0011124895AE0
:1011D0009D4F0C94D8088091690090916A008917FE
:1011E00080F7E82FF0E09F01220F331FE20FF31F7B
:1011F000E95AFD4F1182108212828F5FF0CF9091D9
:10120000520290FF16C09091690020916A009217D7
:1012100070F4E92FF0E0DF01AA0FBB1FEA0FFB1FFC
:10122000E95AFD4F8183608342839F5FF0CF0C9426
:10123000DB080895CF93DF9300D01F92CDB7DEB7C0
:101240009091520290FF0AC09E012F5F3F4F0E9473
:101250005C084B8169818A810E94FF080F900F9082
:101260000F90DF91CF910895CF93DF93EC01EC8144
:10127000F0E0ED5FFE4F4491E2E5F2E062818181B2
:101280000E941A098C818F5F8C83DF91CF91089522
:10129000CF93DF93EC01E2E5F2E0438162818C8140
:1012A0000E941A098C818F5F8C83DF91CF91089502
:1012B0000F931F93CF93DF9300D01F92CDB7DEB76C
:1012C0008C018091210181110AC09E012F5F3F4F47
:1012D0004FEF6FEF0E945C088A8180932101F80133
:1012E0008481813051F028F0823061F440912101F5
:1012F0000AC08091210140E007C06091210140E0D7
:1013000080E003C040E080E060E00E94FF08F80158
:10131000848190E0019663E070E00E940025848360
:101320000F900F900F90DF91CF911F910F91089523
:10133000AF92BF92CF92DF92EF92FF920F931F93E3
:10134000CF93DF9300D01F92CDB7DEB7182FF62EC4
:10135000042FE22E9091520290FF6DC0E92FE69586
:10136000AE2FB0E0AF53BF4F8C91809344019E7F6E
:10137000923061F49E012F5F3F4F812F0E945C08E5
:101380004B8169818A810E94FF0843C0823019F431
:10139000009155023EC0863019F41091530239C0B5
:1013A0008930D9F38931A9F5E9518E2F8170D82E72
:1013B000E695F0E0ED5FFD4FA590B490C12CBB2405
:1013C00060916B00C61618F52C2D30E0A29EC0016E
:1013D000A39E900DB29E900D112470E00E94EC240B
:1013E000812FD11002C0860F01C0861B9091690029
:1013F000290F311DA901440F551F240F351F295AEC
:101400003D4F402F6F2D0E945C08C394D9CF0E949E
:10141000DB0810935302F092540200935502EE2021
:1014200051F0609152027091530280915402909158
:1014300055020E9481080F900F900F90DF91CF917D
:101440001F910F91FF90EF90DF90CF90BF90AF90E2
:101450000895E2E5F2E09181282F4381628188E0DE
:10146000890F0C94980981E00C94290AE2E5F2E0D6
:101470009181282F4381628188EF890F0C9498090C
:1014800081E00C94360AE2E5F2E0628121E1620F2C
:1014900008F46FEF282F438181810C94980981E033
:1014A0000C94430AE2E5F2E0628121E1621B08F458
:1014B00060E0282F438181810C94980981E00C948D
:1014C000520AE2E5F2E0438121E1420F08F44FEFD6
:1014D000282F628181810C94980981E00C94610A23
:1014E000E2E5F2E0438121E1421B08F440E0282FCD
:1014F000628181810C94980981E00C94700A20E04B
:101500000C949809FF920F931F93CF93DF93EC01F4
:10151000F12C0FEF10E060916B00F616F0F4809163
:1015200069002F2D30E0280F311DC901880F991F48
:10153000280F391F295A3D4F70E0C8010E9400252D
:10154000962F8C814091550260915402F99E800D36
:1015500011240E945C08F394DECF0E94DB089A817C
:101560008C8190FF02C08F5F01C081508C83DF911E
:10157000CF911F910F91FF900895AF92BF92CF929C
:10158000DF92EF92FF920F931F93CF93DF93FC01B3
:10159000828180FF02C00FEF01C001E010E045E052
:1015A000A42E80916B00181708F043C08091690049
:1015B000C12ED12CE601C80FD11DCE01880F991F75
:1015C000C80FD91FC95ADD4F198218821A8234E018
:1015D000E32EF12CB12C809123018B0D86302CF061
:1015E0006A2D0E94DE24892F05C087FF03C09091D9
:1015F0006B00890F082E000C990BC816D90691F4C0
:10160000809155028E9DA0018F9D500D11245595FE
:101610004795559547959E016091540280915302DC
:101620000E945C08B00EF1E0EF1AF108A1F61F5F0E
:10163000B8CF0E94DB0880912301013031F4811181
:1016400002C080916B00815007C090E001966091CC
:101650006B0070E00E94002580932301DF91CF9101
:101660001F910F91FF90EF90DF90CF90BF90AF90C0
:101670000895CF938091690090916A00891770F462
:10168000E82FF0E09F01220F331FE20FF31FE95A0A
:10169000FD4F1182108212828F5FF0CFC0E0609107
:1016A0006B00C617C0F5EC2FF0E070E0CF010E9490
:1016B000002520916900820F20912201022E000C4A
:1016C000330B90E0E217F307CCF020916600022E76
:1016D000000C330B2E173F078CF09C01220F331F99
:1016E000820F931F9C01295A3D4F409155026091F2
:1016F0005402809153020E945C080BC0FC01EE0F63
:10170000FF1F8E0F9F1FFC01E95AFD4F11821082AF
:101710001282CF5FC4CF0E94DB08209165008091C8
:101720002201820F8093220190916600920F909384
:10173000660019165CF4082E000C990B40916B00A2
:1017400050E041505109841795071CF021952093D2
:101750006500CF9108958F929F92AF92BF92CF92E2
:10176000DF92EF92FF920F931F93CF93DF938C0141
:10177000FC014481C42FD0E09E01DE010E9444257B
:101780009B01AC010E945A256B017C01E0E2F0E074
:10179000EC1BFD0BA5E5B0E09B01AC010E945A25B6
:1017A0004B015C019F01DF010E943C259B01AC01C4
:1017B0000E9465259B01AC012C0D3D1D4E1D5F1D3A
:1017C000C501B4010E941425C22FD22F2A3228F459
:1017D000F3E02F9F900111240DC025E530E02C1B74
:1017E0003109C901880F991F280F391F37FF02C01F
:1017F0002F5F3F4F35952795C22FC095F12C85E57A
:10180000E82EED1A80916B00F816C8F4F1FC02C0C6
:101810008E2D01C08D2F909169002F2D30E0290F62
:10182000311DA901440F551F240F351F295A3D4F63
:101830004C2F609154020E945C08F394E3CF0E9405
:10184000DB08F8018481811102C091E003C080327D
:1018500019F49FEF9093640090916400890FF80150
:101860008483DF91CF911F910F91FF90EF90DF90D4
:10187000CF90BF90AF909F908F9008950F931F933C
:10188000CF93DF93EC0100E010E080916B00282FF4
:1018900030E00217130724F5909169009801290F91
:1018A000311DA901440F551F240F351F295A3D4FE3
:1018B000869590E04C81081719071CF4442331F0F9
:1018C00002C0411103C04091550201C040E0609147
:1018D0005402809153020E945C080F5F1F4FD5CFC6
:1018E0000E94DB088C8190E00196817099278C839F
:1018F000DF91CF911F910F9108958F929F92AF9298
:10190000BF92CF92DF92EF92FF920F931F93CF93EC
:10191000DF93FC01B280948081E0848300E015E0D5
:101920005BE4A52E88248394EE24EA94F12C7BE4D6
:10193000C72ED12C80916B00081708F08FC0C02FE4
:10194000D0E01C9FF0011D9FF00D1124EC5DFE4FB7
:10195000911003C01382128267C02381222389F170
:10196000215023833481332319F09A2D921B01C017
:10197000922F809155021C9FF0011D9FF00D1124A4
:10198000EC5DFE4F899FC0011124B6010E94EC243A
:101990006283211104C0332311F01482A38222E058
:1019A0002B1508F441C01C9FF0011D9FF00D112460
:1019B000EC5DFE4F809153028083809154028183BD
:1019C00033C00E94B9258230914074F582E08B15B6
:1019D00030F40E94B925B7010E94002502C0809111
:1019E00053021C9FF0011D9FF00D1124EC5DFE4F72
:1019F000808322E02B1558F40E94B92520915402CF
:101A00002695622F70E00E940025820F02C080910F
:101A100054021C9FF0011D9FF00D1124EC5DFE4F40
:101A200081831282A3828482809169009E01280FA3
:101A3000311DC901880F991F280F391F295A3D4FA1
:101A40001C9FF0011D9FF00D1124EC5DFE4F4281A3
:101A5000618180810E945C080F5F6CCFDF91CF9124
:101A60001F910F91FF90EF90DF90CF90BF90AF90BC
:101A70009F908F900C94DB08E2E5F2E080818E7FEE
:101A8000808360817181828193810E94810810929C
:101A900045012FEB84ED91E0215080409040E1F72B
:101AA00000C000000C94DB0860915202669570E063
:101AB0004BE050E08CE690E00E94C925892B19F498
:101AC00081E0809345010E94582090933E018093CD
:101AD0003D0108959091520290FF35C0917081119F
:101AE00002C0926006C08B3210F0946502C0880F6D
:101AF000982B90935202662351F06091520270919C
:101B0000530280915402909155020E948108609185
:101B10005202669570E04BE050E08CE690E00E9447
:101B2000C925892B19F01092450102C00E94540D5D
:101B300081E0809340014091550260915402809170
:101B400053020C947F0A0895682F90915202969543
:101B500081E0890F8B3208F081E00C946A0D81E0FE
:101B60000C94A40D682F9091520296958FEF890FD7
:101B700009F48AE20C946A0D81E00C94B20D61E0E4
:101B80000C946A0DE2E5F2E08081816080838695A5
:101B90000C94BF0D8091520280FD0C943C0D0C946E
:101BA000C20D60E00C946A0D8091430181112EC03A
:101BB0000E943B1F811104C00E94E41F0E949308F1
:101BC0000E947D08609352027093530280935402E6
:101BD000909355026E7F61F40E9493080E947D08E5
:101BE0006093520270935302809354029093550273
:101BF0000E946A08109245018091520280FF03C042
:101C000086950E94D10D81E08093430108950F9342
:101C10001F93CF93DF9380914501882309F49CC0E3
:101C200080914401E0915202E695E81BE0933F0168
:101C3000823049F4F0E0E150FF4FE491CE2FD0E044
:101C400004E319E059C0863049F4F0E0E450FF4F56
:101C5000E491CE2FD0E008E419E04EC0893051F471
:101C6000E695F0E0E750FF4FE491CE2FD0E002E898
:101C70001AE042C08F3051F4E695F0E0EA50FF4F91
:101C8000E491CE2FD0E00DEB1AE036C0853149F457
:101C9000F0E0ED50FF4FE491CE2FD0E009E31BE0E0
:101CA0002BC08831D9F0833239F4E1EFF0E0C591EF
:101CB000D49108E519E020C08432A9F08532C1F43E
:101CC0008E2F63E00E94D224E92FF0E0E251FF4F13
:101CD000E491CE2FD0E00DE71CE00EC0C8E2D0E0CA
:101CE0000BEA1BE009C0C4EFD1E00EE31CE004C026
:101CF000C0EDD7E00BE518E080914001882389F022
:101D0000109240010E9458209E0120953095820F2C
:101D1000931F90933E0180933D01109242011092D7
:101D2000410180913D0190913E010E9464208C17F9
:101D30009D0790F0E0913D01F0913E01CE0FDF1F35
:101D4000D0933E01C0933D018DE391E0F801DF9116
:101D5000CF911F910F910994DF91CF911F910F9116
:101D60000895882311F0FA0101C0FB010994CF9373
:101D7000DF93C82FD62F0E94A2088C1740F00E9434
:101D8000A2088D1720F4DF91CF910C94AF0D8C2F0A
:101D9000DF91CF910C94BF0D0F931F93CF93FB0155
:101DA000C281CC2309F463C08C010E94911E82720F
:101DB000F801E25CFC45E431F10508F059C0E65D4C
:101DC000FF4F0C9436250E94CA0D06C04CEB5DE017
:101DD0006FEA7DE00E94B10EC0E04AC04FEA5DE0CC
:101DE0006CEB7DE0F7CF40E45AE063E37AE0F2CFBA
:101DF00043E35AE060E47AE0EDCF4EE55AE06FE469
:101E00007AE0E8CF4FE45AE06EE57AE0E3CF4CE7C2
:101E10005AE06DE67AE0DECF4DE65AE06CE77AE014
:101E2000D9CF45ED58E06EEB78E0D4CF4EEB58E0DB
:101E300065ED78E0CFCF81E017C065E082E010C0AB
:101E400068E086E00DC06EE089E00AC064E18FE0E2
:101E500007C067E185E104C088E106C062E289E16C
:101E60000E94B70EB9CF83E20E94BF0DB5CFC1E08B
:101E70008C2FCF911F910F910895809166028695C6
:101E80008695869508958091660281FD07C08260DF
:101E9000809366020E94701F0C94D0100895809168
:101EA000660281FF07C08D7F809366020E94701FCB
:101EB0000C94DA1008958091660281FD0C944F0F06
:101EC0000C94430F809166028695817008958091ED
:101ED000770008950E943B1F811102C00E94E41FF9
:101EE0000E946C1F80936602282F269526952695C2
:101EF00030E02D30310524F08770806680936602D3
:101F00008091660280FF04C086958695869501C003
:101F100080E00C94AC1020916602822F8695869505
:101F20008695482F50E04C30510554F48F5F982F20
:101F3000990F990F990F822F8770892B80936602D2
:101F4000809166028160809366020E94701F80917A
:101F500066028695869586950C94AC1080916602F3
:101F6000982F969596959695A1F0915E990F990F59
:101F7000990F8770892B80936602887F91E009F41E
:101F800090E08091660290FB80F9809366020E9447
:101F9000701F809166028695869586950C94AC108C
:101FA0008091660280FD13C081608093660281305B
:101FB00019F489E080936602809166020E94701F86
:101FC000809166028695869586950C94AC1008954E
:101FD0008091660280FF08C08E7F809366020E9417
:101FE000701F80E00C94AC1008958091660280FD13
:101FF0000C94E80F0C94D00F90916602892F86956F
:10200000869586958F5F8F7197708D3038F4880F25
:10201000880F880F892B8093660202C09093660216
:1020200080916602887F91E009F490E080916602D9
:1020300090FB80F9809366020E94701F8091660277
:102040008695869586950C94AC108D3008F08CE0C2
:10205000909166029770282F220F220F220F922B49
:1020600090936602987F21E009F420E09091660247
:1020700020FB90F9909366020C94AC100E942510FE
:10208000809166020C94701FFC01DB0112968C910A
:102090008823F9F0EB5BFC45E730F105D8F4E25C0E
:1020A000FF4F0C9436258CE001C080E00E943E106A
:1020B00080E008950E94AE0FFBCF0E948B0FF8CFF7
:1020C0000E94F50FF5CF0E94FC0FF2CF0E945B0F2C
:1020D000EFCF81E008958C9A94980895949808958C
:1020E000CF92DF92EF92FF928C3724E1920728F48F
:1020F00069E070E00E94EC2429C0A0E0B0E08A50C2
:10210000974DAF4FBF4F6627782F892F9A2F25EF16
:1021100038E241E050E00E94142569017A01CA01C9
:10212000B9010E94C2249B01AC01C701B6010E9403
:10213000C224BB27A92F982F872F009721E0A20741
:10214000B10511F0BC0102C06FEF7FEFCB01FF9032
:10215000EF90DF90CF900895CF93C82F8D3040F44B
:10216000811107C08FB58F7D8FBD0E946E1004C096
:10217000CCE08FB580628FBD2C2F30E0AFEFBFEF8A
:102180000E9444252CE030E040E050E00E941425FD
:10219000C9010E94701099BD88BDCF91089508951E
:1021A00010924701109246011092480189B784604D
:1021B00089BF089589B78B7F89BF0E943D0F0C941A
:1021C000AC101F920F920FB60F9211242F933F93D2
:1021D0004F935F936F937F938F939F93AF93BF932F
:1021E000CF93EF93FF930E94670F40914601509168
:1021F00047014F5F5F4F94EF899F90011124CA01FF
:10220000B9010E94EC249093470180934601B901E3
:10221000660F672F661F770B71950E94EC246F770E
:1022200080914801823019F4603441F404C0813057
:1022300029F46F3719F489B78B7F89BFE62FF0E057
:10224000E85FFD4FC4910E943D0F282F41E051E00F
:10225000C49FC001C59F900D11246CE070E00E94E6
:10226000EC24269FC001279F900D11240E9470101E
:1022700099BD88BDFF91EF91CF91BF91AF919F9193
:102280008F917F916F915F914F913F912F910F901F
:102290000FBE0F901F9018950E946B1082E28FBDA9
:1022A00089E18EBD8FEF9FEF97BD86BD0E946A0FBB
:1022B0000E94620F81110C94D01008950F931F9308
:1022C000CF93DF938C01EB0180914901811105C00F
:1022D0000E94C21381E080934901AE01440F551F53
:1022E0004C0F5D1F24E630E0B80180EBDF91CF9109
:1022F0001F910F910C944C14AF92BF92CF92DF922A
:10230000EF92FF920F931F93CF93DF937C015B01BA
:10231000C42FD22FFC0182818823F9F040934C0115
:102320000E94582090934B0180934A0180E28C0FC9
:10233000883008F06EC0C77081E001C0880FCA9570
:10234000EAF7DF91CF911F910F91FF90EF90DF900F
:10235000CF90BF90AF900C94C51680914C0148135C
:1023600035C080914A0190914B010E9464206C011C
:10237000B701C5010E94F61BC816D90638F510E250
:102380001D0FCD17B9F080E28C0F883040F4C77074
:1023900081E001C0880FCA95EAF70E94CC16183078
:1023A00058F581E09D2F977001C0880F9A95EAF744
:1023B0000E94C516802F0E94B216183050F5D770B3
:1023C00081E001C0880FDA95EAF70AC080E28C0F3D
:1023D0008830F8F4C77081E001C0880FCA95EAF729
:1023E000DF91CF911F910F91FF90EF90DF90CF90F1
:1023F000BF90AF900C94CC16802FDF91CF911F919E
:102400000F91FF90EF90DF90CF90BF90AF900C9422
:10241000B216DF91CF911F910F91FF90EF90DF9057
:10242000CF90BF90AF9008950F939C01CB01233FB5
:102430004CE5340731F188F4283DFCE53F07D9F03D
:10244000293D4CE5340779F1273D3C45A9F506E2E5
:1024500021EE41EE67ED7CE52BC0253FFCE53F0713
:10246000E1F0A8F0263F3C4539F507E225EE46EEBF
:1024700066EF7CE51DC007E225EE45EE68ED7CE5E4
:1024800017C006E221EE40EE63EF7CE511C007E2E3
:1024900025EE44EE64EF7CE50BC006E221EE42EE51
:1024A00065EF7CE505C008E221E045EE69ED7CE5DD
:1024B0000E947C1180E008C0FC018281882319F011
:1024C00010924C0101C081E00F910895CF93DF93EA
:1024D000EC01FB018281882309F41FC1C230FCE5B5
:1024E000DF0708F41BC1C6319CE5D90738F09E010F
:1024F0002A5F3C452930310508F010C10E944E1F6B
:1025000090936C0280936B02C031ECE5DE0709F416
:10251000C3C008F041C0C8308CE5D80709F49AC0A0
:10252000F0F4C430ECE5DE0709F487C068F4C2308B
:102530008CE5D80709F477C0C330DC4509F0E3C067
:1025400080916B02826076C0C630ECE5DE0709F44C
:102550006EC008F07BC080916B0288606BC0CC308D
:102560008CE5D80709F485C068F4CA30ECE5DE07CD
:1025700009F474C008F079C00E943D1980916B0283
:10258000806858C0CE308CE5D80709F476C008F0D2
:102590007FC080916B028BC0CB3FECE5DE0709F476
:1025A0004FC018F5C3318CE5D80709F47DC078F425
:1025B000C131ECE5DE0709F473C0C231DC4509F036
:1025C000A2C00E943D1980916B028F7733C0C53144
:1025D0008CE5D80709F472C008F486C0CA3FDC4510
:1025E00009F091C080916C023EC0CF3FFCE5DF074F
:1025F00009F45FC058F4CD3F9CE5D90709F444C005
:1026000008F43FC080916C0282602DC0C130FDE5AE
:10261000DF0709F475C008F45DC0C230DD4509F07C
:1026200072C080E06EC080916B02816003C08091B7
:102630006B02806180936B0266C080916B0211C057
:1026400080916C02826080936C025DC080916B020D
:102650008062F0CF80916B028064ECCF80916B023E
:1026600088608460E7CF8160EECF80916B028E7FBF
:10267000E1CF80916B028D7FDDCF80916B02877FF0
:10268000D9CF80916C0218C080916C028D7FDBCF16
:1026900080916B028F7ECECF80916B028F7DCACFEF
:1026A00080916B028F7BC6CF80916B02877F8B7F7F
:1026B000C1CF80916C028D7F8E7FC5CF80916B02E0
:1026C00082FB222720F991E0922790FB82F990FB70
:1026D00083F9B0CF80916C02982F909591708E7F86
:1026E000892B90FB81F9AFCF0E943D1980916B023D
:1026F00087FB222720F991E0922790FB87F99ACF58
:1027000081E00E94E61F80916B0290916C020E9412
:102710005F1F0E943D1980E001C081E0DF91CF91F1
:102720000895CF93DF9386319C4541F5EB010E94DC
:10273000911E982F8A81209178003091790088230A
:1027400079F09A7A81E009F480E080934D0191114B
:1027500002C069E201C065E3C9010E942D200AC0E0
:1027600080914D01811102C069E201C065E3C90198
:102770000E942F200E94D21E80E001C081E0DF91E4
:10278000CF91089511B887E080B985B3836085BB88
:1027900086B7846086BF86B7816086BF86B780644F
:1027A00086BF0895EF92FF920F931F93CF93DF930D
:1027B000182FEB0116BE84EA86BF0E9458207C01C8
:1027C00006B607FC0EC0CF3F8FEFD807C9F30E94B3
:1027D00058208E199F098C179D0790F38EEF9FEF5D
:1027E00028C081B1887F883039F081B1887F8031FD
:1027F00019F08FEF9FEF1DC013B984E886BF0E94C8
:1028000058208C0106B607FC0CC0CF3F8FEFD807CD
:10281000C9F30E945820801B910B8C179D0790F3E1
:10282000DDCF81B1887F883111F0803411F780E0ED
:1028300090E0DF91CF911F910F91FF90EF9008955D
:102840000F931F93CF93DF93EB0183B984E886BF87
:102850000E9458208C0106B607FC0EC0CF3F8FEFB8
:10286000D807C9F30E945820801B910B8C179D0735
:1028700090F38EEF9FEF0BC021B1287F81E090E0B5
:10288000283211F480E090E0919581959109DF91D3
:10289000CF911F910F910895CF92DF92EF92FF9207
:1028A0000F931F93CF93DF936B018A017901B901D5
:1028B0000E94D213E6010C0D1D1DC017D10759F45B
:1028C00024E926BFDF91CF911F910F91FF90EF90E8
:1028D000DF90CF90089597FDF3CFB70189910E94C3
:1028E0002014EBCF90935301809352010895E0910F
:1028F0005201F0915301309721F00190F081E02DC9
:10290000099480E00895E0915201F09153013097CD
:1029100021F00280F381E02D099408952091500167
:10292000309151012817390771F09093510180932C
:102930005001E0915201F0915301309721F006804F
:10294000F781E02D0994089520914E0130914F01B7
:102950002817390771F090934F0180934E01E09151
:102960005201F0915301309721F00084F185E02D60
:102970000994089584B7806884BF84B7806884BF51
:10298000089508950C94C1140C94C1140C94C114AE
:102990000E94BA140E94C4140C94F00381E00895BC
:1029A0000C94CE140E9451200E94B6060E94C820AA
:1029B0000E946A0F0E94D40D0C94C614AF92BF926D
:1029C000CF92DF92EF92FF920F931F93CF93DF93FB
:1029D000CDB7DEB72A970FB6F894DEBF0FBECDBFD6
:1029E0000E940A070E94D014811111C08FEF8983C1
:1029F0008A831B820E9458208160782F9D838C835C
:102A000049815A816B818D810E94781540C085E58E
:102A1000A82E81E0B82E00E010E0C02E802F0E948A
:102A2000A206E82EF501D1905F01D82631F40F5FA0
:102A30001F4F0430110589F7D9CF8091B60181FD70
:102A40000E94A80680E0FF24F3949D2D9F21D1F0E1
:102A50008E83CF82EF2081E009F480E088870E9496
:102A600058208160782F9A8789874E815F81688599
:102A70008A850E947815F801EB5AFE4F8081F8266E
:102A8000F08205C08F5FFF0C8630F9F6D0CF0E9430
:102A9000070E0E94CF100E9477149091540189175D
:102AA000B1F00E947714809354012A960FB6F894DF
:102AB000DEBF0FBECDBFDF91CF911F910F91FF9071
:102AC000EF90DF90CF90BF90AF900C9465042A9662
:102AD0000FB6F894DEBF0FBECDBFDF91CF911F912F
:102AE0000F91FF90EF90DF90CF90BF90AF9008953F
:102AF000CF93DF93CDB7DEB72B970FB6F894DEBF39
:102B00000FBECDBF4F83588769877A878B87DE01D9
:102B1000119686E0FD0111928A95E9F785E0FE01A4
:102B2000379601900D928A95E1F749815A816B8120
:102B30007C818D819E810E94F91B2B960FB6F894A3
:102B4000DEBF0FBECDBFDF91CF910895FC01808124
:102B500091810E94521E0895CF93882309F4A1C049
:102B6000C82F8238C1F40E94771481FD9AC069E3AE
:102B700080917800909179000E942D200E94D21EB1
:102B80002FE789EA93E0215080409040E1F700C0B0
:102B9000000069E319C0833801F50E94771480FDB5
:102BA00080C063E580917800909179000E942D208B
:102BB0000E94D21E2FE789EA93E021508040904086
:102BC000E1F700C0000063E5809178009091790002
:102BD0000E942F20CF910C94D21E8438C1F40E9401
:102BE000771482FD5EC067E480917800909179004F
:102BF0000E942D200E94D21E2FE789EA93E02150E7
:102C000080409040E1F700C0000067E4DDCF8CEF2A
:102C10008C0F813AF8F48C2F0E949621811141C0CB
:102C20006C2F80917800909179000E94F71F882383
:102C300049F06C2F80917800909179000E942F20AC
:102C40000E94D21E6C2F80917800909179000E9492
:102C50002D20C0CF80E28C0F883048F4C77081E00F
:102C600001C0880FCA95EAF70E94941EB3CFEBE526
:102C7000EC0FE33040F4F0E0E65EFE4F808190E040
:102C8000CF910C948E14C85AC73158F4EC2FF0E051
:102C9000EE0FFF1FE451FF4F80819181CF910C9483
:102CA000A414CF910895882309F45BC0682F82385B
:102CB00079F40E94771481FF54C069E38091780011
:102CC000909179000E942D200E94D21E69E310C0CD
:102CD0008338B1F40E94771480FF43C063E580918C
:102CE0007800909179000E942D200E94D21E63E509
:102CF00080917800909179000E942F200C94D21E30
:102D0000843879F40E94771482FF2BC067E48091A5
:102D10007800909179000E942D200E94D21E67E4D5
:102D2000E7CF8CEF860F813A18F380E2860F883068
:102D300048F4677081E001C0880F6A95EAF70E9445
:102D40009A1EDCCF8BE5860F833020F480E090E084
:102D50000C948E14685A673120F480E090E00C9453
:102D6000A4140895CF93C82F0E94AC15C93349F419
:102D70002FEF8DEE92E0215080409040E1F700C0AF
:102D800000008C2FCF910C945316882321F00E94C1
:102D9000941E0C94D21E0895882321F00E949A1E3E
:102DA0000C94D21E0895CF92DF92EF92FF920F9370
:102DB0001F93CF93DF937C01D62FC72FFC01058192
:102DC00002950F70128111110E94B11E0E948A1E7D
:102DD000882399F0112389F08C2F807F803421F093
:102DE00080E28D0F883048F082E00E941C1F0E9414
:102DF0008A1E91E0D82ED92601C0D12CCC2EC294A7
:102E00008FE0C8228C2D90E08C30910508F0ABC18A
:102E1000FC01EB5BFF4F0C9436258C2F807FCF702D
:102E2000882311F0C295C07F112399F0CC2309F4B7
:102E300086C180E28D0F883010F0D11104C08C2F34
:102E40000E94941E03C08C2F0E94A41E0E94D21EBA
:102E500076C18D2F0E945316CC2309F484C180E2E1
:102E60008D0F883010F0D11104C08C2F0E949A1E53
:102E700003C08C2F0E94AA1E0E94D21E74C18C2FE8
:102E8000807FCF70803211F0C295C07FDD2319F0B2
:102E9000D130C9F022C0112371F0002341F001307C
:102EA00031F40E94B71E8C2B0E94BF1E5CC10E9491
:102EB000B71E8C2B1DC0002319F0013009F453C13B
:102EC0000E94C81E25C0112321F0063008F04BC116
:102ED0000EC0053008F047C11BC0112361F000236C
:102EE00031F0F701858180FF2AC18F7085838C2F97
:102EF0000E94C51638C1002359F0D93309F030C1FA
:102F0000FFEF0DEE12E0F15000401040E1F726C156
:102F10008C2F0E94CC1627C18C2F869586958370A6
:102F200019F0813061F01FC1112321F08D2F9C2FEA
:102F3000937002C080E090E00E948E141CC11123A7
:102F400021F08D2F9C2F937002C080E090E00E94B2
:102F5000A41411C18C2F837009F047C0111107C14F
:102F60002D2F229526952770220F220F6D2F6F701F
:102F7000862F90E0A0E0B0E0022E04C0880F991FD9
:102F8000AA1FBB1F0A94D2F7D4FF10C04FE050E035
:102F900060E070E004C0440F551F661F771F2A953C
:102FA000D2F7409550956095709503C040E050E091
:102FB000BA01C695C695C3708A019B01082B192BCF
:102FC0002A2B3B2BC901B801C23049F058F4C1305B
:102FD00019F00E94CD1CCBC00E94BB1CC8C00E942F
:102FE000DF1CC5C00E94B91CC2C0112319F08C2F70
:102FF000817001C08695882309F4B9C02D2F2295D0
:1030000026952770220F220F6D2F6F70862F90E06C
:10301000A0E0B0E0022E04C0880F991FAA1FBB1FBA
:103020000A94D2F7D4FF10C04FE050E060E070E0A7
:1030300004C0440F551F661F771F2A95D2F740958D
:1030400050956095709503C040E050E0BA01C69578
:10305000C695C3708A019B01082B192B2A2B3B2B89
:10306000C901B801C23049F058F4C13019F00E94CA
:10307000921D7DC00E94801D7AC00E94A41D77C051
:103080000E94F31C74C0CF70112339F08C2F0E9462
:10309000191D8D2F0E94C5166AC08D2F0E94CC1657
:1030A0008C2F0E943A1D63C0D23F01F128F4D03F1B
:1030B00041F0D13FA1F03FC0D33FF9F0D43F39F107
:1030C0003AC0112341F0053008F04DC08C2F8F71AC
:1030D0000E945F1D48C0063008F045C0F7CF11239D
:1030E00039F08C2F8F710E94191D3DC01123C9F337
:1030F0008C2F8F710E943A1D36C0112329F08C2F1E
:103100008F710E94041D2FC00E94FF1C2CC0112330
:1031100049F0CF718C2F0E94191D63E08C2F0E9403
:10312000071F21C081E00E941C1F0230E0F082E0F6
:103130000E941C1F18C0112331F0002391F28D2F23
:103140000E94AC1510C0002399F2D93349F41FEF47
:103150002DEE32E0115020403040E1F700C0000079
:103160008D2F0E94531688EF8C0D843020F40E941E
:1031700077140E946504DD20C9F00E94861E80FD40
:1031800015C0F70112820E94801E0E94191DC701FE
:103190000E94F7180E94801EDF91CF911F910F911E
:1031A000FF90EF90DF90CF900C943A1DDF91CF917C
:1031B0001F910F91FF90EF90DF90CF9008950F93A4
:1031C0001F93CF93DF93EC01688179818A810E94FC
:1031D0005D1E8C010E94B61D0E94A71CB801CE0185
:1031E0000E94D316DF91CF911F910F910895CF9335
:1031F000DF93EC01988189812B813C81232B31F075
:103200008F3F31F481E09F3F19F403C081E001C09A
:1032100080E080FD19C0CE010E947E0481110CC0A7
:103220000E948A1E882381F08A81882369F082E0C7
:10323000DF91CF910C941C1FCE010E94DF18CE01AC
:10324000DF91CF910C944704DF91CF9108950E94B4
:10325000B11E0E94B41E0E94D21E80E090E00E9427
:103260008E1480E090E00C94A414809178009091EA
:1032700079000E9431200C9427190E94A11E0C9401
:103280003519E92FE295EF704E2F50E0FA01329791
:10329000EE30F105B0F4EF5AFF4F0C943625803F25
:1032A00091F018F4883E68F40EC0843F51F40BC0CE
:1032B000883E48F0813F29F406C093FB882780F9B7
:1032C000089580E0089581E008950E94521E0E94B2
:1032D00041190895CF93DF9300D000D01F92CDB74E
:1032E000DEB70F900F900F900F900F90DF91CF915E
:1032F0000895CF93DF9300D000D000D0CDB7DEB7D4
:1033000026960FB6F894DEBF0FBECDBFDF91CF91EA
:1033100008951F93CF93DF93C0915A0116E08091D7
:103320005B01C81799F0D0E01C9FF0011D9FF00DC4
:103330001124E45AFE4F408151816281738184815E
:1033400095810E9479192196C770E9CFDF91CF91BD
:103350001F91089540918C0150918D0160918E01D3
:1033600070918F0180919001909191010C94791945
:103370000F931F93CF93DF938091910182958F706C
:1033800009F05DC080918E01882309F458C08091B6
:103390005A0110915B0160918C0170918D01C09177
:1033A0008F01D091900191E06F3F09F090E0292FBB
:1033B00006E0811709F443C0209721F07F3F21F0F8
:1033C00030E003C031E001C0322F90E030FD34C066
:1033D000089FF001099FF00D1124DF01A45ABE4F90
:1033E00011963C911197371327C03C91361324C096
:1033F00012963C91129731111FC013964D915C911A
:1034000014974C1B5D0B483C5105B0F48091910121
:103410008F70806180939101EF59FE4F80818F7092
:10342000806180838CE891E00E94F718DF91CF9152
:103430001F910F910C94891901968770BACFDF9173
:10344000CF911F910F9108959F92AF92BF92CF920B
:10345000DF92EF92FF920F931F93CF93DF93CDB73D
:10346000DEB761970FB6F894DEBF0FBECDBF8C01FB
:1034700085E0F801DE011D9601900D928A95E1F735
:10348000F80140815181E28090918C0160918D0121
:1034900020918F01309190012115310531F06F3F5E
:1034A00031F481E09F3F19F403C081E001C080E066
:1034B000F82FF1709F2E80FD46C1F801A380B480E3
:1034C0008CE8C82E81E0D82EF0908E01F501E21B29
:1034D000F30BFF2009F4DFC080919101E83CF10576
:1034E00008F09BC0282F207F09F052C0561313C04C
:1034F000491311C0FE2CE1100EC08F7080618093C3
:1035000091010E94AA19C6010E94F71880919101A9
:10351000F801858358C1AB2831F05F3F31F481E079
:103520004F3F19F403C081E001C080E080FD03C07B
:1035300081E08E2502C080E090E0F82FF170FF2E30
:1035400080FF1CC080915A0120915B0136E08217F8
:1035500009F417C190E0389FF001399FF00D112454
:10356000E45AFE4F6181561306C06081461303C0C2
:103570006281E61203C001968770E9CFFE2CEE202F
:1035800009F421C1809191018160809391015AC019
:10359000561306C0491304C0E11002C0F8019FC0D1
:1035A0004D875E878D859E850E946519882379F1F8
:1035B000EE2069F120919101822F82958F7090E029
:1035C000029774F080918C0190918D0198878F8380
:1035D0001986BB86AA862C87CE0107960E94F7180B
:1035E00086E0F801ACE8B1E001900D928A95E1F730
:1035F0000E94B8190E94AA190DC0561729F14D87CB
:103600005E878D859E850E94651981112CC0C80139
:103610000E94F718FF24F394D6C0282F207F69F763
:103620007A2DB98AA88A6E2D89890E946A198CE838
:1036300091E00E94F71886E0F60111928A95E9F769
:103640000E94AA19F12CBFC04913D9CFE110D7CFDE
:10365000F8018583C8010E94F71886E0F6011192EF
:103660008A95E9F7B0C0EE2091F220919101822F66
:1036700082958F7090E002970CF4B2CF80918C010C
:1036800090918D019A8389831B82BD82AC822E83A7
:10369000CE010196A3CFE83CF10508F047C0FE2C0F
:1036A000EE2009F4B4CF561330C049132EC0209138
:1036B000910120FD21C0822F82958F70482F50E00C
:1036C00041155105C9F0F80125834F30510541F0EE
:1036D0008F5F982F9295907F822F8F70892B858393
:1036E000C8010E94F71886E0F801ACE8B1E001904B
:1036F0000D928A95E1F742C086E0F801ACE8B1E0AE
:1037000001900D928A95E1F75EC04D875E878D85A9
:103710009E850E946519811163CF8091910181601E
:1037200080939101C8010E94F7184DC07A2DB98A83
:10373000A88A6E2D89890E946A1986E0F601119285
:103740008A95E9F71BC0EE2009F461CF4D875E87AB
:103750008D859E850E946519F82E882309F457CF20
:1037600086E0F801ACE8B1E001900D928A95E1F7AE
:103770008CE891E00E94A6150E94B8190E94AA192F
:1037800022C04D875E878D859E850E94521E292FFF
:1037900022952F70223028F49F7039F0811105C0D6
:1037A0000BC0243028F49F7049F4805E883020F0EC
:1037B000C8010E94F7189F2CF92C05C0F8019581CB
:1037C000907F99F7F9CF8F2D61960FB6F894DEBFF1
:1037D0000FBECDBFDF91CF911F910F91FF90EF9062
:1037E000DF90CF90BF90AF909F90089588EC90E0CD
:1037F00008951F93CF93DF93CDB7DEB72C970FB605
:10380000F894DEBF0FBECDBF4F83588769877A8794
:103810008B879C87CE0107960E94241A8823D1F0BB
:103820009F8188852A853B85232B31F08F3F31F49A
:1038300081E09F3F19F403C081E001C080E080FD7A
:1038400047C04F81588569857A858B859C850E9404
:1038500079193EC086E0FE013796DE01119601908F
:103860000D928A95E1F7FF81E8856A857B85611570
:10387000710531F0EF3F31F481E0FF3F19F403C0EF
:1038800081E001C080E080FD23C020915B0130E039
:10389000C90101968770992740915A0150E0841719
:1038A0009507F1F1F983EA837D836C8396E0929F1B
:1038B000D001939FB00D1124A45ABE4FFE01319642
:1038C00001900D929A95E1F780935B010E9489190E
:1038D00016E080915A0190915B01891771F1189F50
:1038E000C0011124845A9E4F0E94241A882329F172
:1038F000E0915A011E9FF0011124E45AFE4F4081CD
:10390000518162817381848195810E9479198091AE
:103910005A0190E001968770992780935A01D9CF78
:103920000E943D1910925B0110925A01ECE8F1E0FF
:1039300086E0DF011D928A95E9F72C960FB6F89480
:10394000DEBF0FBECDBFDF91CF911F9108950895C7
:1039500008950C94A81C0C94A91C0E94AB1C6093A5
:10396000A5017093A6018093A7019093A8010C94E0
:1039700027190C94AD1C0F931F930091A501109172
:10398000A6012091A7013091A801602B712B822BF9
:10399000932B1F910F910C94AD1C0F931F930091CB
:1039A000A5011091A6012091A7013091A8016023E3
:1039B0007123822393231F910F910C94AD1C0F93BD
:1039C0001F930091A5011091A6012091A7013091AC
:1039D000A80160277127822793271F910F910C94CC
:1039E000AD1C0C94A81C0E94F11C6093A101709363
:1039F000A2018093A3019093A4010C94271960E085
:103A000070E0CB010C94F31C0F931F9341E050E046
:103A100060E070E08A019B0104C0000F111F221FAB
:103A2000331F8A95D2F7C901B8011F910F910C94E9
:103A3000F31C0F931F9341E050E060E070E004C07E
:103A4000440F551F661F771F8A95D2F78091A101F9
:103A50009091A201A091A301B091A4018A019B01C0
:103A6000082B192B2A2B3B2BC901B8011F910F9151
:103A70000C94F31C0F931F9341E050E060E070E062
:103A800004C0440F551F661F771F8A95D2F74095D3
:103A90005095609570958091A1019091A201A0919F
:103AA000A301B091A4018A019B01082319232A23B1
:103AB0003B23C901B8011F910F910C94F31C0F9384
:103AC0001F9341E050E060E070E004C0440F551FD8
:103AD000661F771F8A95D2F78091A1019091A2016C
:103AE000A091A301B091A4018A019B010827192785
:103AF0002A273B27C901B8011F910F910C94F31C91
:103B00000F931F930091A1011091A2012091A30195
:103B10003091A401602B712B822B932B1F910F915D
:103B20000C94F31C0F931F930091A1011091A2011B
:103B30002091A3013091A401602371238223932358
:103B40001F910F910C94F31C0F931F930091A101EF
:103B50001091A2012091A3013091A4016027712747
:103B6000822793271F910F910C94F31C0895292FFE
:103B7000220F920F990F890FE82FE695E695E695AB
:103B8000877051E001C0550F8A95EAF785E0E89FFC
:103B9000F0011124EE56FE4F20E030E070E040814D
:103BA000CB01022E02C0969587950A94E2F78170A8
:103BB000819584278523842781932F5F3F4F25306C
:103BC000310569F70895292F220F920F990F890F58
:103BD000682F669566956695982F977085E0689F23
:103BE000B001112440E050E080E0FB01E40FF51F3C
:103BF000EE56FE4F208130E0092E02C03695279503
:103C00000A94E2F721703327042E01C0220F0A9490
:103C1000EAF7822B4F5F5F4F4530510531F708952A
:103C2000BF92CF92DF92EF92FF920F931F93CF93A9
:103C3000DF938C01C090A101D090A201E090A3017C
:103C4000F090A4018091A5019091A601A091A701F7
:103C5000B091A801C82AD92AEA2AFB2ACFE1D0E0EC
:103C6000D701C6010C2E04C0B695A79597958795E8
:103C70000A94D2F780FD04C0219790F7B12C07C0B9
:103C8000BC2EB8018C2F0E94DA040197A9F38B2D6A
:103C9000DF91CF911F910F91FF90EF90DF90CF9028
:103CA000BF900895CF93DF93EC010E94101EBE01D8
:103CB0000E94DA04DF91CF9108951F93CF93DF9391
:103CC000EB0190915901992321F0CB010E94521EE2
:103CD00013C0882349F0CB010E94101E182F682FB3
:103CE000CE010E94B71D04C0CB010E94E31D182F16
:103CF000BE01812F0E94DA04DF91CF911F910895B8
:103D00008091A90185958595859508958091A90152
:103D1000877008959091A901977081E009F480E07F
:103D200008958091B50108959091B501892B8093F4
:103D3000B501089580959091B50189238093B501CF
:103D400008951092B50108959091B401892B809344
:103D5000B401089580959091B40189238093B401B2
:103D600008951092B40108951092B30108958091BE
:103D7000AA01089508950C94BA1E0C94BB1E90914C
:103D8000AA01981721F08093AA010C94BD1E0895F2
:103D90008091AA01882329F01092AA0180E00C9456
:103DA000BD1E0895E0917800F09179008091B501F1
:103DB0008083E0917800F091790090818091B40146
:103DC000892B8083E0917800F09179009081809137
:103DD000B301892B80838091AA01882381F0E0912F
:103DE0007800F09179009081892B80838091780010
:103DF000909179000E94EB1F81110E94C81E809152
:103E00007800909179000C9483140C94BA1E98E079
:103E1000899F90011124262B2093A9010E94191D2E
:103E20008091A9018595859585950C94051F109223
:103E3000A90180E00C94051F2091A901809582239F
:103E40008093A901982F977079F430E0482F082EBD
:103E5000000C550B2417350739F085958595859508
:103E60000E943A1D0C94171F08956FEF7FEF80E0BA
:103E700090E00C94072680E090E00E94E42521E089
:103E80008C3E9E4F09F020E0822F089582E090E062
:103E90000C94D62583E090E00C94D625CF9384E053
:103EA00090E00E94D625C82F81E290E00E94D6259E
:103EB0002C2F30E0A901582BCA01CF910895CF9340
:103EC000C92F682F84E090E00E94EA256C2F81E2E0
:103ED00090E0CF910C94EA2586E090E00C94D625F2
:103EE000682F86E090E00C94EA25AB01BC018FE0DE
:103EF00090E00C94FB25AB01BC0183E190E00C94B5
:103F0000FB2560E070E0CB010C947B1F60E070E06B
:103F1000CB010E94751F0C94811F6CEE7EEF80E038
:103F200090E00E94072660E082E090E00E94EA258F
:103F300060E083E090E00E94EA251092A5011092D3
:103F4000A6011092A7011092A80160E084E090E021
:103F50000E94EA2560E081E290E00E94EA2560E0AC
:103F600085E090E00E94EA2560E086E090E00E9413
:103F7000EA256FEF87E090E00E94EA2540E050E0FC
:103F8000BA0188E090E00E94FB2560E08DE090E0BF
:103F90000E94EA2540E050E0BA0188E190E00E94EA
:103FA000FB2560E087E190E00E94EA2540E050E0D8
:103FB000BA018CE190E00E94FB2560E080E290E095
:103FC0000E94EA250C94861F0C948D1F682F8EE0AA
:103FD00090E00C94EA25FC01329697E080E0915045
:103FE00029F021912223D9F38F5FF9CF0895662319
:103FF00049F0FC01329608962191621729F0E817E2
:10400000F907D1F780E0089581E008959C01FC0153
:1040100032969FEF80E04191461789F09F3F19F457
:10402000411101C0982F8F5F8630A9F79F3F39F06B
:10403000F901E90FF11D97FDFA956283089508953E
:104040009C012A5F3F4FFC014281461301C012824E
:10405000019682179307B9F708950C9406200C94E3
:104060002020029626E0FC0111922A95E9F7089596
:1040700008950C9438200C943820CF930E943B2054
:104080000E940A070E943920C0E08C2F0E94A206DD
:10409000811104C0CF5FC430C1F701C081E0CF916E
:1040A00008958BE083BF8BEB8CBF82E089BF0895BE
:1040B0002FB7F8948091670290916802A0916902ED
:1040C000B0916A022FBF08959C014FB7F894809178
:1040D000670290916802A0916902B0916A024FBF95
:1040E000821B930B089578941F920F920FB60F9234
:1040F00011248F939F93AF93BF9380916702909108
:104100006802A0916902B0916A020196A11DB11DD9
:104110008093670290936802A0936902B0936A0249
:10412000BF91AF919F918F910F900FBE0F901F90F5
:10413000189560E081E090E00E940D2687E090EB0A
:10414000DC018093BD029093BE02A093BF02B093A6
:10415000C0029CE088E10FB6F894A89581BD0FBE1F
:1041600091BDFFCF0C94351F0E940A078FE295E79F
:104170000197F1F700C000000E940A0780E00E944A
:10418000A20680FF04C00E94B2200C9499200895DA
:104190000E943B1F811102C00E94E41F0E94461F23
:1041A0008093B6010E944E1F90936C0280936B0225
:1041B0000E944A1F682F70E080E090E00E94B91CC6
:1041C0006091A1017091A2018091A3019091A4013D
:1041D0000C94F11C0F931F9341E050E060E070E0FD
:1041E0008A019B0104C0000F111F221F331F8A95F3
:1041F000D2F7C901B8010E94B91C1F910F910C940C
:104200003D198B3109F468C058F58B3009F486C02C
:1042100078F4863009F445C020F4853009F44BC0A9
:104220007FC0873009F44AC0883009F477C078C06D
:10423000803109F464C068F48E3009F071C0809157
:10424000B60182FB222720F991E0922790FB82F9A8
:104250004CC0863109F462C0893109F45FC060C086
:104260008A32E1F060F4873209F455C028F48E31C7
:1042700008F456C08D5150C08932E9F051C08334E2
:1042800050F48A3308F045C0853309F444C08833BC
:1042900009F444C045C08334F1F142C00E94E41FD8
:1042A0003DC08091B601817F8E7F8093B60181E011
:1042B0008093B70108950E946F0430C08091B601C9
:1042C000982F9095917090FB80F98093B601911191
:1042D00025C0897F877F10C08091B60181FB22278E
:1042E00020F991E0922790FB81F98093B601992300
:1042F000A9F08091B60181608093B6010FC08091D2
:10430000B60183FB222720F991E0922790FB83F9E5
:10431000ECCF895301C080E00E94EA2081E008953B
:1043200080E0089580E008950C949221CF93C82FE7
:104330008091B701882319F0813031F02BC00E94A1
:10434000911E823249F504C00E94911E823261F4AE
:104350008C2F0E949421811104C08C2F0E94012176
:1043600017C081E090E014C08C2F0E94922181112F
:104370000EC0C43149F018F4CB3049F00FC0C93237
:1043800019F0C83321F00AC01092B70107C081E0CC
:10439000817006C01092B70180E002C080E0F8CFC3
:1043A000CF9108950F931F93CF93DF930E945820CE
:1043B0008C010E94C8140E94C9220E9472140E949B
:1043C000A7248B9A80E0815041F0A895E7EBFBE0B1
:1043D0003197F1F700C00000F6CF8B987894FFEB8F
:1043E00024ED31E0F15020403040E1F700C0000002
:1043F0000E94D214C0E0DCE080919402882331F066
:10440000109294020E9458208C0107C0C8010E949B
:104410006420069788F4C1110FC00E94B0238091D8
:104420009A02882329F08091780284FD0E94DE148C
:104430000E947022C0E0E0CF0E943D20811102C0A6
:10444000C1E0DACFF89491B3939A892F8C6081BB45
:1044500082B38D2782BB8FE5EAEEF0E08150E04029
:10446000F040E1F700C0000082B38D2782BB91BB12
:1044700093987894E5CF8091490208950895CF9359
:10448000DF9300D01F92CDB7DEB79091BA01981399
:1044900007C02091B8013091B9012617370791F074
:1044A0008093BA017093B9016093B80189837B83CB
:1044B0006A838091B10284FF05C063E0CE0101965A
:1044C0000E94AC230F900F900F90DF91CF91089531
:1044D000BC0184E00C943F22BC0183E00C943F2299
:1044E000CF93DF93CAE0D0E08091780284FF18C0B8
:1044F0008091C6019091C7019817E1F028E0829F52
:10450000C001112468E088539E4F0E94A823809127
:10451000C60190E001968F7099278093C6010AC06A
:104520000E94B02387EB9BE00197F1F700C00000E9
:104530002197D1F6DF91CF910895CF93DF93EC01CE
:10454000A091C701B0E0CD0101968F70992720910D
:10455000C601281779F093E0AA0FBB1F9A95E1F7DF
:10456000A853BE4F98E0FE0101900D929A95E1F795
:104570008093C7010E94B0230E94702288E0FE0150
:10458000AEEBB1E001900D928A95E1F7DF91CF910A
:1045900008958AE790E00895FC018081807680325A
:1045A000A1F58181813061F484819581892B69F540
:1045B0008EEB91E0909396028093950288E00895A7
:1045C000823041F488E492E09093960280939502C1
:1045D00081E008958A3021F483818093480215C0D8
:1045E000893099F4828193818115924081F484818C
:1045F0009581892B61F481E08093BD01868197814B
:104600009093BC018093BB0102C080E008958FEFBE
:1046100008952091BB013091BC01232B71F02091B2
:10462000BD01213051F4FC01808180934902109238
:10463000BC011092BB0181E008958FEF08950895A9
:10464000FC0193819330D9F068F4913081F092307D
:1046500009F05AC088E893E09093960280939502FF
:104660008BE30895913251F19232C1F14DC083EC48
:1046700093E0909396028093950282E1089582815F
:10468000813059F038F0823059F08330E9F585ED0A
:1046900093E00EC083EF93E00BC087EE93E002C07F
:1046A0008BED93E090939602809395028AE00895B3
:1046B000909396028093950284E0089582818823E6
:1046C00029F0813009F583EB93E002C08AE993E099
:1046D000909396028093950289E008958481958154
:1046E000009751F0019781F487EF93E09093960241
:1046F0008093950282E3089589E294E09093960274
:104700008093950280E4089580E008951F93CF93ED
:10471000DF93162FEA01288124FF05C0398128E89C
:104720002327298302C02AE52883212FFC01CE01FB
:104730000296DC0131913D9321501216DCF3612F7A
:104740000E9490021C5F1883DF91CF911F91089502
:1047500048E752E00C94862341EB52E00C94862308
:10476000CF93DF9360919702635067FD93C0809170
:104770009302CCE0D0E0C81BD109C556DD4F809133
:104780009202803120F4CE010E941F2381C08D321D
:1047900009F06EC0683009F07BC083EC80936D0235
:1047A0008AE580938500109291028881807621F0BD
:1047B000CE010E94CC2249C09A8110927602898152
:1047C000811106C01092770226E732E082E038C0FD
:1047D000853019F49093980230C08630A1F48B8113
:1047E000813041F0823031F0833021F0813211F09C
:1047F000823221F4CE010E94202301C080E090E4A7
:104800009093910222C0883089F0893019F49093F6
:104810009A0213C08A3069F08B3079F48BE480936C
:1048200079028093B2028093850207C02AE932E0C0
:1048300002C026E732E081E003C026E732E080E0F4
:10484000309396022093950209C08F3F39F49881E6
:1048500097FD8E8190E89093910207C09F819111FE
:1048600004C09E81981708F4892F8093840010C09B
:104870008091910287FF0CC0CE010E9409238F3FD7
:1048800021F48EE18093850003C081111092840091
:10489000109297028091850084FF4CC08091840023
:1048A0008F3F09F447C0C82F893008F0C8E08C1B3F
:1048B0008093840090916D0288E8892780936D022F
:1048C000CC2359F18091950290919602209191020A
:1048D00026FF12C0ADE6B2E02C2FAC014D5652407F
:1048E000FA01EA0FFB1FE4911196EC931197215006
:1048F00011962111F5CF08C0EEE6F2E0DC012C2F75
:104900003D9131932150E1F701962FEF2C0F820F4B
:10491000911D90939602809395026C2F8EE692E003
:104920000E949002CC5FCC3019F08FEF809384000E
:10493000C093850084E190B39C7031F48150D9F725
:104940001092980210929002DF91CF910895CF9328
:10495000DF9385B7886085BF8BB780688BBFC8E75A
:10496000D2E08BE48983A1EBB2E011968C9311978E
:10497000E4E8F2E081838AE588838C938083DF9189
:10498000CF910895DB018F939F930E945A25BF9189
:10499000AF91A29F800D911DA39F900DB29F900D8E
:1049A00011240895991B79E004C0991F961708F007
:1049B000961B881F7A95C9F78095089587FB082E66
:1049C000062687FD819567FD61950E94D2240EF42D
:1049D000919507FC81950895AA1BBB1B51E107C067
:1049E000AA1FBB1FA617B70710F0A61BB70B881F7F
:1049F000991F5A95A9F780959095BC01CD0108950E
:104A000097FB072E16F4009407D077FD09D00E947B
:104A1000EC2407FC05D03EF4909581959F4F0895B6
:104A2000709561957F4F0895A1E21A2EAA1BBB1BBA
:104A3000FD010DC0AA1FBB1FEE1FFF1FA217B3076A
:104A4000E407F50720F0A21BB30BE40BF50B661F80
:104A5000771F881F991F1A9469F760957095809544
:104A600090959B01AC01BD01CF010895EE0FFF1F92
:104A70000590F491E02D09940E944425332312F40B
:104A80008A1B9B0B0C945525A29FB001B39FC001BC
:104A9000A39F700D811D1124911DB29F700D811D6A
:104AA0001124911D08950E944425B7FF0895821B8B
:104AB000930B08950E944425A59F900DB49F900DDF
:104AC000A49F800D911D11240895B7FF0C945A25C1
:104AD0000E945A25821B930B08958F929F92AF924A
:104AE000BF92CF92DF92EF92FF92CF93DF93EC01D0
:104AF000688179818A819B816115710581059105A4
:104B000021F464E279ED8BE597E02DE133EF41E0AC
:104B100050E00E942A2649015A019B01AC01A7EAF4
:104B2000B1E40E945A256B017C01ACEEB4EFA50103
:104B300094010E946825DC01CB018C0D9D1DAE1DEA
:104B4000BF1DB7FF03C00197A109B04888839983AF
:104B5000AA83BB839F77DF91CF91FF90EF90DF9087
:104B6000CF90BF90AF909F908F9008950E946D2539
:104B7000089580E690E00E946D250895A0E0B0E0E1
:104B80008093600090936100A0936200B0936300F3
:104B90000895FC014150504030F001900616D1F7C5
:104BA0003197CF010895882799270895E199FECF7D
:104BB0009FBB8EBBE09A99278DB30895A6E1B0E024
:104BC00044E050E00C941C26A8E1B0E042E050E044
:104BD0000C941C26262FE199FECF9FBB8EBBE09A3A
:104BE00001970DB2021631F02DBB0FB6F894E29A80
:104BF000E19A0FBE08950396272F0E94EB250E948D
:104C0000EA25252F0E94EB25242F0C94EB250196F5
:104C1000272F0E94EB250C94EA25262FE199FECF41
:104C20009FBB8EBB2DBB0FB6F894E29AE19A0FBEE4
:104C300001960895DC01CB01FC01E199FECF06C08D
:104C4000FFBBEEBBE09A31960DB20D924150504041
:104C5000B8F70895052E97FB1EF400940E94412694
:104C600057FD07D00E94142507FC03D04EF40C9486
:104C7000412650954095309521953F4F4F4F5F4FBE
:104C8000089590958095709561957F4F8F4F9F4FB8
:064C90000895F894FFCF27
:104C960001000000010102000500050501191A1BAB
:104CA6001C1D1E1F20212206AB013B229D223E22F7
:104CB6006C226822FF5AE200E900EA00B500B6005D
:104CC600B700CD008301CC008A0192019401210234
:104CD600230224022502260227022A02B300B40078
:104CE6006F007000818283909192939495606162C7
:104CF60063000102020202060606090909090909FA
:104D06000F0F0F0F0F0F1515151819191919191956
:104D1600191919192324252525252525E200E90039
:104D2600EA00B500B600B700CD008301CC008A01C9
:104D3600920194012102230224022502260227025F
:0E4D46002A02B300B4006F0070008182830067
:00000001FF
