:100000000C94BC010C94D9010C94F4010C94D9010A
:100010000C94D9010C9456280C94D9010C94D90154
:100020000C94D9010C9427280C94D9010C94F8272E
:100030000C94D9010C94D9010C94D9010C94D901D8
:100040000C94D9010C94D9010C94D9010C94D901C8
:100050000C94D901D421C021F021C421C621C8218A
:10006000CC21EE21D021D221CE21DC21F621D621B6
:10007000FA21FE2107220022002200220022002273
:100080000022002200220022EC21EA21F821DA21BC
:10009000FC210222C2210022002200220022002292
:1000A0000022002200220022002200220022002240
:1000B0000022002200220022002200220022002230
:1000C00000220022002200220022DE21E621E2217D
:1000D000CA21D821F221002200220022002200227F
:1000E0000022002200220022002200220022002200
:1000F00000220022002200220022002200220022F0
:1001000000220022002200220022E021E821E42136
:10011000F42105010906A101050719E029E71500E9
:1001200025019508750181029501750881039505E2
:1001300075010508190129059102950175039103BF
:100140000507190029FF95067508150026FF00818F
:1001500000C00600FF0901A101150026FF00750877
:10016000850195070900B20201850295830900B255
:100170000201C005010980A1018504150125B719F7
:100180000129B7751095018100C0050C0901A10175
:1001900085031501269C0219012A9C027510950100
:1001A0008100C009023B00020100A0FA090400001E
:1001B000010301010009210101000122400007059E
:1001C0008103080001090401000103000000092166
:1001D0000101000122510007058303080001FEF818
:1001E000F6FB01020408102040800000FC001C32D5
:1001F0002123242B3433433B424B3A31444D152DBC
:100200001B2C3C2A1D22351A161E26252E363D3E55
:1002100046455A76660D294E55545B5D5D4C520E2F
:1002200041494A580506040C030B830A0109780763
:100230007C7E7C706C7D71697A746B7275774A7C98
:100240007B795A69727A6B73746C757D7071612FEA
:10025000001412111F145911270000373F5E481077
:100260003A38302820184D153B34233221502B408A
:100270004B1C43221D0000F1F2370F0810182028F4
:100280003038404850575F6D000081008200830085
:100290008A012102230224022502260227022A02C1
:1002A000B500B600B700CD00E200E900EA00830126
:1002B00092019401000000000000000000009190F5
:1002C000666768696A6B6C6D6E6F70717273858634
:1002D000464800488E8D007172738F006A6B6E6D98
:1002E0006546494A4B4C4D4E52504F5154587172CD
:1002F000737475767778797A7B7C7D7E7F80818256
:10030000838485868788898A8F00494C4A4D4B4E65
:100310006A6E65504F525154003953470004030927
:10032000041C03770069006E006B00650079006CA7
:10033000006500730073002E006B007200120370E2
:100340000073003200610076007200470042001224
:1003500001100100000008A0202D4203010102004D
:100360000145464765666700202B2D2E303132331C
:10037000343536373839680011241FBECFE5D8E050
:10038000DEBFCDBF10E0A0E6B0E0EEE9F8E502C0C8
:1003900005900D92A038B107D9F714E0A0E8B0E0BD
:1003A00001C01D92AA3CB107E1F70E94DF280C941E
:1003B0004D2C0C940000A82FB92F80E090E041E074
:1003C00050EA609530E009C02D9182279795879576
:1003D00010F084279527305EC8F36F5FA8F3089567
:1003E000EADF8D939D930895CF93CFB7CF93C395B5
:1003F000839BE9F7839B0EC0839B0CC0839B0AC041
:10040000839B08C0839B06C0C091A104C395C09381
:10041000A104A3C0DF93C091A004DD27C855DB4F22
:10042000839B02C0DF91E6CF2F930F931F9300B3FE
:100430002FEF03FB20F94F933F9310B34FEF0127AA
:1004400003FB21F93BE031C04E7F012F10B3216047
:1004500028C0102F4D7F2260000000B329C04B7FC1
:100460002460012F000010B32BC010B3477F286019
:100470002AC04F7E00B320612CC04F7D10B3206294
:100480002FC04F7B00B3206432C0422700B3499392
:100490004FEF0000102713FB20F910B31C70C9F1B7
:1004A000297F91F2012703FB21F900B3237F89F211
:1004B000315058F1102713FB22F910B3277E79F23F
:1004C000012703FB23F92F7C81F200B3102713FBD4
:1004D00024F92F7971F200C010B3012703FB25F92D
:1004E0002F7359F200C000B3102713FB26F92230F6
:1004F00040F200C010B3012703FB27F9243028F68F
:100500004F77206810B30000F9CF10E81ABF00271A
:1005100019C03B503195C31BD04010E81ABF088169
:10052000033CF9F00B34E9F020919D041981110F7F
:100530001213EDCF4A81441F093641F10D3211F0FB
:10054000013E29F70093A6043F914F911F910F910F
:100550002F91DF91CAB7C7FD4ACFCF91CFBFCF91BF
:1005600018952091A604222379F31091A404112355
:10057000C1F53430C2F13093A40420939F0410914C
:10058000A0043BE0311B3093A0042DC00091A404D3
:1005900001303CF50AE54F7049F430917D0034FD9F
:1005A00024C000937D00C6E8D4E023C0433049F066
:1005B0003091910434FD19C000939104C2E9D4E054
:1005C00018C03091BE0434FD10C00093BE04CFEBC0
:1005D000D4E00FC02795A8F45150A9F4220F0000D1
:1005E000F9CF4AE503C042ED01C0432FC4E1D0E09A
:1005F00032E011B31C60939A11BB02B320E41CE0FB
:100600005F93012756E002BB279520F4515021F457
:10061000220FF9CF012756E000003B5A02BBD0F26F
:10062000279528F4515029F4220F0000F9CF012713
:1006300056E0279502BB20F4515021F4220FF9CF48
:10064000012756E02991332302BB21F6037F109145
:10065000A504110FC651D04002BB11F010939D04A8
:1006600010E81ABF086011B3137F402F437F5F91DA
:1006700000C000C002BB11BB42BB66CFA89AA99ABA
:1006800086B7846086BF109280000895BC010898E8
:10069000099880EE9EE20E945A2A603130F0862F3F
:1006A00090E0409795958795682F60B9089586B733
:1006B0008F70806A86BF089586B78F70806D86BF01
:1006C0000895FC01108205C080818F5F8083803A8D
:1006D00018F406B607FEF8CF089583B986B78F7071
:1006E000806886BF0895882321F086B78F70806C5C
:1006F00003C086B78F70806886BF089583B1089560
:10070000CF92DF92EF92FF920F931F93DF93CF93DD
:100710000F92CDB7DEB7E82EF62E6A0186B78E7F30
:1007200086BF0E9457038E010F5F1F4FC8010E94B2
:1007300061038981803A08F58E2D8E7F0E946D03BA
:10074000C8010E9461038981803AB8F481B188317F
:1007500059F011E00CC0F60181916F010E946D0308
:10076000C8010E946103FA94FF20A9F710E00E94DB
:100770005C0386B7816086BF01C011E0812F0F90B6
:10078000CF91DF911F910F91FF90EF90DF90CF906D
:100790000895CF92DF92EF92FF920F931F93DF9312
:1007A000CF930F92CDB7DEB7C82ED62E7A0186B77B
:1007B0008E7F86BF0E9457038E010F5F1F4FC801B7
:1007C0000E9461038981803AC8F58C2D81600E9466
:1007D0006D03C8010E9461038981803A78F581B177
:1007E000803491F011E024C081E00E947303812FD6
:1007F000902F0E9461038981803A00F583B1F7014F
:1008000081937F01DA9403C0C801102F092FF1E012
:10081000FD1550F380E00E947303812F902F0E94FA
:1008200061038981803A50F483B1F701808310E03D
:100830000E945C0386B7816086BF01C011E0812FF2
:100840000F90CF91DF911F910F91FF90EF90DF906C
:10085000CF9008950F931F93982FF801442321F010
:10086000222391F484E003C0222371F082E080838C
:10087000662329F080912201892B809322018091A7
:100880002101892B809321011F910F9108952091BF
:100890009D00222309F457C08091A3009091A400E9
:1008A00001969093A4008093A300853691050CF4E3
:1008B00052C0213011F02330E1F480912101982FB2
:1008C00080FF07C08091220180FF02C0909A01C082
:1008D000909891FF07C08091220181FF02C0919AF8
:1008E00001C0919896FF27C08091220186FF20C009
:1008F00021C0243011F02230F1F480912101982F91
:1009000080FF07C08091220180FF02C0909801C043
:10091000909A91FF07C08091220181FF02C09198B7
:1009200001C0919A96FF07C08091220186FF02C004
:10093000969801C0969A1092A4001092A30021509C
:1009400020939D000895109222011092210110928F
:10095000A4001092A3000895662361F0813011F481
:10096000909A0895823011F4919A0895843069F430
:10097000969A0895813011F490980895823011F478
:1009800091980895843009F496980895CF93DF9351
:10099000FC01809168008183809184008283809132
:1009A000090190910A0163E070E00E945A2A638372
:1009B000EF012496A2E1B1E083E00D90099281500D
:1009C000E1F7EF012796A5E1B1E083E00D900992F0
:1009D0008150E1F7EF012A96A8E1B1E083E00D90A4
:1009E00009928150E1F784EF90E09F01235F3F4F30
:1009F000E901DC0143E00D9009924150E1F70396D3
:100A00002D5F3F4F41E08930940791F7809181003D
:100A100082A3EF01A396ABE1B1E083E00D900992D0
:100A20008150E1F78091890086A38091690087A3B6
:100A30008091880080A78091670081A7DF01D09610
:100A4000E5EAF0E083E001900D928150E1F7DF915B
:100A5000CF910895809181008F5F809381008330D2
:100A600011F4109281008091820081608093820055
:100A700008950F931F93CF93DF930091100110916E
:100A800011018091090190910A018017910738F0B6
:100A9000C0910E01D0910F01C017D10721F48FEF43
:100AA0008093AB0018C0BE01681B790B80E090E01A
:100AB0002DEC30E040E050E00E942F2AC01BD10B0B
:100AC0009E01442737FD4095542F0E94812A2E5CB9
:100AD0003F4F2093AB00DF91CF911F910F9108956D
:100AE00020910B0130910C018091090190910A0134
:100AF0002817390720F430930A012093090108953B
:100B0000882309F448C0809368008F3F11F48CE07B
:100B100003C0893118F088E1809368002091680053
:100B20008CEC95E1622F70E00E946E2A70930F01A9
:100B300060930E0132E06B3F730734F08AEF92E06E
:100B400090930F0180930E018EE898E0622F70E081
:100B50000E946E2A709311016093100122E06B3F96
:100B6000720734F08AEF92E09093110180931001A4
:100B700080917F00882329F48091100190911101C8
:100B800004C080910E0190910F0190930C0180930D
:100B90000B010E94700508951092830008958093C0
:100BA0009E00089580919E0008952091670030E096
:100BB000AC01429FC001439F900D529F900D1124A4
:100BC0006FEF70E00E945A2A8091AB00482F50E0EE
:100BD0009B014617570708F49A01C90108958F929F
:100BE0009F92AF92BF92CF92DF92EF92FF920F93BC
:100BF0001F93CF93DF93EC0129819880822F90E09F
:100C0000890D911D8A80880D911D60910901709157
:100C10000A016817790760F57B0100E010E05C01CC
:100C2000CC24DD2430E040E050E0C801B7010E9450
:100C30002F2AA60195010E94812A2983692D70E03F
:100C400080E090E0A80197010E942F2AA60195015B
:100C50000E94812A2883682D70E080E090E0A8013E
:100C600097010E942F2AA60195010E94812A2A83BA
:100C70009981933050F08881981739F48A819817B8
:100C800021F49150988391509A83DF91CF911F91D5
:100C90000F91FF90EF90DF90CF90BF90AF909F901B
:100CA0008F90089580919C008F5F80939C00873087
:100CB00010F010929C000895FC018081873010F0A4
:100CC0008750808308950F931F93CF93DF93EC0198
:100CD0000E945C060091680010E019C02881822FF4
:100CE00090E0FC01EE0FFF1FE80FF91FEC50FF4FE3
:100CF0008181882371F48081882359F4828188233B
:100D000041F42F5F2883CE010E945C061F5F1017FD
:100D100028F3DF91CF911F910F9108951F93FC014C
:100D2000DB011081E12FF0E05C91252F30E0642F92
:100D300070E0CB01820F931F8E179F0714F4540F9E
:100D400006C0261B370BE217F3071CF4541B5C93F9
:100D500001C01C931F91089581E080939400089531
:100D60009C0180918500882319F4C9010E94F52710
:100D7000089590918800913029F410928B00109280
:100D80008A000895923029F48FEF90E00E94D505F3
:100D90001BC0892F83508230A8F483E080938F009A
:100DA000943019F481E080938F0080918F009FEF41
:100DB000899FC00111246CE070E00E946E2A60934C
:100DC0008E00089580E090E00E94B0060895809122
:100DD0008800823011F40E94B90608950E943905F6
:100DE000809184008250833018F482E080939B00CD
:100DF0000E94E706809187008460809387000895B1
:100E00008130A1F4809167008E3181F18951809306
:100E100067008E3118F48EE1809367000E94E70628
:100E20008091870082608093870008958230F1F47A
:100E30008091090190910A018536910518F482E3A9
:100E400090E002C08456904090930A01809309017B
:100E50008091090190910A01C29730F482E390E0F9
:100E600090930A01809309010E94EE060895813053
:100E7000A9F4809167008F3F09F190E049968F3F78
:100E8000910511F00CF08FEF809367000E94E70648
:100E9000809187008260809387000895823071F48A
:100EA0008091090190910A018C599F4F90930A01FA
:100EB000809309010E9470050E94EE06089580E06B
:100EC00090E00E94B006949881E080938600809321
:100ED000850008959098919896980E945F070895CC
:100EE0000F931F93082F122F0E94361F8823D1F5CE
:100EF000809185008823B1F5112389F12091880024
:100F0000233008F184EF91E090938D0080938C0062
:100F100080918F008C3030F4233011F48F5F05C046
:100F2000882329F0243019F4815080938F00809118
:100F30008F009FEF899FC00111246CE070E00E9438
:100F40005A2A60938E0080918400882359F0053FCF
:100F500049F081E080939A0080939B0003C082E077
:100F600080939A001F910F910895FF920F931F9302
:100F70006091680083E0689F602D1124F62EF6943E
:100F80006F1960930D010CEA10E080EBA8010E943C
:100F9000800380910D01080F111D88EB6F2DA801B2
:100FA0000E94800310920D011F910F91FF900895F0
:100FB0000F931F93CF93DF938C01909168004CEABD
:100FC00050E083E0989FB0011124EB01C40FD51FBE
:100FD00009C0DA01F80183E001900D928150E1F738
:100FE0004D5F5F4F4C175D07A1F760930D010E94A5
:100FF000B507DF91CF911F910F9108951092AD0029
:101000001092AC001092AE0010921F0110921E01BF
:10101000109220011092A900E9EAF0E012921092D9
:10102000AA00CF010E94D8070895DF93CF9300D084
:101030000F92CDB7DEB769837A838B83CE01019699
:101040000E94EF0590911F018A81981751F49091A9
:101050001E018981981729F4909120018B8198179E
:1010600069F0AEE1B1E0FE01319683E001900D92AE
:101070008150E1F7CE0101960E94D8070F900F90A2
:101080000F90CF91DF910895FF920F931F93CF930D
:10109000DF9310929800F0906800CCEAD0E083E0F3
:1010A000F89E800111240C0F1D1F1DC088E990E0DF
:1010B0000E9463068091980090E0FC01EE0FFF1FF4
:1010C000E80FF91FDE01EC50FF4F83E001900D9215
:1010D0008150E1F7CE010E94EF05809198008F5F6B
:1010E000809398002396C017D10701F78F2D90E0C9
:1010F000FC01EE0FFF1FE80FF91FA8EAB0E0E4556E
:10110000FF4F83E001900D928150E1F70E94B507F7
:10111000DF91CF911F910F91FF900895FF920F9350
:101120001F93DF93CF930F92CDB7DEB7F62E042F28
:101130001982813041F582B3862B82BB40E08091D9
:101140009E00802309F041E020E080919F008023F1
:1011500009F021E08F2D61E08E010F5F1F4F0E948B
:101160002A048981882309F0BAC00E94D522182F49
:101170000E94D82240E0111141E020E0811121E0DD
:101180008F2D61E0A7C0823051F582B3962F9095E4
:10119000982392BB40E080919E00802309F041E0BB
:1011A00020E080919F00802309F021E08F2D60E0F6
:1011B0008E010F5F1F4F0E942A048981882309F046
:1011C0008EC00E94D522182F0E94D82240E0111113
:1011D00041E020E0811121E08F2D60E07BC0882379
:1011E000A9F410919E00142319F082B3862B04C039
:1011F00092B3862F8095892382BB0E94D522082F27
:101200000E94D82260E01123C1F016C08330D1F4CF
:1012100010919E00142329F092B3862F8095892384
:1012200002C082B3862B82BB0E94D522082F0E9467
:10123000D82260E0112309F461E040E0011141E0AF
:1012400020E045C0843091F40E94D522823019F408
:1012500082B38F2904C092B38F2D8095892382BBDE
:101260000E94D52260E0823041F526C0853091F49D
:101270000E94D522833019F482B38F2904C092B31F
:101280008F2D8095892382BB0E94D52260E0833018
:10129000A1F412C0863019F50E94D522882319F0D6
:1012A00082B38F2904C092B38F2D8095892382BB8E
:1012B0000E94D52260E0811161E040E080919E00B3
:1012C000802309F041E020E080919F00802381117C
:1012D00021E08F2D8E010F5F1F4F0E942A0489810C
:1012E0000F90CF91DF911F910F91FF900895809102
:1012F000A50061E041E00E948E08882311F08093F0
:101300009D008091A60062E042E00E948E08882342
:1013100011F080939D008091A70060E444E00E945A
:101320008E08882311F080939D0080919E00809309
:101330009F000895882371F080E00E94AD2789B74F
:101340008B7F89BF80E090E00E94B00694980E9455
:10135000EE2708950E94B2270E94E7278091880017
:10136000823011F40E94B906089580917F0088238D
:1013700031F480918400811181E00E949A0981E01A
:10138000809396000895CF92DF92EF92FF920F9391
:101390001F93CF93DF9380918500882309F09AC033
:1013A00020918800213009F046C0809190009091F2
:1013B000910001969093910080939000089709F016
:1013C00089C0109291001092900080918A00882329
:1013D00031F480918B0090E00E94D5050AC08230E4
:1013E00061F420918B008FEF90E0821B91090E94A5
:1013F000D50590E00E94B00609C0813011F083301D
:1014000029F480918B008F5F80938B0080918B00FB
:101410008F3F69F410928B0080918A008F5F8093D8
:101420008A00843008F456C010928A0053C08F5F3F
:1014300080938B004FC0822F8350823008F04AC0C7
:1014400080918C0090918D001816190634F4019744
:1014500090938D0080938C0035C0233029F48091C7
:101460008E00882339F426C0243039F580918E000F
:101470008F3F19F180918B008F5F80938B008830B4
:1014800008F110928B0080918E00233011F481506E
:1014900001C08F5F80938E0020918E008FEF90E0CF
:1014A000821B91096BEE7FEF0E946E2A645F60934E
:1014B0008F0008C010928F0003C08CE080938F00D3
:1014C00010928B0080918E0090E00E94D50590E0F4
:1014D0000E94B006809192009091930001969093A3
:1014E000930080939200889708F48CC21092930026
:1014F0001092920080919400882369F00E94FE0768
:101500008B9A28E088E190E00FB6F894A89581BD09
:101510000FBE21BDFFCF80919500882379F00E94F6
:10152000FE07809195000E9480050E9439050E9467
:10153000B9060E94B5091092950064C28091860098
:10154000882329F0109286000E94FE075BC28091DA
:101550008500882309F056C280919600882309F4FB
:101560004FC01092960080918400813079F40E94DF
:1015700039051092970010929800109299001092DD
:101580001F0110921E011092200137C0823061F4B9
:101590000E943905A8EAB0E0E2E1F1E083E00190C1
:1015A0000D928150E1F71BC0833061F40E94390530
:1015B000A8EAB0E0E5E1F1E083E001900D9281500E
:1015C000E1F70DC08430A1F40E943905A8EAB0E02B
:1015D000E8E1F1E083E001900D928150E1F7609144
:1015E000A8007091A9008091AA000E94150805C06A
:1015F0000E94FE078FEF8093AB000E94E70602C2B5
:1016000080919A00813009F041C010929A00809137
:1016100081008130B9F4ACEAB0E0EBE1F1E083E0C5
:1016200001900D928150E1F78CEA90E00E94EF0565
:10163000AEE1B1E0ECEAF0E083E001900D92815080
:10164000E1F71FC0823009F046C08091A800809564
:101650008093AC008091A90080958093AD0080912B
:10166000AA0080958093AE008CEA90E00E94EF057E
:10167000AEE1B1E0ECEAF0E083E001900D92815040
:10168000E1F78CEA90E00E94D80725C0823019F576
:1016900010929A0080919B008130B1F48091840077
:1016A000813049F480918900833019F40E94440804
:1016B0000FC0843069F06091A8007091A9008091FA
:1016C000AA000E94150804C0823011F40E94B509D6
:1016D00010929B0097C180919B00813009F492C1C8
:1016E00080918400813009F08DC180918900813022
:1016F00039F580919700909169008F5F80939700F2
:101700008150891708F47EC11092970080919C0047
:1017100090E0FC01EE0FFF1FE80FF91FA8EAB0E010
:10172000EC50FF4F83E001900D928150E1F7609102
:10173000A8007091A9008091AA000E94150860C1BC
:10174000823009F07AC090919800809168009817D3
:1017500008F03FC000E013E031C0802F90E0201778
:1017600078F4FC01EE0FFF1FE80FF91FE455FF4F5F
:10177000A8EAB0E083E00D9001928150E1F71DC02E
:10178000DC01AA0FBB1FA80FB91F80919C0090E03D
:10179000FC01EE0FFF1FE80FF91FA455BF4FEC50DF
:1017A000FF4F83E001900D928150E1F7019FC0014E
:1017B000112484559F4F0E94EF050F5F80916800B0
:1017C00020919800081748F22F5F209398000E94FC
:1017D000B50790919800809168009817C1F49F5FB9
:1017E0009093980080919C0090E0FC01EE0FFF1F09
:1017F000E80FF91FA8EAB0E0EC50FF4F83E001903A
:101800000D928150E1F788EA90E00E94EF059091F7
:10181000980080916800891708F0F4C080919900C1
:101820008F5F8093990090916900891708F4EAC04E
:101830001092990010929800E3C0833059F480917F
:1018400097008F5F80939700815009F0DBC00E9462
:101850004408D8C09091690020919C00843009F020
:1018600081C0209398008FE0989FC001112466E00A
:101870007FEF0E946E2A7B0184E190E0E80EF91E62
:10188000DD2413E0C12E3DC088E990E00E9463068C
:10189000809198008C9DC00111248E01000F111FB2
:1018A0000C0F1D1FB80163557F4F8B509F4F4E2D5E
:1018B0000E948E06809198008C9DC0011124B80171
:1018C00064557F4F8C509F4F4E2D0E948E06809105
:1018D00098008C9DC001112402551F4F8A509F4FC4
:1018E000B8014E2D0E948E06DC9CC0011124845547
:1018F0009F4F0E94EF05809198008F5F8093980022
:10190000D39480916800CD2DD0E0D81608F4BCCFD8
:10191000FE01EE0FFF1FEC0FFD1FA8EAB0E0E4553B
:10192000FF4F83E001900D928150E1F70E94B507CF
:10193000209199002E0D2093990030E08FEF90E0D8
:101940008E199F092817390708F45CC01092990076
:1019500080919C008F5F80939C008CE990E00E94B6
:10196000630650C0892F90E06BEF7FEF0E946E2AD4
:101970008B010D5C1F4F73E0F72E2F9DC0011124CA
:101980008B509F4F69EA70E0402F0E948E06809135
:101990009C008F9DC00111248C509F4F68EA70E01D
:1019A000402F0E948E0680919C008F9DC0011124C3
:1019B0008A509F4F6AEA70E0402F0E948E06609125
:1019C000A8007091A9008091AA000E94150880913A
:1019D0009C0090E0FC01EE0FFF1FE80FF91FEC5098
:1019E000FF4F91818091A900981761F490818091B7
:1019F000A800981739F492818091AA00981711F4E1
:101A00000E945206DF91CF911F910F91FF90EF90AE
:101A1000DF90CF900895109285000E9477090E9470
:101A2000B9060E94B5090895109285000E94B90672
:101A30000E94B5090895109287001092820089E0F3
:101A400090E00E94072C809367008BE090E00E945A
:101A5000072C8F70809388008F3011F410928800CB
:101A60008BE090E00E94072C82958F708093840019
:101A70008F3011F41092840082E191E06AE871E005
:101A800043E050E00E94F72B85E191E06DE871E0C2
:101A900043E050E00E94F72B88E191E060E971E0BB
:101AA00043E050E00E94F72B84EF90E065E771E09F
:101AB00045E150E00E94F72B85E090E00E94072C62
:101AC0008093890082E090E00E94072C90E08F3F95
:101AD000910519F42DEE30E005C09C01220F331F53
:101AE000280F391F30930A012093090184E090E008
:101AF0000E94072C0E94800583E090E00E94072C42
:101B00008F70809381008F3011F4109281008BE1EF
:101B100091E065EE73E043E050E00E94F72B83E92B
:101B200091E00E94072C809369008F3F11F488E7B1
:101B300003C08B3F18F08AEF8093690085EA90E03C
:101B400064E971E043E050E00E94F72B8091A5002A
:101B50008F3F11F41092A5008091A6008F3F11F4E1
:101B60001092A6008091A7008F3F11F41092A70059
:101B70000E9439050E94B9060E94B5090895809314
:101B80008400853010F010928400662329F41092AE
:101B90009B000E94B50903C082E080939B00809166
:101BA000870081608093870008951F93182F0E94FB
:101BB000361F8823E1F4113089F4809188008F5F0B
:101BC00080938800853011F4109288000E94B90635
:101BD0008091870081608093870009C0123039F4BA
:101BE000809184008F5F609181000E94BF0D1F91E2
:101BF00008950F931F93082F162F0E94831E112301
:101C000059F0093349F48230A1F0803291F08130EB
:101C100069F0803119F40AC00D3F11F481E00AC067
:101C2000013F59F4813011F0803119F40E942A05E6
:101C30001DC082E00E94D50D19C00A3F51F48230C8
:101C400011F0803211F482E001C081E00E94370778
:101C50000DC0093F11F081E00AC0823011F08032DE
:101C600011F482E001C081E00E94000780E01F9132
:101C70000F910895CF93DF93DC0111968C9111970A
:101C80008F3119F41092A0000EC1803109F043C0C9
:101C90009091A000892F8150833038F5892F90E0F2
:101CA0000197FC01EE0FFF1FE80FF91FEE0FFF1F5A
:101CB000EC50FF4FED01229683E009900192815094
:101CC000E1F78091A00090E0880F991F0197FC0137
:101CD000EE0FFF1FE80FF91FEC50FF4F159683E042
:101CE0000D9001928150E1F710C0943071F4C6E07C
:101CF000D1E0FD01329683E0019009928150E1F735
:101D0000809187008068809387008091A0008F5F1A
:101D10008093A000C8C0813169F4C2E1D1E0FD0127
:101D2000329683E0019009928150E1F7809187001B
:101D300080610EC0823189F4C5E1D1E0FD013296A7
:101D400083E0019009928150E1F7809187008062E1
:101D5000809387000E94B509A6C0833169F4C8E169
:101D6000D1E0FD01329683E0019009928150E1F7C4
:101D7000809187008064ECCF813A69F4CBE1D1E0B7
:101D8000FD01329683E0019009928150E1F7809144
:101D90008200826086C0803231F412968C9160E0BD
:101DA0000E94BF0D80C08034B9F412968C9123E05C
:101DB000829FC001112490930A0180930901892B0D
:101DC00031F483E090E090930A01809309010E942E
:101DD00070050E94EE06BECF813241F412968C91BE
:101DE000809381008091820081605BC0833281F4A6
:101DF00012968C918093890010929700109298000F
:101E000010929C001092990080918200846049C0D9
:101E1000803341F412968C918093950080918700D5
:101E2000886019C0803861F412968C918093880084
:101E3000809187008160809387000E94B90633C03B
:101E4000813861F412968C91809367000E94E706B6
:101E50008091870082608093870025C0843841F498
:101E600012968C918093690080918200886019C0DD
:101E7000853829F412968C918093A5000DC0863880
:101E800029F412968C918093A60006C0873859F4E5
:101E900012968C918093A7000E947709809182000E
:101EA000806180938200DF91CF91089580918300BB
:101EB0008823A9F481E08093830088E00E94DE27D4
:101EC00080918400882321F080917F00813011F47B
:101ED00080E001C081E00E949A090E941B0D0895D4
:101EE00081B3836581BB82B38C7A82BB0E943E033F
:101EF00080E991E00E9446030895CF93DF93EC01BF
:101F00008091A5008130E1F0882329F480919E0022
:101F100080FD16C00DC0833029F480919E0080FFA3
:101F20000FC006C0843021F40E94D522823041F0D7
:101F30008091A500853031F40E94D522833011F4C0
:101F4000909801C0909A8091A6008130E1F088239A
:101F500029F480919E0081FD16C00DC0833029F4C4
:101F600080919E0081FF0FC006C0843021F40E9442
:101F7000D522823041F08091A600853031F40E9454
:101F8000D522833011F4919801C0919ACE010E941C
:101F9000AD208091A5008130E1F0882329F4809163
:101FA0009E0080FD16C00DC0833029F480919E00F4
:101FB00080FF0FC006C0843021F40E94D5228230F9
:101FC00041F08091A500853031F40E94D522833004
:101FD00011F4909A01C090988091A6008130E1F0B0
:101FE000882329F480919E0081FF0EC015C08330A4
:101FF00029F480919E0081FD07C00EC0843021F439
:102000000E94D522823041F08091A600853031F4C3
:102010000E94D522833011F4919A01C09198DF91EA
:10202000CF9108950E949C228823E1F08091A10025
:102030009091A20001969093A2008093A1008558F0
:1020400093409CF090916A00913011F4919801C0F6
:10205000919A1092A2001092A10081E0982790938B
:102060006A00089581E080936A000895809183005A
:10207000882309F486C00E94361F882341F080918E
:102080008600882309F47DC00E94C30908950E9438
:1020900012100E94470480918700882329F48091C0
:1020A0008200882309F46BC0609184006295607F90
:1020B000809188008F70682B8BE090E00E941F2C2D
:1020C00089E090E0609167000E941F2C80910901D7
:1020D00090910A0163E070E00E945A2A82E090E049
:1020E0000E941F2C84E090E0609168000E941F2CE9
:1020F00082E191E06AE871E043E050E00E940F2C39
:1021000085E191E06DE871E043E050E00E940F2C22
:1021100088E191E060E971E043E050E00E940F2C1B
:1021200084EF90E065E771E045E150E00E940F2CFC
:1021300085E090E0609189000E941F2C60918100F1
:102140006F7083E090E00E941F2C8BE191E065EEC0
:1021500073E043E050E00E940F2C83E991E060912E
:1021600069000E941F2C85EA90E064E971E043E079
:1021700050E00E940F2C10928700109282000E9463
:10218000C30908950F931F938C010E94C6040E94F7
:10219000D223F80182A70E94DB22F80183A781E005
:1021A00084A783E085A786A782E087A70E94852869
:1021B000F80183AB0E948A19F80184AB85E3808320
:1021C0001F910F910895CF93DF93EC010E943A0E77
:1021D0008981823841F490E08A81811191E0892FD0
:1021E0000E94D5230BC0883821F48A810E94882858
:1021F00005C0893819F48A810E94A81ADF91CF910D
:102200000895FC018381813261F08232D9F08230FD
:1022100081F583EA91E09093A3048093A2048BE379
:1022200008958281882319F0813019F503C085EB68
:1022300091E002C08EEC91E09093A3048093A204FD
:1022400089E0089584819581009719F0019789F4B8
:1022500008C082E191E09093A3048093A20480E4FB
:10226000089582E591E09093A3048093A20481E510
:10227000089580E00895DF92EF92FF920F931F93ED
:10228000D62EE090A204F090A304062F10E0B70130
:10229000A8010E94F72B0E0D1F1D1093A30400939D
:1022A000A2048D2D1F910F91FF90EF90DF90089564
:1022B0001F939C01162F80912501882329F01092ED
:1022C000250112502E5F3F4F60912601709127012A
:1022D00043E0653E7407BCF4CB01810F911D865E1F
:1022E000934014F015EE161BC901412F50E00E94D7
:1022F0000F2C8091260190912701810F911D9093C1
:102300002701809326011F910895FC0180912401EB
:10231000813041F4613061F580810E943526109250
:10232000240126C08230C9F48181882369F4683091
:10233000B1F482818F3F29F481E090E060E00E9457
:10234000302C0E94351414C0813049F482818130D0
:1023500009F080E00E94C0220BC0843021F4CF013C
:102360000E94E31005C0853019F4CF010E94581176
:1023700081E008950F931F93CF93DF93EC010E94A8
:102380000C2488818076803209F00EC109810130E9
:1023900009F0AEC08A819B8122E08030920741F42F
:1023A00087E794E09093A3048093A20488E0FDC0A3
:1023B00043E08230940789F42E813F81253831052E
:1023C00019F400935E01F0C0C901845B90400C9742
:1023D00008F0EAC020935E01E7C08150934009F005
:1023E000E3C02E813F812436310559F409E211E022
:1023F000C8010E94C2101093A3040093A20485E3B5
:10240000D4C025363105B1F40E949C22882331F0D6
:1024100080E00E94C0221092280105C081E00E9445
:10242000C0220093280188E291E09093A304809356
:10243000A204B8C0C901895790400497A8F480E469
:1024400080939E0488E790E0AC01249FC001259F03
:10245000900D349F900D1124885B924D9093A304AE
:102460008093A20488E7A1C0C901885A90400C97C4
:10247000A8F480E480939E0488EA90E0AC01249F55
:10248000C001259F900D349F900D112480549640DB
:102490009093A3048093A20488EA87C0263931056B
:1024A00059F480E480939E0480E895E69093A30419
:1024B0008093A20480E879C0C901845B90400C97A6
:1024C000A8F480E880939E0480E390E0AC01249F10
:1024D000C001259F900D349F900D11248B51904287
:1024E0009093A3048093A20480E35FC0822F5DC019
:1024F0000930D9F58A819B8152E08030950739F403
:102500008C819D81892B09F04FC081E02AC023E096
:102510008230920711F590915E01913039F48FE18C
:102520008983CE010E94E31084E012C0892F845B6E
:102530008C3080F481E08093250180E3989FC00176
:1025400011248B519042909327018093260185E0BE
:102550008093240110925E0106C08150934021F5C2
:1025600082E0809324018FEF20C0023019F4809123
:10257000230114C00A3031F40E9410248B8180930F
:10258000230112C0033031F48B81882369F4109247
:102590006B000BC00B3041F480916B008093A20460
:1025A0001092A30481E001C080E0DF91CF911F91E0
:1025B0000F910895813011F090E006C090E06130F5
:1025C00009F091E081E09827892F089521E030E01B
:1025D00002C0220F331F8A95E2F727BB209528BB44
:1025E00084E18A95F1F70895282F883058F449B38B
:1025F00081E090E002C0880F991F2A95E2F740958C
:10260000482318C08E3078F443B38FE090E0821BEB
:10261000910921E030E002C0220F331F8A95E2F7D2
:102620004095422307C08E3011F040E003C040B314
:1026300040954078842F0895FF920F931F93DF9366
:10264000CF9300D00F92CDB7DEB719821A82FF2444
:10265000FA94FB8280E463E08E010F5F1F4FA801B4
:102660000E9480038823A1F48CE089831A82FB8274
:1026700080E463E0A8010E948003882349F484E198
:102680008983FA82FB8280E463E0A8010E948003D0
:102690000F900F900F90CF91DF911F910F91FF90AE
:1026A00008952F923F924F925F926F927F928F92F6
:1026B0009F92AF92BF92CF92DF92EF92FF920F93D1
:1026C0001F93DF93CF9300D000D0CDB7DEB72C019E
:1026D0004B01EE24FF2431E0632E712CAA24A39435
:1026E0008E2D0E94E612C3010E2C02C0880F991F86
:1026F0000A94E2F7C82EB82EB0948201DD248D2D05
:102700000E94F412282FD8019C918C2D892319F056
:10271000222339F00BC0222349F09C29F801908331
:1027200003C09B21D8019C93F401A082D3940F5F36
:102730001F4FF8E0DF1619F70894E11CF11C88E040
:10274000E816F10469F60E941C13882309F060C0A2
:10275000EE24FF2422E1222E91E0A92EB12C82E06A
:10276000682E712C6C0E7D1E332433946E010894F8
:10277000C11CD11C2A8285010E2C02C0000F111F22
:102780000A94E2F7802F80958B8380E462E0A301B6
:102790000E94800380E461E0A6010E94C903F20167
:1027A00020E030E0502F5095898190E08095909501
:1027B000022E02C0959587950A94E2F7482F417042
:1027C0009085802F892319F0442329F008C04423E1
:1027D00031F0902B01C095239087D4013C922F5F5C
:1027E0003F4F319627303105F9F60894E11CF11C72
:1027F000B8E0EB16F10409F0BDCF82E18A838FEFD8
:102800008B8380E462E0AE014E5F5F4F0E948003E5
:102810000F900F900F900F90CF91DF911F910F911C
:10282000FF90EF90DF90CF90BF90AF909F908F90F0
:102830007F906F905F904F903F902F9008958FEF13
:1028400087BB88BB1ABA94B39B7B94BB8F988BBB16
:1028500085B38C6F85BB979A0E943E0380E991E017
:102860000E9446030E941C1308950E94AC0608951E
:102870008A98929A089592988A9A08958B98939A32
:10288000089593988B9A089580936001F8948091AD
:1028900080048F7E80938004809180048860809380
:1028A000800478940895F894809180048B7F8093BD
:1028B0008004789480915F0108958091800490E075
:1028C0009695879596958795817008958091800457
:1028D00090E034E0969587953A95E1F781700895F8
:1028E0008FEC82BF80917F04833000F50E943E14FC
:1028F0008091800480FF23C0829BA3C080917F04CD
:10290000813031F0813040F0823009F0F6C006C0ED
:10291000839902C08DE096C082E094C080918004CB
:1029200083FFEBC00E94411484E28CC080917F043D
:102930008A3108F079C08091800480FD08C08091C0
:1029400080048160809380040E9438140895829BE3
:1029500076C080917F04873140F4803118F58D3046
:1029600061F08F3009F055C00CC08831E1F1883139
:1029700058F1893109F04DC049C0809180048D7FA4
:102980004DC0809180048B7F80938004839B05C021
:1029900080E880935F0181E014C010926201109280
:1029A0005F0137C080915F01869580935F01839BB3
:1029B00030C080915F01806880935F0180916201E7
:1029C0008F5F8093620125C0839B05C08091620167
:1029D0008F5F809362018091620180FD1AC08091B7
:1029E0008004826010C0839905C080918004826059
:1029F000809380048091800481FD0BC00E9441146B
:102A00008091800484608093800403C00E943E14FF
:102A10006CC00E943B14809180048E7F8093800460
:102A200080917F048F5F0EC080917F048F3208F009
:102A300064C08091800480FF10C0829906C00E940B
:102A40003E1481E080937F040895809180048E7FFE
:102A5000809380040E943B140895809180048160DB
:102A6000809380040E94381480917F048C3228F473
:102A7000853280F48432E1F507C08D3299F18D32D0
:102A8000E8F08E32A9F531C0809160018093610138
:102A9000109262018091610180FF08C00E943E1483
:102AA000809162018F5F8093620102C00E94411495
:102AB000809161018695809361011AC080916201C5
:102AC00080FF03C00E94411402C00E943E14809106
:102AD0008004877F8093800480918004806180934C
:102AE000800406C00E943E1403C010927F04089523
:102AF00080917F048F5F80937F04089510927F04FC
:102B000081E1809380040E9438140E943E1482E088
:102B10000E94A02780E060E774E10E94C8278FEC44
:102B200082BF89B7816089BF0895282F8F3F31F414
:102B30001092660181E080936B0108958E3F21F031
:102B40008D3F29F41092660110926B0108958091D7
:102B50006B01882351F080916601E82FF0E0E75C7B
:102B6000FD4F20838F5F8093660180916701909174
:102B7000680101969093680180936701883C9105F4
:102B800024F0109268011092670180916901909180
:102B90006A01E0916701F09168018E179F0759F46F
:102BA000009719F487EC90E001C0019790936801B9
:102BB000809367010895E059FE4F2083089540E017
:102BC0002091690130916A018091670190916801BB
:102BD0002817390709F441E0842F089510926A01FB
:102BE00010926901109268011092670110926601BB
:102BF00010926C011092430210924402109245020E
:102C0000109246020895282F882339F08CEF90E027
:102C100090936E0180936D0102C010926501209324
:102C20006F0108950E94DF1590E0882309F491E078
:102C3000892F0895FF920F931F93182F882309F46B
:102C4000A0C08D3B08F09DC0A82FB0E0FD01E6516B
:102C5000FE4F0491662309F463C0809338021092FA
:102C600043021092440210924502109246021092C2
:102C70008304A95BBD4F8C91F82E81FF2DC01634C3
:102C800019F01834F1F50EC08FEF0E94951580EE03
:102C90000E94951582E10E94951580EE0E9495157F
:102CA0008CE727C08DEF0E94951581EE0E94951547
:102CB00084E10E94951587E70E94951581EE0E9498
:102CC000951580EF0E94951584E10E94951580EF7F
:102CD0000E94951587E710C082FF02C0802F0CC0AC
:102CE0008FEF0E949515F0FE03C080EE0E949515AF
:102CF000802F0E9495158EEF0E9495158CEF0E94F3
:102D00009515F5FE40C0809165018823E1F581E0CD
:102D100080936501173411F40E94831E8BEF2EC03F
:102D200080913802811711F410926601E12FF0E0D2
:102D3000E95BFD4F808181FF13C0163421F580EEE1
:102D40000E94951580EF0E9495158CE70E949515BD
:102D500080EE0E94951580EF0E94951582E10BC0D0
:102D600082FD11C080FF03C080EE0E94951580EFA8
:102D70000E949515802F0E9495158CEF0E94951545
:102D800002C080E001C081E01F910F91FF90089583
:102D900080917404882329F481E0809374040E9454
:102DA000092908951F93162F8E3F11F080938204F6
:102DB0000E944414109383041F9108950E94241CC0
:102DC00008958F929F92AF92BF92CF92DF92EF922F
:102DD000FF920F931F9388E0809383040E947E15D7
:102DE000E7E4F2E0119222E0E73EF207D9F720EDA6
:102DF00032E006C0FC01E95BFD4F80818260808388
:102E0000F901849190E02F5F3F4F009799F723EDF0
:102E100032E006C0FC01E95BFD4F80818460808365
:102E2000F901849190E02F5F3F4F009799F727EDCC
:102E300032E006C0FC01E95BFD4F80818860808341
:102E4000F901849190E02F5F3F4F009799F72CEDA7
:102E500032E006C0FC01E95BFD4F80818160808328
:102E6000F901849190E02F5F3F4F009799F72AE096
:102E700033E006C0FC01E95BFD4F80818061808307
:102E8000F901849190E02F5F3F4F009799F729E176
:102E900033E006C0FC01E95BFD4F808180628083E6
:102EA000F901849190E02F5F3F4F009799F70E94BE
:102EB000EE1586E090E00E94072C823011F485E048
:102EC00005C0833011F48AE001C081E08093640181
:102ED0008CE690E00E949E1B8EE690E00E94AA285D
:102EE0000E94991A0E94611F789499249394A5E0F6
:102EF000AA2EB12CC12CD12CF6E98F2E8091800402
:102F000081FF07C0F894809180048D7F80938004B6
:102F100078940E945D14882309F4DAC080916D01D1
:102F200090916E018C3F910529F00E94DF15882356
:102F300009F4CEC00E945314182F8093E70280E05A
:102F40000E94031660918304623009F459C0633013
:102F500018F4613039F44EC0663009F4A5C067300A
:102F600009F457C0133F79F1143F70F41E3ED1F0BD
:102F70001F3E20F41D3E09F0A7C022C0103FE9F01B
:102F8000123F09F0A1C010C0163F39F1173F20F4DD
:102F9000143F09F099C01AC01E3F61F01F3F09F0AD
:102FA00093C005C08EEE92C08AEF64E08FC08AEFB6
:102FB00068E08CC08091820489C08AEF62E086C09C
:102FC0008AEF66E083C08AEF67E080C08AEF60E046
:102FD0000E94D2160E94C8167BC090927000A092E8
:102FE0007100B0927200C0927300D09274000E947F
:102FF000EE156AC0153F09F467C08AEF61E066C04C
:103000000E94EE15112311F060E001C063E08AEF29
:103010005DC0812F90E09C0120763070E5E0359511
:103020002795EA95E1F7209370009C012770307096
:103030003093E9022093E8028871907073E09595CF
:1030400087957A95E1F79093EB028093EA0241E04D
:1030500050E020E030E004C0440F551F2F5F3F4F89
:1030600028173907CCF34093EE025093EF023093C8
:10307000ED022093EC028091E8029091E9029C011C
:10308000429FC001439F900D529F900D1124AA278B
:1030900097FDA095BA2F8093710090937200A09332
:1030A0007300B093740010C00E94C8168091E702AC
:1030B000982F80E090FD84E091FD816092FD826018
:1030C0000E94CF050E9477098AEF60E00E94D21625
:1030D0000E946614882309F411CF80916F01882320
:1030E00009F00CCF80918304843009F407C1853046
:1030F00030F4882371F0833009F000CFFDC08830B0
:1031000009F401C18C3009F482C0853009F0F6CE93
:10311000F8C00E94DF15882311F00E94DE1620916E
:10312000690130916A0180916701909168012817C7
:10313000390711F480E014C0C901019690936A0127
:1031400080936901883C910524F010926A011092E5
:103150006901E0916901F0916A01E059FE4F8081B7
:10316000282F30E030936E0120936D012B3F310505
:1031700021F481E00E940316C1CE2C3F310509F4F1
:10318000BDCE232B61F060E00E94D2161092430264
:10319000109244021092450210924602AAC08091F9
:1031A0006601882309F4A5C02091430230914402AE
:1031B00040914502509146022F5F3F4F4F4F5F4F66
:1031C00020934302309344024093450250934602B9
:1031D00080917000889DC00111248A519F4FAA27B9
:1031E00097FDA095BA2F281739074A075B070CF4FB
:1031F00080C0109243021092440210924502109235
:10320000460210926C018CE08093830472C080911E
:103210006C01882311F40E94DE16809166018823D8
:1032200021F00E94DF15882359F410928304109234
:1032300043021092440210924502109246025ECE62
:103240008091430290914402A0914502B0914602C0
:103250000197A105B10521F080916C018823A9F0A7
:1032600090916C01E92FF0E0E75CFD4F80819F5F5A
:1032700090936C016CE00E94D2166091660180917F
:103280006C010E944E2A90936C01E0904302F090F2
:10329000440200914502109146020894E11CF11C81
:1032A000011D111D60917100709172008091730079
:1032B000909174002AE030E040E050E00E942F2A14
:1032C0006D5F7F4F8F4F9F4F2091640130E040E052
:1032D00050E00E942F2A9B01AC01C801B7010E9457
:1032E000A32A609343027093440280934502909313
:1032F00046020E94C52202CE82E008C08BEA65E049
:1033000006C083E803C00E94EE158AEA60E00E94CE
:10331000D216F4CD80910E038150089580917500EE
:10332000089590911003891711F090E006C090E085
:1033300080911103681709F491E0892F08958FE7B0
:10334000809310038093110308958E3F11F481E060
:103350000EC0883F11F482E00AC0863F11F483E07A
:1033600006C08B3F19F410927600089583E680938F
:103370007600089590E080917600833609F091E020
:10338000892F08958FEF92E0089580EF92E00895DD
:103390000E94C219A0EFB2E0FC018FE001900D92F3
:1033A0008150E1F781E080937500EFEFF2E08081DA
:1033B000882319F01092750005C0319683E0EE3035
:1033C000F807A9F70E948E19882311F00E94A81D02
:1033D0000895DF93CF930F92CDB7DEB719828FEFA9
:1033E00092E0BE016F5F7F4F0E9451138981882355
:1033F00019F010920F0309C090910F0380910E03F2
:10340000891718F09F5F90930F0320E090910F03AE
:1034100080910E03981709F421E0822F0F90CF912D
:10342000DF9108950E94E91908950E948528882354
:1034300019F00E94852808950E94D522882311F052
:103440000E94D52208958F929F92AF92BF92CF9201
:10345000DF92EF92FF920F931F93DF93CF930F9220
:10346000CDB7DEB780917600833609F054C00E9454
:10347000151AD82E0E94C2197C0100E081E0A82E06
:10348000B12C8D2D82508983F70180818823D9F159
:1034900088249924C82C9501082C02C0220F331FC0
:1034A0000A94E2F7F7018081822331F18D2D602F9C
:1034B000482D0E94FD1E182F0E94D222882329F435
:1034C000812F61E00E94DB1D182F1E3F11F481E067
:1034D0000EC0183F11F482E00AC0163F11F483E0D9
:1034E00006C01B3F49F4F981F23030F480E0C0920D
:1034F0001003009311030FC00894811C911C88E0F5
:103500008816910439F60F5F0894E11CF11C0F3006
:1035100009F0BACF8D2D0F90CF91DF911F910F91B0
:10352000FF90EF90DF90CF90BF90AF909F908F90E3
:1035300008958FE0E0EFF2E0DF01982F1D929A9559
:10354000E9F7EFEFF2E0DF011D928A95E9F70895C0
:10355000682F6F5F60930E0389E991E00E941F2C32
:1035600080910E038D5F80930F03089589E991E0A8
:103570000E94072C80930E038F3F19F48AE08093FA
:103580000E030E941F1480910E038D5F80930F0322
:103590000E949F190E94991A089586E084BD809127
:1035A000840490918504019690938504809384040B
:1035B0000895809112030895982F8C3048F080E38D
:1035C000989FC00111248B5990400E94072C07C07E
:1035D000E8EA8E9FF0011124E050F849849190E0D0
:1035E00081508E3F08F491E0892F089580E00E9479
:1035F000BB270895109212030E94F61A0895FF92B5
:103600000F931F9310928504109284041092140358
:103610001092130388EAF82E00E38091770020913E
:103620001503309116038C3020F0203331053CF027
:1036300003C0283A31051CF00E94FA1A47C02091B5
:103640001503309116038C3090F02F5F3F4F30936D
:103650001603209315032C593040809FC00111247C
:10366000820F931F0E94072C282F10E017C08F9DF8
:10367000A0011124C9010196240F351F205038499B
:10368000F9012491019690931603809315030197F5
:10369000480F591F40505849FA011491822F815008
:1036A0008E3F80F4822F0E943621912F9F7709F45C
:1036B000B4CF8BE4989FC00111249093140380939E
:1036C000130304C00E94FA1A0E9486211F910F91D1
:1036D000FF90089580911203882369F0209184045B
:1036E00030918504809113039091140328173907B2
:1036F00014F00E94FF1A0895982F809112038823D6
:1037000091F481E080931203909377001092140358
:103710001092130310921603109215030E94FF1AC1
:1037200085B5836085BD08950E94C02785E06DEC56
:103730007AE10E94C8270E94F61A08959093180310
:10374000809317030895E0911703F09118030190F7
:10375000F081E02D099508950E94A31B0895DF9242
:10376000EF92FF920F931F93182F062FF42EE22E45
:10377000642F422F202F0E9470070E94151AD82E06
:103780008F2D6E2D0E9491198823E9F0002321F4DA
:103790000E94BA198823B9F08D2D6E2D4F2D0E94ED
:1037A000FD1E182F002331F061E00E94DB1D0E94F6
:1037B000A51905C080E00E94A5190E949F19812FBC
:1037C000865D8831D8F51123C9F1812F602F0E94C1
:1037D000E623182F6F2D4E2D202F0E940A23D82E5E
:1037E000812F602F0E94F51D812F602F0E94941E53
:1037F000002311F00E94381E0E94701F882349F098
:10380000812F6F2D4E2D202F0E94921F182F88235D
:10381000A9F0DD2099F0812F0E94201F882371F4E8
:10382000002329F0812F0E940F20882339F4812F53
:1038300060E00E94DB1D602F0E94A31B1F910F916F
:10384000FF90EF90DF9008952F923F924F925F92FA
:103850006F927F928F929F92AF92BF92CF92DF92A0
:10386000EF92FF920F931F93DF93CF9300D000D07E
:10387000CDB7DEB70E9417228823E1F00E9489218C
:103880008823C1F40E946622092F813019F4892F00
:1038900061E00EC0892F8756883040F40E94831E55
:1038A000182F802F0E942F1F182321F4802F60E0F3
:1038B0000E94A31B0E94121A882309F4AAC00E9426
:1038C000231A282E0E94C219182F092F0E94C519E9
:1038D0003C01212F302FC9014C018FE0289E60014F
:1038E000112489E193E0C80ED91EEE24FF243E2C5A
:1038F000D3018C91882329F4F4018081882309F471
:1039000075C01C821B82C701875E9C4F9A83898386
:10391000AB8021E0422E512C0A2C02C0440C551CD5
:103920000A94E2F7B42CD4011C91142109F011E09F
:1039300090E0F30180818B2109F091E0911709F467
:103940004DC00E949C22882341F0112309F446C0F7
:10395000832D6A2D0E949F225AC0822D632D4A2DED
:103960000E94FD1E082F612F0E94E822802F0E94D6
:10397000F822882399F1112339F0D6018C918B29F3
:103980008C93802F61E026C0E981FA8110E080816C
:1039900090E084219521892B29F41F5F3F961430F4
:1039A000B1F7122D812F632D4A2D0E94FD1E212F6C
:1039B00030E0F90194E0EE0FFF1F9A95E1F7E21B6A
:1039C000F30BEE0DFF1DE75EFC4FB09490819B2141
:1039D000908360E04A2D232D0E94AF1BEB81FC8178
:1039E0003196FC83EB83389709F092CF0894E11C61
:1039F000F11C0894611C711C0894811C911C089492
:103A0000C11CD11CFFE0EF16F10409F070CF0E9439
:103A1000C8190F900F900F900F90CF91DF911F91C9
:103A20000F91FF90EF90DF90CF90BF90AF909F905D
:103A30008F907F906F905F904F903F902F90089560
:103A4000982F8091560380FF0FC0993611F49AE6A3
:103A50000BC09A3611F499E607C09D3611F49EE624
:103A600003C09E3609F49DE6892F089580E00E94E8
:103A7000791E882319F01092570308950E94831E1F
:103A8000982F80915503981791F09C3221F0903E29
:103A900011F0943A41F410925B0310925A0382E0C1
:103AA0008093570302C0109257039093550340919F
:103AB00057034423B1F180915A0390915B0301961F
:103AC00090935B0380935A032091580330915903DC
:103AD0002817390734F54230E1F482E390E00E9480
:103AE0007D0F8091560380FF04C08E7F8093560324
:103AF00010C081608093560384EF91E02CE231E0A6
:103B0000F9013197F1F70197D9F784E690E00E9427
:103B10007D0F88E090E0609156030E941F2C109268
:103B20005703089588E090E00E94072C8093560385
:103B30008F3F11F41092560388E893E10E94A12868
:103B40009093590380935803089580915D030895DD
:103B500010925C0310925D030895E82FF0E0E651A7
:103B6000FE4CEE0FFF1FE4918E2F0E94FA1E089567
:103B7000E82FF0E0EE0FFF1FEB52FC49E4918E2F8F
:103B80000E94FA1E08950F931F93082F865D8831B7
:103B900010F0102F0CC0802F0E94AD1D182F0E9416
:103BA000201F882321F0802F0E94B81D182F812FFD
:103BB0001F910F9108951F93182F865D883190F4FF
:103BC000662341F40E94A51D882361F080915C0367
:103BD000811721F4812F0E94AD1D03C0812F0E9407
:103BE000C31D182F812F1F9108951F93182F865DD5
:103BF000662399F0883168F40E948E19882349F071
:103C000080915C03882329F410935C0310925D0378
:103C10002DC081E080935D0329C0883138F5109173
:103C20005C03112319F10E94A51D8823F9F4812F4B
:103C30000E94B81D182F0E943621812F0E94362124
:103C400010925C0310925F0310925E030E94811F2A
:103C5000882361F0812F60E040E021E00E94921F04
:103C6000812F60E040E020E00E94921F1F910895A4
:103C70001F9310915C031123D9F00E94A51D882386
:103C8000B9F0812F0E94AD1D61E00E94AC1B0E9423
:103C9000811F882349F080915C030E94AD1D60E084
:103CA00040E021E00E94921F10925F0310925E0399
:103CB0001F91089580915C038823A9F080915D0392
:103CC000882389F480915E0390915F03019690931D
:103CD0005F0380935E03855F914028F081E08093CD
:103CE0005D030E94381E089580916803811181E070
:103CF0000895863010F080E00895E82FF0E0E05A53
:103D0000FC4F8081089580916603089510926703A7
:103D1000109266031092680386E0E0E6F3E0DF01AC
:103D20001D928A95E9F708950F931F93162F0E940D
:103D3000C31D082F8756112329F1883038F41091BC
:103D40006603802F0E942F1F182B25C080916803C7
:103D50008F5F80936803809167038630A8F50D3BE1
:103D600098F580E693E0602F0E94DE208F5F9F4FE2
:103D700059F580916703E82FF0E0E05AFC4F00838B
:103D80008F5F20C0883050F410916603802F0E940E
:103D90002F1F809518231093660316C08091680327
:103DA00081508093680380E693E0602F0E94DE20BC
:103DB000BC0197FD09C080E693E00E94F820809145
:103DC00067038150809367031F910F91089598E7CF
:103DD000899FF0011124E050FA4970E083E0660FFA
:103DE000771F8A95E1F7E60FF71FE40FF11DE491C5
:103DF0008E2F08950E94201D0895FF920F931F9308
:103E0000182F062FF42E0E94811F882361F0812F26
:103E1000602F4F2D0E94E71E182F0E94731F8823CA
:103E200041F010E006C0812F602F4F2D0E94E71E49
:103E3000182F812F0E94FA1E1F910F91FF90089555
:103E4000982FEEEDF1E08491981711F481E0089538
:103E5000319681E0E23EF807B1F780E00895E82F5F
:103E6000F0E0E558FE4FE4918E2F089580916903AC
:103E7000089580916903882311F40E946A0781E004
:103E8000809369030895809169038823C9F4809120
:103E90006A0390916B03019690936B0380936A037E
:103EA0008053954768F010926B0310926A038091DB
:103EB0006C038F5F80936C038A3011F40E94391F6A
:103EC000089580916903882311F00E940B0D1092D0
:103ED000690310926B0310926A0310926C030895A9
:103EE00080916E03089590E08D5B883108F491E035
:103EF000892F089590E0895C8C3008F491E0892F37
:103F0000089590E08091BA038B3009F491E0892FF5
:103F1000089580916E03089510926E0381E080935E
:103F2000B90308950F931F93022F60E00E94DB1DD9
:103F3000182F8D3B80F5002369F080916D03883147
:103F400050F58F5F80936D0381E793E0612F0E94AE
:103F50002A210EC081E793E0612F0E94DE20BC0180
:103F60008FEF6F3F7807B9F081E793E00E94F82068
:103F700080917003E82FF0E0E757FC4F10838F5FCC
:103F800080937003803340F080916E03882321F08A
:103F90000E948C1F01C010E0812F1F910F91089586
:103FA00090E3E9E8F3E0DF01292F1D922A95E9F774
:103FB00010927003E1E7F3E0DF011D929A95E9F7B3
:103FC00010926D0380936F0381E080936E031092D3
:103FD000B90388EC90E00E947D0F88EE93E02CE21C
:103FE00031E0F9013197F1F70197D9F784E690E0D4
:103FF0000E947D0F089580916F038C3078F460E308
:10400000869FB00111246B557E4F89E893E040E311
:1040100050E00E940F2C8FEF80936F0308951F9341
:10402000182F0E94731F8823C9F00E94172288232B
:1040300061F41D5B812F0E94DC1A882371F00E94BD
:104040002122812F0E947C1B08C00E94832188238B
:1040500021F00E9444220E94862181E01F91089550
:104060008F929F92AF92BF92DF92EF92FF920F9347
:104070001F93DF93CF930F92CDB7DEB78C01DD2472
:104080004E010894811C911C80E6A82E80E0B82E79
:1040900033C000D000D000D0EDB7FEB73196ADB739
:1040A000BEB712969C928E921197B382A282800F15
:1040B000911FDC018C91848315820E94752B8DB732
:1040C0009EB706960FB6F8949EBF0FBE8DBF89812E
:1040D0000E9498217C01882319F088E60E943621ED
:1040E0008F2D0E9436218F2D0E943621EE2019F04F
:1040F00088E60E943621D3948D2D90E0F80101903E
:104100000020E9F73197E01BF10B8E179F0708F2AB
:104110000F90CF91DF911F910F91FF90EF90DF9063
:10412000BF90AF909F908F9008958091B90388239E
:1041300099F00E948E19882379F00E941722882313
:1041400059F41092B9030E94FB1F8FEF80936F0305
:1041500084E690E00E947D0F089528EB3BE003C0C9
:10416000F9013197F1F70197D9F708951F93162FA9
:104170000E94072C90E002C0959587951A95E2F76A
:10418000809581701F9108950F931F93162F042F10
:104190000E94072C21E030E002C0220F331F1A9545
:1041A000E2F7622F60956823002309F4622B87E011
:1041B00090E00E941F2C1F910F910895CF93DF93E1
:1041C000EC01DC010D900020E9F71197A81BB90B59
:1041D00070E0AD010E94002B009719F4EFEFFFEFA4
:1041E00003C0FC01EC1BFD0BCF01DF91CF910895C3
:1041F0009B01FC0101900020E9F73197E81BF90BC6
:104200006F5F7F4F680F791FE21BF30B820F931FC5
:10421000AF010E94162B0895FF920F931F93F42E67
:104220009B01DC010D900020E9F78C01060F171FA0
:10423000A81BB90BA61BB70B2F5F3F4F820F931F15
:10424000B801AD010E94162BF801F0821F910F9169
:10425000FF900895462FDC010D900020E9F711979B
:10426000A81BB90BBD010E940C210895282F809135
:10427000EA039091EB0301969093EB038093EA039A
:104280008435910524F01092EB031092EA0380919B
:10429000E8039091E903E091EA03F091EB038E17B4
:1042A0009F0759F4009719F483E590E001C0019746
:1042B0009093EB038093EA030895E351FC4F20832E
:1042C00008952091E8033091E9038091EA039091E9
:1042D000EB032817390711F480E00895C90101960E
:1042E0009093E9038093E8038435910524F01092BC
:1042F000E9031092E803E091E803F091E903E35148
:10430000FC4F808108958091EC0308951092EC0396
:10431000089540E02091E8033091E9038091EA0399
:104320009091EB032817390709F441E0842F089591
:10433000982F81568A3118F4292F2D5510C0892FB6
:1043400081548A3120F4292F2D5332E009C0892F5E
:104350008153893010F020E002C0292F235130E032
:10436000892F90E0FC01B097EF35F10508F048C0C7
:10437000E65DFF4FEE0FFF1F0590F491E02D0994CD
:104380002EE141C02FE13FC020E23DC021E23BC011
:1043900022E239C023E237C024E235C025E233C02F
:1043A00026E231C027E22FC02CE22EC02DE22CC025
:1043B0002DE229C02EE228C02EE225C02FE224C023
:1043C0002FE221C020E320C020E31DC021E31CC058
:1043D00021E319C023E318C023E315C024E314C06C
:1043E00024E311C025E310C025E30DC026E30CC073
:1043F00026E309C027E308C027E305C028E304C07B
:10440000222311F428E332E0832F922F089527E22C
:10441000FBCF0F931F930BEB13E090E0B8014AE042
:1044200050E00E94282BC8011F910F9108950E940F
:104430008921882319F481E090E008950E94D91A17
:1044400008950E948921882339F08AE2EEEBF3E097
:10445000DF011D928A95E9F708951092EB031092FF
:10446000EA031092E9031092E80384E5EDEEF3E02D
:10447000DF011D928A95E9F78AE2EEEBF3E0DF01B6
:104480001D928A95E9F70895CF93DF931092EB037D
:104490001092EA031092E9031092E80384E5EDEE2E
:1044A000F3E0DF011D928A95E9F7CEEBD3E0888136
:1044B000882339F00E9436212196B3E0C83EDB07FD
:1044C000B1F70E94FA1ADF91CF9108951F93CF930D
:1044D000DF930E946121182F0E94731F882361F0CF
:1044E0000E944422812F8D5B0E947C1B81E080937F
:1044F000EC0382E010E01BC0CEEBD3E0112331F4DB
:104500008AE2FE0111928A95E9F70AC0CE01612F75
:104510000E94DE20BC0197FD05C0CE010E94F8205C
:1045200082E005C0CE01612F0E942A2181E0912FF7
:10453000DF91CF911F910895809141040895EF92EA
:10454000FF920F931F93E82EF62E03E610E0C801AA
:104550000E9430208F2D0E9409220E94302085E683
:1045600090E00E9430208E2D0E9409220E9430206F
:10457000C8010E9430201F910F91FF90EF90089585
:10458000809341040E94770908950E9495200E941B
:10459000361D0E946A1B0E94B2230E945A1E0E946E
:1045A000361008958091420408958091430408953F
:1045B00080914404089580914A0408950895FC016F
:1045C0008081823011F483E001C081E0808308950E
:1045D000662369F0843F29F488E494E00E94DF2296
:1045E0000895833F21F489E494E00E94DF22089536
:1045F000982F80914804823059F08091490482308C
:1046000029F49A3629F080E09E3619F081E0089569
:1046100080E008950F931F93022F0E94C31D182F4F
:104620000E94201F882309F079C0002309F469C083
:104630001C3F41F0173F31F080914204882341F143
:104640001A3231F580914304809344041A3299F070
:10465000882319F41C3F59F404C01C3F21F4823014
:1046600051F082E005C0173F31F4833021F083E040
:104670008093430402C0109243040E947709809102
:1046800043048093440480E01A3209F048C042C0D9
:1046900080914504882361F0812F0E947A1F88232E
:1046A00039F0195C1093780081E08093460436C09D
:1046B000193221F481E08093420431C0153F71F436
:1046C0008091470491E0892780934704882319F457
:1046D0000E94140D23C00E945F0720C0123F59F4AE
:1046E0000E94891F882319F00E948C1F17C081E047
:1046F0008093450413C0812F609142040E94F90DFC
:104700000EC01C3F59F0193219F41092420402C035
:10471000123F11F081E003C01092450480E01F9128
:104720000F910895FC0180818130A1F482E08083A3
:1047300082E390E00E947D0F84EF91E02CE231E073
:10474000F9013197F1F70197D9F784E690E00E94DB
:104750007D0F0895833029F4108284E690E00E9452
:104760007D0F08950E948E19882341F088E494E01B
:104770000E94922389E494E00E9492230E948E1961
:10478000882379F080914604882359F010924604DA
:10479000809178008F3F29F00E94D01F8FEF809387
:1047A0007800089580914C040895482F80934C041C
:1047B00087E090E063E00E94C420089587E090E0E5
:1047C00063E00E94B62080934C0408950F931F93DA
:1047D000182F062F893229F40E94D223882319F436
:1047E00017C0803BA9F4002351F00E94831E823041
:1047F00011F0803261F481E080934B0406C0809117
:104800004B04882321F010924B0415E301C019E2F8
:10481000812F1F910F91089581E080937404089572
:1048200081E0809351041092520480934D040895C6
:10483000982F81578A31B0F481E080935304662326
:1048400069F0E92FF0E0EE0FFF1FE855FE4F85916C
:1048500094919093550480935404089510925504B4
:10486000109254040895982F81578330B0F481E05A
:1048700080935604662369F0E92FF0E0EE0FFF1FE6
:10488000E855FE4F85919491909358048093570476
:1048900008951092580410925704089580914E0480
:1048A000811181E008950F931F93082F81508C3B55
:1048B00008F059C080578A3108F455C081E08093D0
:1048C0004E04802F8756662341F1883038F41091CA
:1048D0004F04802F0E942F1F182B28C08091500456
:1048E000863008F040C0802F8D58823128F4E02FA8
:1048F000F0E0EF5CFD4F04918BE594E0602F0E94A7
:10490000DE208F5F9F4F79F58BE594E0602F0E944A
:104910002A21809150048F5F24C0883050F4109178
:104920004F04802F0E942F1F8095182310934F044F
:104930001AC0802F8D58823128F4E02FF0E0EF5C10
:10494000FD4F04918BE594E0602F0E94DE20BC01B6
:1049500097FD09C08BE594E00E94F82080915004F7
:104960008150809350041F910F9108951F93182F29
:10497000662351F061E00E945324812F61E00E9480
:104980001824812F61E009C060E00E945324812F28
:1049900060E00E941824812F60E00E94332481E0AF
:1049A0001F9108952F923F924F925F926F927F9244
:1049B0008F929F92AF92BF92CF92DF92EF92FF922F
:1049C0000F931F93DF93CF9300D00F92CDB7DEB735
:1049D00082B3837F82BB81B3837F81BB0E944726E2
:1049E00088E991E00E94072C882351F48B9A20E0FB
:1049F00048EB5BE0A895CA010197F1F72150D1F788
:104A00008B9889E790E00E949E1B8BE790E00E94C4
:104A1000AA2886E0EBE5F4E0DF011D928A95E9F72C
:104A20001092500410924F041092550410925404A6
:104A30007894BB24EE24FF24CC24DD2473E0772E6D
:104A400064E0662E57E7852E54E0952E48E0A42EAC
:104A500032E0232E312C280C391C2BE5422E24E089
:104A6000522E809174048823A9F4B9EECB16B3E0DA
:104A7000DB0624F40894C11CD11C0CC0F8948B9A5A
:104A800028E088E190E00FB6F894A89581BD0FBEAC
:104A900021BDFFCF8091A104882351F01092A10481
:104AA00010924D040E94611FBB24EE24FF2420C0FD
:104AB00080914D04882339F0E1E0E093A1040E9445
:104AC000611FBB2415C0BB2099F487010F5F1F4FE6
:104AD000F9EEEF16F3E0FF0654F00E948E198823DA
:104AE00031F00E94391F7801BB24B39401C07801D2
:104AF0000E9482268091910484FF6CC080915304AF
:104B0000882331F480915604882311F40E94241CD8
:104B100080914E04882309F441C080917404882355
:104B200009F49FCFBB2001F1F89422B331B3929ADC
:104B3000939881B38C6081BB88EE93E0ECE2F1E066
:104B40003197F1F70197D1F782B3862582BB82B303
:104B50008A2582BB88E293E20197F1F722BB31BB41
:104B6000789410924E047DCFD401EA2D1D92EA95DF
:104B7000E9F780914F048093770410927804409174
:104B80005004C101B20150E00E940D2B87E794E070
:104B900068E00E947D2610924E041AC08091510454
:104BA000813081F4F2E0F0935104D401EA2D1D929A
:104BB000EA95E9F787E794E068E00E947D260E9485
:104BC000991A06C080915204823011F470925204F6
:104BD0000E94C5228091BE0484FF24C080915304AA
:104BE000882371F0809154049091550479829B83BD
:104BF0008A83CE01019663E00E94782610925304C6
:104C000080915604882371F0809157049091580444
:104C100069829B838A83CE01019663E00E94782695
:104C20001092560480915104823009F01ACF80917D
:104C3000590490915A049C012F5F3F4F30935A04BE
:104C400020935904883C910519F40E94092909CF41
:104C5000293C31050CF405CF89EC90E090935A047F
:104C60008093590470925104FCCE0E94CF050E949B
:104C7000770980915204882319F482E080935204CA
:104C800008958BE4809392048093BF04089585B7C0
:104C9000886085BF8BB780688BBF0E9441268AE5FC
:104CA000809391048093BE0408951F93CF93DF9364
:104CB000DC01162FEA01888184FF05C0898198E80C
:104CC0008927898302C08AE58883AE014E5F5F4FE2
:104CD000FA01212F8D9181932150E1F7CA01612FB3
:104CE0000E94F0011C5F1883DF91CF911F910895FE
:104CF0004EEB54E00E945526089541E954E00E948D
:104D0000552608951F93CF93DF936091A4046350B9
:104D100067FDAEC08091A004CCE0D0E0C81BD109F3
:104D2000C855DB4F80919F048D3209F08EC06830EA
:104D300009F09CC083EC809386048AE580937D0013
:104D400010929E048881807629F0CE010E94BA11CB
:104D5000282F68C09A8110928F048981882331F4AA
:104D6000109290048FE894E022E058C0853019F446
:104D70009093A50450C08630D1F58B81813031F4F9
:104D800089B78B7F89BF8FE493E01DC0823029F102
:104D90008330F9F48A81882341F48DE193E0909384
:104DA000A3048093A20424E01EC0813041F481E278
:104DB00093E09093A3048093A2042CE114C082306A
:104DC00089F48DE393E09093A3048093A20422E1FD
:104DD0000AC0813211F0823229F4CE010E94011101
:104DE000282F01C020E080E480939E041BC08830FF
:104DF00019F487EA94E009C0893019F49093A70464
:104E00000AC08A3021F48FE894E021E007C08B309B
:104E100011F40E9441268FE894E020E09093A304CF
:104E20008093A2042F3F39F4888187FD2E8180E88A
:104E300080939E0406C08F81882319F48E81821787
:104E400008F0822F80937E0011C080919E0487FF1E
:104E50000DC0CE010E9485118F3F21F48EE1809319
:104E60007D0004C0882311F010927E001092A404EB
:104E700080917D0084FF56C080917E008F3F09F4B1
:104E800051C0182F893008F018E0811B80937E00F4
:104E90008091860498E8892780938604112379F10C
:104EA00080919E0487FF07C087E894E0612F0E94ED
:104EB0003B11182F22C02091A2043091A30486FF39
:104EC0000AC0F901912FA7E8B4E084918D9331963F
:104ED0009150D9F708C0D901912FE7E8F4E08D91FE
:104EE00081939150E1F7C90101961150810F911DF5
:104EF0001F5F9093A3048093A204193068F487E89D
:104F000094E0612F0E94F001612F6C5F6C3041F0E2
:104F10008FEF80937E0004C08FEF80937E006EE160
:104F200060937D0094E180B38C7031F49150D9F797
:104F30001092A50410929D04DF91CF911F910895C6
:104F400093B7987F982B93BF089582E00E94A02783
:104F500012BE89B7816089BF08959EB5987F982B4E
:104F60009EBD089582E00E94AD271DBC1CBC89B780
:104F7000846089BF089595B5987F982B95BD089555
:104F800084E00E94BB2714BC89B7806489BF089560
:104F9000883040F4E82FF0E0EE0FFF1FEF59FB4F91
:104FA000718360830895883040F4E82FF0E0EE0FBD
:104FB000FF1FEF59FB4F1182108208958FB58D7F2F
:104FC0008FBD8FB581608FBD19BC18BC08958FB59A
:104FD00080628FBD8FB58F7E8FBD08958FB58F7D19
:104FE0008FBD8FB58F7E8FBD089599BD88BD089503
:104FF00078941F920F920FB60F9211242F933F9324
:105000004F935F936F937F938F939F93AF93BF93D0
:10501000EF93FF9378948091610490916204892BBF
:1050200029F0E0916104F09162040995FF91EF91FC
:10503000BF91AF919F918F917F916F915F914F91B0
:105040003F912F910F900FBE0F901F90189578945D
:105050001F920F920FB60F9211242F933F934F93ED
:105060005F936F937F938F939F93AF93BF93EF93D0
:10507000FF9378948091630490916404892B29F0C4
:10508000E0916304F09164040995FF91EF91BF9161
:10509000AF919F918F917F916F915F914F913F91D0
:1050A0002F910F900FBE0F901F90189578941F921C
:1050B0000F920FB60F9211242F933F934F935F934C
:1050C0006F937F938F939F93AF93BF93EF93FF93D0
:1050D000789480916B0490916C04892B29F0E09175
:1050E0006B04F0916C040995FF91EF91BF91AF9122
:1050F0009F918F917F916F915F914F913F912F91F0
:105100000F900FBE0F901F90189580917104089515
:10511000682F8093710487E991E00E941F2C089505
:1051200087E991E00E94072C809371048F3F11F46E
:105130001092710408958D98959A08958D9A959876
:1051400008959C0180917F00882311F4359527955F
:10515000C901089590937604809375040895E091B1
:105160007504F09176040190F081E02D0995089581
:10517000F8940E94CC05109273041092720410925D
:10518000740408951F93182F0E94B61A112399F0E2
:1051900010E0812F0E94D3271F5F1730D1F789B706
:1051A0008E7F89BF89B78B7F89BF89B78F7B89BF86
:1051B0000E949B2802C00E949E281F9108958CE0A7
:1051C00090E00E94072C80937F000E94921D0E9415
:1051D000DE220E9490280E94DE230E94861E80917B
:1051E0007F00882361F40E94B82882E390E00E9447
:1051F0007D0F80E00E94C2280E94E11607C00E9435
:10520000B82881E00E94C2280E94D22481E090E068
:1052100008950E94700F0E94560F0E94941B0895DB
:10522000ABE0B0E0E6E1F9E20C94C22A5C014B018C
:105230007A01FC0117821682838181FD08C06FEF1D
:105240007FEF08C142E050E0E40EF51E04C03E01CD
:105250000894611C711CF501D380F401D3FC859185
:10526000D3FE81914F01882309F4F1C0853259F4AE
:10527000D3FC6591D3FE61914F01653219F0062F81
:1052800010E01BC085E290E02BC0002309F4DFC0D2
:1052900088E693E0602F70E00E94F52A892B39F4AC
:1052A000033211F4106103C00C3661F41068F4018C
:1052B000D3FC0591D3FE01914F0117FFE6CF0023E8
:1052C00009F4C5C081E693E0602F70E00E94F52AE2
:1052D000892B51F044E050E0E40EF51E8FE390E09E
:1052E000B5010E94492BB7CF033629F0033779F077
:1052F0000335F1F40BC087010E5F1F4FF70180816A
:105300009181B5010E94492B7801A5CF1160F70169
:10531000C080D18004C090E0B5010E94492BF60105
:1053200010FD859110FF81916F018823A1F78ACF2D
:10533000043611F0093639F517FF08C0F70120814E
:1053400031814281538184E090E00AC0F70180817D
:1053500091819C01442737FD4095542F82E090E0D5
:10536000E80EF91E1F7E57FF08C0509540953095F6
:1053700021953F4F4F4F5F4F1064CA01B901A30100
:105380002AE030E034C00037A9F0013730F40835A6
:10539000B1F00F3609F05BC006C0053739F00837A9
:1053A00009F055C008C028E030E00CC01F7E2AE09C
:1053B00030E008C01061146220E130E003C01460E6
:1053C00020E132E017FF08C0F7016081718182811E
:1053D000938144E050E008C0F70180819181BC01D5
:1053E00080E090E042E050E0E40EF51EA3010E9450
:1053F000992BD82ED618012F10E006FF05C08DE29C
:1054000090E0B5010E94492B04FF15C0FE01ED0D8F
:10541000F11D8081803379F080E390E0B5010E9436
:10542000492B02FF08C000721070C801885A9F4FB4
:10543000B5010E94492BDA94F301ED0DF11D808135
:1054400090E0B5010E94492BDD20A9F704CFF501BA
:1054500066817781CB012B96EEE00C94DE2A629F69
:10546000D001739FF001829FE00DF11D649FE00D5C
:10547000F11D929FF00D839FF00D749FF00D659FBD
:10548000F00D9927729FB00DE11DF91F639FB00DBC
:10549000E11DF91FBD01CF0111240895991B79E089
:1054A00004C0991F961708F0961B881F7A95C9F7B4
:1054B00080950895AA1BBB1B51E107C0AA1FBB1F03
:1054C000A617B70710F0A61BB70B881F991F5A9590
:1054D000A9F780959095BC01CD01089597FB092E01
:1054E00007260AD077FD04D0E5DF06D000201AF4A5
:1054F000709561957F4F0895F6F7909581959F4F30
:105500000895A1E21A2EAA1BBB1BFD010DC0AA1F04
:10551000BB1FEE1FFF1FA217B307E407F50720F01C
:10552000A21BB30BE40BF50B661F771F881F991F97
:105530001A9469F760957095809590959B01AC01E0
:10554000BD01CF01089597FB092E05260ED057FD0A
:1055500004D0D7DF0AD0001C38F450954095309520
:1055600021953F4F4F4F5F4F0895F6F790958095E7
:10557000709561957F4F8F4F9F4F08952F923F9267
:105580004F925F926F927F928F929F92AF92BF9253
:10559000CF92DF92EF92FF920F931F93CF93DF93FF
:1055A000CDB7DEB7CA1BDB0B0FB6F894DEBF0FBE5C
:1055B000CDBF09942A88398848885F846E847D84A9
:1055C0008C849B84AA84B984C884DF80EE80FD80AB
:1055D0000C811B81AA81B981CE0FD11D0FB6F89421
:1055E000DEBF0FBECDBFED010895FC01059006168C
:1055F00021F00020D9F7C00108953197CF01089517
:10560000FC014150504030F001900616D1F731971F
:10561000CF010895882799270895FB01DC0102C076
:1056200001900D9241505040D8F7089568177907BE
:1056300068F4FB01DC01E40FF51FA40FB51F02C0E5
:1056400002900E9241505040D8F708950C940D2BC3
:10565000FB019F01E8944230C4F04532B4F44A3073
:1056600029F497FB1EF4909581959F4F642F77271F
:105670000E945A2A805D8A330CF0895D8193CB01A8
:105680000097A1F716F45DE251931082C9010C94C2
:105690003D2C0F931F93CF93DF938C01EB018B81F4
:1056A00081FF1BC082FF0DC02E813F818C819D81B7
:1056B0002817390764F4E881F9810193F983E883B5
:1056C00006C0E885F985802F0995892B31F48E81F4
:1056D0009F8101969F838E8302C00FEF1FEFC80149
:1056E000DF91CF911F910F910895AEE0B0E0EBE70D
:1056F000FBE20C94CC2A0D891E8986E08C831A83E8
:1057000009838FEF9FE79E838D839E01275E3F4F26
:10571000CE0101966F89788DA9010E9410292F81F1
:105720003885020F131FF80110822E96E4E00C94C6
:10573000E82AFA01AA27283051F1203181F1E894B2
:105740006F936E7F6E5F7F4F8F4F9F4FAF4FB1E074
:105750003ED0B4E03CD0670F781F891F9A1FA11D6F
:10576000680F791F8A1F911DA11D6A0F711D811D70
:10577000911DA11D20D009F468943F912AE0269F35
:1057800011243019305D3193DEF6CF010895462F94
:105790004770405D4193B3E00FD0C9F7F6CF462F75
:1057A0004F70405D4A3318F0495D31FD40524193DE
:1057B00002D0A9F7EACFB4E0A6959795879577959B
:1057C0006795BA95C9F700976105710508959B0122
:1057D000AC010A2E06945795479537952795BA95AB
:1057E000C9F7620F731F841F951FA01D0895DC0168
:1057F000CB01FC01E199FECF06C0FFBBEEBBE09AF6
:1058000031960DB20D9241505040B8F70895E1998C
:10581000FECF9FBB8EBBE09A99278DB30895DC0124
:10582000A40FB51F4150504048F0CB01840F951F85
:105830002E910E94202C41505040D0F70895262FE1
:10584000E199FECF9FBB8EBBE09A01970DB2021685
:1058500031F02DBB0FB6F894E29AE19A0FBE08958D
:10586000262FE199FECF9FBB8EBB2DBB0FB6F894C0
:10587000E29AE19A0FBE01960895DC01FC01672FC0
:1058800071917723E1F7329704C07C916D93708317
:0E5890006291AE17BF07C8F30895F894FFCFDA
:10589E002563002E002C00FF0C7801011A1612163B
:1058AE0002050000000163FFFFB6244E245AFFFFDD
:00000001FF
